:020000040800F2
:1050000070230020CD500008D9810008F57F0008EA
:105010000000000000000000000000000000000090
:10502000000000000000000000000000DD8100081A
:105030000000000000000000DB810008458200083D
:10504000DF50000800000000DF500008DF500008BB
:10505000DF500008DF500008DF5000080159000849
:1050600000000000DF500008DF500008DF5000089B
:10507000DF500008D5820008DF5000080000000063
:10508000DF500008DF500008DF500008DF50000844
:10509000DF500008DF500008DF500008DF50000834
:1050A000DF500008DF500008DF500008818A000848
:1050B000DD8A0008358B00080348854600F0EAFACF
:1050C00000480047F19C00087023002004488047F6
:1050D00004480047FEE7FEE7FEE7FEE7FEE7FEE7DF
:1050E000C5820008B950000830B50B4601460020C3
:1050F0002022012409E00D46D5409D4205D31D46DE
:105100009540491B2546954040191546521E002DD5
:10511000F1DC30BD03460B439B0703D009E008C90F
:10512000121F08C0042AFAD203E00B780370401C57
:10513000491C521EF9D27047D2B201E00270401CE5
:10514000491EFBD270470022F6E710B513460A4607
:1051500004461946FFF7F0FF204610BD421E537863
:10516000521C002BFBD10B781370491C521C002BD6
:10517000F9D1704730B505462A460B4610781C78A1
:10518000521C5B1C002801D0A042F7D0002C03D099
:10519000002802D06D1CEFE7284630BD421C017884
:1051A000401C0029FBD1801A704710B5002200E096
:1051B000521C835C8C5CA34201D1002BF8D1D8B285
:1051C000E1B2401A10BD03460A780270401C491C27
:1051D000002AF9D11846704730B50546002003462D
:1051E00000E05B1C934205D2EC5CC85C201A01D144
:1051F000002CF6D130BD0321001D401E03781202A1
:105200001A43491EF9D51046704703460322087019
:10521000000A491C521EFAD51846704770B506465A
:1052200003F008FD046805460A220021304600F01C
:1052300033F82C6070BDF0B51FB40646002082B074
:1052400005464024019100901BE0019922460F463B
:10525000304600F041FA049A059B801A994110D318
:1052600010461946224600F027FA361A8F41019758
:10527000224601200021009F00F01EFA38184D41FF
:1052800000902046641E0028DFDC019B0098294620
:10529000324607B0F0BD0000F7B5009C0F4600266F
:1052A0002578641C002D05D000F03AFA0068405DB6
:1052B000C007F5D12B2D02D02D2D18D0641E3946F4
:1052C0002046029A00F030FA002F04D03968A1423B
:1052D00001D1009939607105022400290BDA40429E
:1052E000002803DD03F0A6FC0460A007FEBD01203A
:1052F00080020643E3E70028F8DA03F09BFC046031
:105300000048FEBDFFFFFF7FF0B507460846584046
:1053100087B0C00F049048000E4659004008490865
:10532000BC1A884105D2384631461E4617460B4600
:1053300002465800400810434CD0300D0390400501
:105340005900400D490D0590401A0290402872DA2C
:1053500018030121000B09050843019004980092ED
:10536000002805D001995242002088410092019006
:10537000029840210A1A0199009800F09DF905460B
:105380000C466B4607CB00F0B8F9C0197141039A7F
:105390000E0D0023D71756401A467A40164344D0C4
:1053A000049A002A2DD0029A012A039A15DC1205CC
:1053B000C01A914101263605001C7141D20F059E8D
:1053C000D2070093019202962A46234600F00CFA77
:1053D00007B0F0BD38463146FAE71605224A0F46B7
:1053E000B218C01AB74101210905001C4F4100182D
:1053F0007F41114618187941E20F10436D1964413D
:1054000013E0E2076D0815436408C2071443039ACA
:1054100001261205C01A91413605001C7141CE07C4
:10542000400830434908C01851412A46234600F03D
:10543000CEF9CDE7FFE7049801224000C117121A08
:1054400000238B4104983146C417381AA141EEE776
:1054500030B40124E407634030BC55E730B4012484
:10546000E407614030BC4FE70000E0FFF0B51FB437
:1054700088B00B990998002448400999C00F490049
:1054800049080991C0070B990090490049080B9100
:1054900009990898A64608431CD00B990A98084316
:1054A00018D0099801244000420D4800410D099888
:1054B00024050003000B204309900B980003000B08
:1054C00020430B9050181C494018002201901446AC
:1054D000104605E0002001460DB0F0BD032801DABA
:1054E000034600E003239C46C11A0AAE0AE05F00AF
:1054F00008ADED5B4F00F75B7D430027AA187C41A8
:10550000491C5B1E6145F2DD410004AB5A52210487
:10551000120C0A43240C401C0828DFDB019802907F
:105520000099704601910090059B049A079906988E
:1055300000F05AF9D0E700000DFCFFFFF0B50C4673
:105540005C4085B0E40FE40703944C000026640837
:1055500059009446490802460296224321D06246E9
:105560000A431ED06200570D4A000E032303550D57
:10557000012402462C492405781B1B0B360B4018CE
:1055800023432643614600901C46501AB44103D37E
:105590000098401C009002E0921800985B4100289F
:1055A00003DA0020014605B0F0BD00200121090505
:1055B0000746864611E064461D46141BB54106D3D6
:1055C0006546521BB341744607430C43A646CD07BC
:1055D00040084908284392185B4105460D43EAD12B
:1055E0001046184313D06046194650407140084396
:1055F00006D06046101AB34106D20122002306E00D
:1056000000220123DB0702E00122D243531000985D
:1056100074460105381C6141029C039D00196941D3
:1056200000F0D5F8BFE70000FD0300004A000903C1
:105630000123090B1B0519430A4B10B5520D9A4261
:1056400002DA0020014610BD064B34339A4203DCD7
:105650009A1A00F041F810BD034BD21800F02CF854
:1056600010BD0000FF030000CDFBFFFF10B50029B7
:1056700004DB0124E40740428C412146002B04DB7B
:105680001C460123DB075242A341994200D19042BC
:1056900010BD0000064C0125064E05E0E36807CC6E
:1056A0002B430C3C98471034B442F7D3FFF708FD66
:1056B00078A8000898A8000810B5202A04DB014645
:1056C000203A9140002010BD914020239C1A0346AF
:1056D000E3401943904010BD10B5202A04DB084672
:1056E000203AD040002110BD0B46D340D0402024AA
:1056F000A21A91400843194610BD10B5202A06DBB6
:10570000CB170846203A1041C1170B4306E00B4661
:105710001341D0402024A21A91400843194610BDDD
:1057200000487047E0A70008F7B582B0029C002748
:105730002078641C15460197302802D0002D15D022
:1057400015E020780127641C782804D0582802D05E
:10575000002D09D00BE0002D01D0102D07D100271E
:1057600010252078641C02E0082500E00A250026A8
:10577000009610E00099012769430818020C294699
:1057800080B2714300908E183804864201D3012004
:1057900001902078641C294600F078F80028E9DAA6
:1057A0000398002805D0002F01D0641E00E0029C61
:1057B00004600198002806D003F03CFA0221016041
:1057C000C81E05B0F0BD009930040843F9E710B5D4
:1057D000002B08DA0024401C614192185B411A43F7
:1057E00001D14008400010BDF0B51FB482B005469D
:1057F0000C0003D0084603F0D7F902E003F0D4F917
:1058000020300246009021462846FFF755FF049BB2
:10581000059A04460F4618431143084314D018460E
:1058200010431BD0009840210A1A18460599FFF72B
:1058300053FF05460E46009A05990498FFF73CFF72
:10584000084305D0012004E02046394607B0F0BDEA
:105850000020C11705430E432C43374300990E988F
:105860006305401A7905E40A00220C43FD0A0A3058
:1058700002D500200146E9E70105101969410C9C99
:105880000D9D00196941FFF7A2FFDFE73A2800D21A
:105890003038202302469A43412A01D31046373834
:1058A000884201D30020C043704770B58C1805783A
:1058B000401C6B075B0F01D10378401C2A1106D1F5
:1058C0000278401C03E006780E70401C491C5B1EE9
:1058D000F9D12B0705D40023521E0DD40B70491C9F
:1058E000FAE70378401CCB1A921C03E01D780D7078
:1058F000491C5B1C521EF9D5A142D8D3002070BDB3
:1059000010B5012464032146054800F0BBFA0028C5
:1059100002D1044901200870204600F003FA10BDAE
:105920000004005044000020704700000248416914
:10593000024A114341617047002002400400010007
:10594000054A5169FF23F9339943C00008430349CD
:10595000084350617047000000200240020001002F
:1059600030B505494C6901252C434C610260BFF3F9
:105970006F8F436030BD00000020024030B50B4CFB
:10598000002362690125AD042A436261EFF31082AE
:1059900072B620C95B1C20C0DBB2402BF9D3206952
:1059A000C003FCD482F3108830BD00000020024008
:1059B00070B5054600F078FA4619174C03E000F080
:1059C00073FAB0421FD22069C043C003F7D52169E2
:1059D00012480140401C2061A2690120800702405A
:1059E00003D0A0691043A0611143002903D00C48E3
:1059F0004160012070BD00F057FA451905E000F044
:105A000053FAA84201D3032070BD2069C04340036C
:105A1000F5D5002070BD000000200240FA83000090
:105A200018110020F8B506461A4C100AA07030462E
:105A3000E2700A380F4600252671030003F0CBF808
:105A4000160C141414141414141414140C0C0C0C3C
:105A50000C0C0C0C0C140E14617105E0642138461A
:105A6000FFF742FB6171A0710120215C401C4D19C0
:105A70000928FAD3280A60720649A572022034392F
:105A8000487005480078002803D0314603A003F091
:105A90007BF8F8BD740000201F0000200D0A47535A
:105AA000505F434F4D2B25640D0A000070B5124C1A
:105AB0000121E579002249031048002D06D0234634
:105AC0009B78012D05D0022D13D10CE0A27000228D
:105AD00003E03F2B06D3A270012200F0DFF9E0794A
:105AE000401CE07170BD072BFCD32261E068401CB4
:105AF000E060E27170BD0000400000200004005032
:105B0000F8B51C4C06460025E779012149031A48DF
:105B10002A46002F08D023469B78012F07D0022F5A
:105B200014D0E2712846F8BDA270002208E0002ED1
:105B300002D0152B02D2F5E7072BF3D3A270012276
:105B400000F0ACF9E079401CE071EBE7072BE9D3FA
:105B50002069072802D2401C206107E02261E0682A
:105B60000B2801D2401C00E0FE20E0601046E271EC
:105B7000F8BD00004000002000040050F8B50146C8
:105B80000024203101220A714B79022B03D0042119
:105B9000C16301242DE003681D680E26B5431D6016
:105BA00003681D686D086D001D60436C1D68FF264D
:105BB0000136B5431D60104B5D68066C1C273E40E6
:105BC0001746B7403D435D60836CC56C5D60036DF7
:105BD000002B07D01E68FF250135AE431E60436DC4
:105BE000856D5D604A7100220A71816B002900D0C9
:105BF00088472046F8BD000000000240F8B51D4D62
:105C0000064628780F4601280AD001202870002077
:105C100068607D20C000FFF7CBFE002802D026E0A0
:105C20000220F8BD3168042904D00021C94339603D
:105C3000746812E0FFF77AFE7D20C000FFF7B8FE1F
:105C400015E02046FFF77CFE7D20C000FFF7B0FE88
:105C5000002801D03C6005E0641CB26871688918B6
:105C6000A142EED804494A6902239A434A610021BD
:105C70002970F8BD181100200020024005490120BC
:105C80004A69C3071A434A614969002900DA0020BA
:105C90007047000000200240F0B51FB4144C0646C7
:105CA0002078154601280AD00120207000277D2089
:105CB000C0006760FFF77CFE002803D010E00220E0
:105CC00005B0F0BD012E0DD029460198FFF756FE14
:105CD0007D20C000FFF76CFE06494A69B2434A6165
:105CE0002770EDE72A46039B0198FFF739FEEFE79F
:105CF0001811002000200240064900204A69002AAD
:105D000007DA054A8A60054A8A604969002900DA8B
:105D1000012070470020024023016745AB89EFCD89
:105D20007047000070B5084D0446E868204203D073
:105D3000EC60204600F00AF82869204203D02C616C
:105D40002046FFF7EDFF70BD0018024070470000CD
:105D5000F0B5002388E001229A40944614402200C6
:105D60007ED04C68022C01D0122C0CD1DC08A4008F
:105D700027183C6A5D07ED0E0F26AE40B4430E694E
:105D8000AE4026433E6205685E000324B4400F79AE
:105D9000A543BF07BF0FB7402F4307604D68012DD4
:105DA00005D0022D03D0112D01D0122D0ED1856802
:105DB000CF68A543B7402F43876047686546AF4328
:105DC0000D79ED06ED0F9D403D434560C568A54347
:105DD0008C68B4402C43C4604C68E40043D59D08F3
:105DE000244CAD002F193C6E9D07EE0E0F25B540DB
:105DF000AC4305252D07A84201D100250FE01E4D1B
:105E0000A84201D101250AE01C4DA84201D102257A
:105E100005E01B4DA84201D1032500E00525B54052
:105E20002543144C3D66134D80352E684F689643CC
:105E3000FF0300D516432E606E684F689643BF037C
:105E400000D516436E6025684E689543F60200D56E
:105E50001543256065684E689543B60202D500E09B
:105E600001E0154365605B1C0A681446DA4000D007
:105E700071E7F0BD00180240000400500008005017
:105E8000000C00500069084000D0012070474269B2
:105E90000A4201D08162704781617047002A01D0B7
:105EA00081617047816270470148806870470000D7
:105EB0000C00002070B504000FD021681348086062
:105EC00021681348086003CC41602068083C2168C1
:105ED0008860FFF7E9FF054608E0012070BDFFF785
:105EE000E3FF401B302801D9032070BD2068C06843
:105EF0000028F4D120680269E1688A4201D001617A
:105F000001E004490160002070BD0000CCCC00001D
:105F100055550000AAAA000000680249016000204F
:105F200070470000AAAA00000248816842688918E8
:105F3000816070470C00002010B5084800240168FB
:105F4000821511430160204600F00AF8002801D0B4
:105F5000012401E000F028F8204610BD0020024096
:105F600070B50F4E002471680546002915D07D20BC
:105F7000C000FFF7B9F801460A480068FFF7B4F817
:105F800000F022FC002808D1042D06D20022294668
:105F9000401E00F03FF8356000E00124204670BD4F
:105FA0000C0000201800002008B50B4801680122F1
:105FB0001143016000681040009007484038C26BF0
:105FC00001040A43C263C06B0840009003204002F2
:105FD00000F0F0FB08BD000040100240002809DB83
:105FE000C106C90E0120884003490860BFF34F8FE6
:105FF000BFF36F8F7047000080E100E0002805DBF1
:10600000C106C90E012088400149086070470000A0
:1060100000E100E010B502F0EBFD10BD10B50F4C33
:10602000216803225202914301432160C11FFF39BD
:10603000FA390ED10A480621006848430949FFF79A
:1060400053F8401C02E0002805D0401E6169490554
:10605000F9D4002010BD032010BD000000700040E6
:106060001800002040420F00F8B5044600680026E2
:10607000524D800358D5514800274038C06BC000AE
:1060800009D44E484038C26B01040A43C263C06B56
:106090000840012700904A480168821511430160B9
:1060A000FFF702FF009005E0FFF7FEFE0099401A9F
:1060B000022825D842480068C005F5D5E8690321C3
:1060C000090208400FD0A16981420CD0E869032180
:1060D0000902EA698843012109040A43EA61EA697D
:1060E0008A43EA61E861C0070FD0FFF7DDFE009048
:1060F00008E0FFF7D9FE0099411A3248814201D9E0
:10610000032609E0E8698007F3D5E869032109025D
:106110008843A1690843E861002F05D0274840382B
:10612000C16B02049143C1632078C00705D0686940
:10613000616880088000084368612078800705D581
:1061400068690C218843A16808436861207840068B
:1061500006D56869032109038843E168084368613B
:106160002088400411D5686961698000800808436F
:106170006861012160698907884206D10F4840386B
:10618000C168012212041143C1602088000512D5A4
:1061900068690321890388432169084368610121F3
:1061A00020698903884206D104484038C168012229
:1061B00012041143C1603046F8BD00004010024097
:1061C0000070004088130000F8B50F46060043D069
:1061D0004D4D28684007400FB84213D22868C008C8
:1061E000C00038432860FFF75FFE044605E0FFF774
:1061F0005BFE011B4548814261D828684007400F7B
:10620000B842F4D13068424C81070DD5400704D51F
:10621000A068072109030843A060A0680F210902B4
:106220008843B1680843A0603078C00732D07068F6
:1062300001280AD002280BD000280FD03449403161
:1062400003280ED0C969890704E02168890301E0A9
:1062500021688901002906DB0120F8BD2168490574
:10626000F8E7096AEFE7A168C908C9000143A1601E
:10627000FFF71AFE009006E0FFF716FE0099411A9C
:10628000224881421BD8A068382108407168C900A3
:106290008842F1D128684007400FB84217D91A4800
:1062A0000168C908C90039430160FFF7FDFD0546D3
:1062B00007E0FFF7F9FD411B1448814201D9032093
:1062C000F8BD114800684007400FB842F1D130785E
:1062D000400706D5A068072109038843F1680843F1
:1062E000A06000F031F8A1683C2289091140094AF8
:1062F000515CC906C90EC8400749086007480068D4
:10630000FFF72EFEF8BD00000020024088130000B9
:1063100000100240ECA60008180000200C0000202D
:106320000648074900688968064A4904490F8900F8
:10633000515CC906C90EC840704700001800002013
:10634000001002402CA7000810B5204CA068204A7D
:106350008006400F16D0A0688006410F501001291A
:106360000FD0A1688906490F022912D0A0688006C3
:10637000400F042823D0A0688006400F032821D0B6
:10638000002010BD206801218004400F814010468C
:1063900012E0E1688B07E1689B0F4906490F491C31
:1063A000032B00D01046FEF79FFEE1684904490E1A
:1063B0004843E168490F491CFEF796FE10BD0120D5
:1063C000C00310BD7D20000210BD0000001002407F
:1063D0000024F400F8B504007ED020783827C007E8
:1063E000EB4D002846D0A868E96838408907890F36
:1063F000102802D008280BD001E0032908D0012082
:106400006268000482420AD129680143296015E0CC
:10641000286880032ED560680028DDD02AE0052397
:1064200001211B0489049A422A6802D10A432A6086
:10643000EAE782432A602868884328606068002869
:106440000CD0FFF731FD064604E0FFF72DFD801B61
:10645000642873D828688003F7D50BE0FFF724FD84
:10646000064604E0FFF720FD801B6428F1D8286869
:106470008003F7D42078800769D5A868E968384098
:106480008A070721920FC902102802D0002813D0D2
:1064900001E0022A10D0E068002846D0286888432E
:1064A0002169084328602868FF21013108432860DA
:1064B000FFF7FAFC06462CE02A68520502D5E2688E
:1064C000002A89D06A687F231B029A4363691B02F2
:1064D0001A436A60002800E08DE00ED128688843E6
:1064E000216908432860286801218004400F814009
:1064F000A848FEF7F9FDA8490860A8480068FFF71A
:106500002FFD002877D122E0FFF7CEFC801B022868
:106510009FD828684005F7D568687F21090288431D
:10652000616909020843686011E02968FF200130B1
:1065300081432960FFF7B8FC064605E098E0FFF7C5
:10654000B3FC801B022884D828684005F7D4207843
:10655000934E00072ED5A8688006400F03280AD066
:10656000A0690028306A16D0012108433062FFF785
:106570009BFC07460BE0306A80071BD5A06900280A
:106580009FD017E0FFF790FCC01B022870D8306A3C
:106590008007F7D50EE0400840003062FFF784FC2A
:1065A000074604E0FFF780FCC01B022860D8306A71
:1065B0008007F7D4207840076CD5A86800278006AC
:1065C000400F042818D0E86BC00008D4E96B012004
:1065D00000070143E963E96B01400127009171481D
:1065E0000168C90519D40168821511430160FFF7DC
:1065F0005BFC00900DE083E0F06980074AD5A0685D
:1066000000287DD046E0FFF74FFC0099401A022891
:106610002ED864480068C005F5D5A168012910D0BE
:1066200004200529F16911D049084900F161F16997
:106630008143F161A068002816D0FFF735FC009077
:106640000EE0F06901210843F061F3E70143F161D5
:10665000F7E7FFF729FC0099411A534881426DD8AA
:10666000F0698007F5D50EE0FFF71EFC009007E00B
:1066700064E0FFF719FC0099411A4B4881425DD84C
:10668000F0698007F5D4002F04D0E96B01200007E2
:106690008143E963E069002877D0A9688906490F3A
:1066A000022951D001263606022828680DD0B043B1
:1066B0002860E86880088000E860E8683B49084096
:1066C000E860FFF7F1FB04463AE0B0432860FFF7CB
:1066D000EBFB074604E0FFF7E7FBC01B02282DD8C1
:1066E00028688001F7D4616A206AA26A0843E16AD7
:1066F000120211430843216B0843E9682C4A00E069
:1067000041E011400843E860286830432860E868A9
:10671000012109070843E860FFF7C6FB044604E0CF
:10672000FFF7C2FB001B022808D828688001F7D5B4
:106730002BE0FFF7B9FB001B022801D90320F8BDAD
:1067400028688001F5D420E00128F8D0E868226AA2
:106750008107890F914216D17021626A01409142EE
:1067600011D17F21A26A09020140120291420AD18D
:106770001F214904E26A0140914204D1400F216B7C
:106780004007884201D00120F8BD0020F8BD00007C
:10679000001002400024F400180000200C0000202B
:1067A000401002400070004088130000FFFFFEEF21
:1067B0008C80C11F03490A6803235B029A4302438A
:1067C0000A60704700000140094910B5401E884228
:1067D00001D9012010BD074C60610321081F02F0A0
:1067E00007FA0020A06107202061002010BD0000F2
:1067F000FFFFFF0000E000E07047704770470000B7
:1068000070B5034620331A7F012A4BD001221A7734
:106810000325CA682D02AA438D6800682A43012512
:10682000AD02AA434D6800242A430125ED02AA4384
:106830000D682A4301252D03AA430D692A4301252A
:106840006D03AA434D692A430125AD03AA430D6B8D
:106850002A430F252D04AA430D8B2D042A43124DE4
:10686000A84204D101263607B243CE693243A8427A
:1068700014D10F252D05AA430D8D2D052A43012581
:106880002D06AA430D6A2A4301256D06AA434D6AC7
:10689000C96A2A4301256D07AA430A4342641C774B
:1068A000002070BD022070BD002C0140F0B50346F1
:1068B00020331A7F012A1ED001271F7702225A7720
:1068C00004686268A5680D4EB44205D116460F22D1
:1068D000120596434A6832437026B2430E688968AF
:1068E00016438022954329436660006881605F7784
:1068F00000201877F0BD0220F0BD0000002C014000
:1069000070B5040005D025462035687F002802D0E8
:1069100006E0012070BD00202877204600F00AF82C
:1069200002206877211D206801F072FD0120687740
:10693000002070BD08B500680549884207D10548A8
:106940000268C1140A43026000680840009008BD54
:10695000002C0140401002400168CB680122134323
:10696000CB6000688168064B1940062905D01304E6
:10697000994202D001681143016000207047000075
:106980000700010070B5054604462035287F012820
:1069900017D001262E7702206877226890682E4B48
:1069A0001840FF231B02984390600A68502A32D097
:1069B0000EDC202A4CD006DC002A49D0102A3BD11C
:1069C00046E0022070BD302A42D0402A34D137E060
:1069D000602A28D0702A12D001200003121A2BD06E
:1069E000824229D1CB684A688968206801F054FD49
:1069F0002068816801229203114381601CE0CB680A
:106A00004A688968206801F047FD21688868772214
:106A10001043886010E0CA684968206801F052FDA0
:106A20005021206806E0CA684968206801F05BFDD3
:106A30006021206801F03CFD6E770020287770BD52
:106A4000CA684968206801F03DFD40212068F1E7EF
:106A500011462068EEE7000088FFCEFF7047000077
:106A600070B50446006801690025C94389070029FB
:106A700015DBC168C943890711D4E91E01610120F2
:106A80002077206880698007204602D0FFF7E6FF64
:106A900004E000F0A7F8204600F0A5F8257720686C
:106AA0000169C943490717D4C168C943490713D4C9
:106AB0000421C94301610220207720688069800594
:106AC000800F204602D0FFF7C9FF04E000F08AF8EB
:106AD000204600F088F8257720680169C943090736
:106AE00016D4C168C943090712D40821C9430161FA
:106AF000042020772068C0698007204602D0FFF775
:106B0000ADFF04E000F06EF8204600F06CF8257749
:106B100020680169C943C90617D4C168C943C906B9
:106B200013D41021C9430161082020772068C0696F
:106B30008005800F204602D0FFF790FF04E000F0B0
:106B400051F8204600F04FF8257720680169C943C5
:106B5000C90708D1C168C943C90704D1891E0161A9
:106B6000204600F041F820680169C943090609D4AC
:106B7000C168C943090605D48021C9430161204683
:106B8000FFF73BFE20680169C943C90508D4C16805
:106B9000C943090604D4124901612046FFF72CFEBF
:106BA00020680169C943490609D4C168C943490637
:106BB00005D44021C9430161204600F016F8206841
:106BC0000169C943890609D4C168C943890605D446
:106BD0002021C94301612046FFF710FE70BD00006F
:106BE000FFFEFFFF704770477047704730B50146A2
:106BF00060310A7F012A18D001220A772423024635
:106C000080321446136003681A681D686D086D00B1
:106C10001D6001235B079A430023436600680260FE
:106C2000202020600B77184630BD022030BD704711
:106C3000F8B5054604466035287F01281DD001209F
:106C400028772422204680300746026020680668A4
:106C500002685208520002602068826807235B06BF
:106C60009A430A438260204601F06AFC206806606D
:106C70002020386000202877F8BD0220F8BDF8B544
:106C8000054604466035287F01281CD0012028775E
:106C90002422204680300746026020680668026889
:106CA00052085200026020688268D200D2080A436B
:106CB0008260204601F044FC206806602020386095
:106CC00000202877F8BD0220F8BD70477047704754
:106CD000F8B503680446DA69186899681607254606
:106CE000360F8035002E60D0584EFF2721370E40DA
:106CF0000740374372D0D70706D0C70504D5012710
:106D00001F62AB683B43AB60930708D5CB0706D047
:106D1000276802233B62AB6804273B43AB60530701
:106D200008D5CB0706D0276804233B62AB6802274F
:106D30003B43AB60130709D520230340334305D001
:106D4000266808233362AE681E43AE60AB68002B32
:106D500038D092060AD520221040D20511400843AF
:106D600004D0E16E002901D020468847A868216838
:106D70008968490601D4000729D5204601F0B2FCF4
:106D80002068816849061ED5826840218A43826056
:106D9000A06F002817D02E498163A06FFEF7EEFE8A
:106DA00000280FD0A06F816B0BE0960616D5012747
:106DB00020263F0706400F403E430FD0E16E22E001
:106DC00020468847F8BD2046FFF781FFF8BD2046E2
:106DD000FFF77DFF0020A860F8BDFFE7D60208D5C9
:106DE0004E0206D50120000518622046FFF76EFF0F
:106DF000F2E716060AD501278026FF05064039402E
:106E00000E4303D0216F0029DAD1E5E751060DD5F5
:106E100041060BD51A68204640218A431A6020217A
:106E200029600021216700F041F9D5E7110205D55D
:106E3000410003D52046FFF748FFCDE7D101CBD570
:106E40000028C9DA2046FFF7F2FEC5E7010000106E
:106E5000D186000870B5040006D020468030054673
:106E60000068002802D007E0012070BD00217C20CE
:106E70000155204600F026F824202860206801688B
:106E8000490849000160204601F040FC0128ECD08F
:106E9000A06A002802D0204601F082FB20684168E9
:106EA0000922D20291434160206881682A229143DD
:106EB000816020680168012211430160204601F0D1
:106EC000D5FB70BDF0B587B0044614216846FEF7C7
:106ED0003AF92468384E052000223849012302255A
:106EE0000007B4421FD1354C403427689E03374316
:106EF00027602468344005944C6B1C434C63496BF9
:106F000002921940059103214902009101950493D1
:106F100003926946FEF71CFF002201211B20FFF7A8
:106F200079F81B2020E0264EB44221D1CE6B0124FB
:106F300064042643CE63CE6B264005964C6B1C43FF
:106F40004C63496B0292C907C90F05910E2100914C
:106F50000195049303926946FEF7FAFE002202218E
:106F60001C20FFF757F81C20FFF748F807B0F0BDCA
:106F700014488442FAD1CB6B012080040343CB63D5
:106F8000CB6B03400593486B28434863486B0292E0
:106F900028400590032000020090042004900195F1
:106FA000039269460848FEF7D3FE002203211D2004
:106FB000FFF730F81D20D7E70038014000100240ED
:106FC000004400400048004000040050FFB5074660
:106FD00004468037386885B00D46202864D1002DDE
:106FE0000CD00798002809D00120A1680003814235
:106FF00007D12069002804D1E80702D0012009B098
:10700000F0BD204660300290007F01284CD00298ED
:10701000012101770020B86021203860FEF744FF8D
:107020000190264640360798B0820798F0820120EA
:10703000A1680003814202D12069002802D0039593
:10704000002515E00020039012E000228021204658
:1070500001F0E2FC002818D10398002817D021681D
:10706000007888620398401C0390F08A401EF082EA
:10707000F08A019B002808980090E6D10022402168
:10708000204601F0C9FC002808D00320B7E7288873
:107090002168C005C00D8862AD1CE6E7202038607D
:1070A000029900200877AAE70220A8E770470000AD
:1070B000F0B5C14889B0417900790A02024307213D
:1070C000BE48C901411802910321090241180191EA
:1070D0000521C90141180791C11DFF31FA310691FF
:1070E000803905910146FF308031013004910390D1
:1070F000002A25D1B149B2A001F046FDB2A001F0AD
:1071000043FDB8A001F040FDBDA0049901F03CFD95
:10711000C0A0059901F038FDC3A0079901F034FD26
:10712000C6A0069901F030FDC9A0039901F02CFD1D
:10713000CCA0019901F028FDCFA0029901F024FD17
:10714000D2480178002979D0002505709A48D0A14D
:10715000801DFEF72AF8D14F002804D10021162007
:107160003A68FEF75FFC9448CDA1801DFEF71DF83C
:10717000002804D1012116203A68FEF753FC8E48FE
:10718000CAA1801DFEF711F8C04C0126E41C00289E
:1071900009D12078002802D02570C8A001E026700F
:1071A000CBA001F0F1FC8448CEA1801DFDF7FDFFCE
:1071B000002804D1CF491F203A68FEF733FC7E48EF
:1071C000CDA1801DFDF7F1FF002807D07A48CEA1A0
:1071D000801DFDF7EAFF002809D012E0BFF34F8FB2
:1071E000CE49CD48C860BFF34F8F00BFFDE7607840
:1071F000002802D06570CAA001E06670CDA001F041
:10720000C3FC6D48D0A1801DFDF7CFFF002809D138
:10721000A078002802D0A570CDA001E0A670D2A071
:1072200001F0B2FC6448D5A1801DFDF7BEFF002827
:1072300006D1E078002802D0E57001E0B9E0E67000
:107240005D48D0A1801DFDF7B0FF002807D1CF48D1
:10725000017D002901D0057501E016210175564810
:10726000CBA1801DFDF7A1FF002801D1CB480670FE
:107270005148CBA1801DFDF798FF002801D102F0F5
:10728000DDFA4D480E22CAA1801DFDF7A5FF4A4C2C
:10729000143400280BD180210398FDF754FF2146B8
:1072A0000398FDF75BFFC6A0039901F06DFC42480F
:1072B0000E22CBA1801DFDF78FFF00280BD180216E
:1072C0000498FDF740FF21460498FDF747FFC8A04A
:1072D000049901F059FC38481122CDA1801DFDF719
:1072E0007BFF00280CD180210598FDF72CFF324947
:1072F00005981731FDF732FFCAA0059901F044FC4B
:107300002D480C22D0A1801DFDF766FF00280CD16E
:1073100080210698FDF717FF274906981231FDF7DF
:107320001DFFCDA0069901F02FFC23480A22D2A10F
:10733000801DFDF751FF00280CD180210798FDF733
:1073400002FF1D4907981031FDF708FFCDA00799EE
:1073500001F01AFC18480D22D1A1801DFDF73CFF59
:10736000154C133400280BD180210198FDF7EBFE5A
:1073700021460198FDF7F2FECDA0019901F004FC31
:107380000D480D22D2A1801DFDF726FF00280BD14C
:1073900080210298FDF7D7FE21460298FDF7DEFE18
:1073A000CFA0029901F0F0FB0348C821801DFDF732
:1073B000CAFE09B0F0BD0000721100204014002088
:1073C00025730D0A000000002A2A2A2A2AD3B2BCFB
:1073D000FEB0E6B1BE56312E302E302A2A2A2A2A95
:1073E0000D0A00002A2A2A2A2AC8EDBCFEB0E6B1FE
:1073F000BE56312E302E302A2A2A2A2A0D0A0000A3
:10740000436C69656E7449643A2020202025730D11
:107410000A0000004D717474486F737455726C3AB1
:107420002025730D0A000000506F72743A2020204E
:10743000202020202025730D0A0000005061737366
:1074400077643A20202020202025730D0A000000B8
:10745000557365726E616D653A2020202025730D8D
:107460000A000000514D54535542313A202020204B
:107470002025730D0A000000514D54535542323AF5
:10748000202020202025730D0A0000001C00002071
:10749000676173705F636C6F736564004800002000
:1074A000676173705F6F70656E0000006465627580
:1074B000675F476173706F7765720000B1DAB9D2A8
:1074C000C2AFD0C5CFA2B4F2D3A12D4F4646000023
:1074D000B1DAB9D2C2AFD0C5CFA2B4F2D3A12D4F89
:1074E0004E0000005265616C74696D655F53657490
:1074F00000000000E105000073797374656D5F5250
:1075000053543D310000000064656275675F454378
:107510003630304E000000000400FA0500ED00E0B7
:1075200045433630304ED0C5CFA2B4F2D3A12D4F53
:107530004646000045433630304ED0C5CFA2B4F2A7
:10754000D3A12D4F4E000000476173436F73740049
:10755000C8BCC6F8BBFDCBE3D0C5CFA2B4F2D3A163
:107560002D4F464600000000C8BCC6F8BBFDCBE36B
:10757000D0C5CFA2B4F2D3A12D4F4E004D515F73B1
:10758000656E6400544553545F4552009D000020D1
:10759000666C6173685F7361766500003C00002073
:1075A000666C6173685F466163746F727900000096
:1075B0004D5154545F757365726E616D653D000089
:1075C0004D5154545F73657474696E675F7573656C
:1075D000726E616D653A2020202025730D0A00002F
:1075E0004D5154545F636C69656E7449643D00008D
:1075F0004D5154545F73657474696E675F636C6951
:10760000656E7449643A2020202025730D0A00001D
:107610004D5154545F6D717474486F737455726C2E
:107620003D0000004D5154545F73657474696E677A
:107630005F6D717474486F737455726C3A202020BA
:107640002025730D0A0000004D5154545F70617382
:107650007377643D000000004D5154545F736574AE
:1076600074696E675F7061737377643A20202020BD
:1076700025730D0A000000004D5154545F706F7265
:10768000743D00004D5154545F73657474696E67A6
:107690005F706F72743A2020202025730D0A00005D
:1076A0004D5154545F514D54535542313D000000EB
:1076B0004D5154545F73657474696E675F514D54D6
:1076C000535542313A2020202025730D0A00000036
:1076D0004D5154545F514D54535542323D000000BA
:1076E0004D5154545F73657474696E675F514D54A6
:1076F000535542323A2020202025730D0A00000005
:1077000070B52D4C6079002854D00020214660715E
:107710009D31C87F6C225043E26A1518E562887C6F
:1077200082062046066B087E05D50C21A1710A2130
:10773000FDF7DAFC02E01E21A171800880197D218D
:107740002063C9002846FDF7CFFC05461B4880781A
:10775000002804D029461AA0226B01F015FA280748
:107760002049154A000F085CDD3210732809010713
:107770001C4B090F595CD17200090107090F595CB4
:1077800091720006000F1946085C5072208E0107A6
:10779000090F595C117400090107090F595CD17375
:1077A00000090107090F595C91730006000F194683
:1077B000085C507370BD0000400000201F000020D6
:1077C000D3C3C6F83A25642A302E3030314D3320E9
:1077D00020D3C3CBAE3A256C642A302E314C200D19
:1077E00000000000B8960008F8B5724C002521781A
:1077F0002046007900290DD0012913D00126022945
:107800007ED0032905D1002814D02571E570E661EA
:107810006562F8BD0028FCD0257103202070E5705A
:10782000A561F8BDA06A0028FBD10220207000F0FD
:10783000F1FCF8BD012149035F48FEF723FB012855
:10784000F7D1E0690028F4D0E178084638381D28DF
:1078500003D26561A5612562F8BD56484A1F3F30D5
:10786000072A07D26269A169835C37468F40BB4310
:1078700083540AE00A460C3A102A0DD26369A169C2
:10788000C25C37468F403A43C254491CA161216A09
:10789000E561491C216203E0052901D925702562B3
:1078A000A1690729D8D9A5616169491C61611A29B3
:1078B000D2D3404A002113465D3351614C223D48EA
:1078C0003F30445C5C544C1F102C0ED8405C3B4C49
:1078D0000509655D374C4F005D343C1940346577D0
:1078E000050736482D0F405DA077491C9142E6DB25
:1078F00030492220BD31887120314874304800E081
:1079000015E00078002804D02A481E21C33001F079
:107910003BF9022000F0FAFD2648322181624178CD
:10792000002901D00670F8BD00210170F8BDE068A3
:10793000062831D007DC030001F04DF9062B2E2E6E
:107940002E2E2E04F2E70A2826D006DC072823D0A4
:10795000082821D00928E9D11EE00B281CD0FE28D8
:10796000E4D1A068401CA06015480078002802D02F
:1079700014A001F009F9012000F0C8FD257060781D
:10798000002801D0401E607000F02AFCE5602561EF
:10799000F8BDFEF78BF8F8BD21690729FBD8054A29
:1079A000343210182038C07F8E403040FEF7A8F8DF
:1079B000F8BD000040000020000400504CA7000863
:1079C0001F000020474153D2D1B7A200F0B595B0B7
:1079D000002000900190FE48FD4D80786D1D00282C
:1079E00072D00020691FFB4C8870064658207043F7
:1079F000295C002934D041190391029109310F46C5
:107A000008460491FDF7F7FB3946401CFDF7FDFBE6
:107A100007460298401DFDF7EEFB874208D900207B
:107A20000499FDF7F2FB03990120491CFDF7EDFBDA
:107A3000330001F0D0F80F091623303C4A57667521
:107A40008493A2B1C0CFDD00E24F607C403F7979E2
:107A50008842CFD02846263001F0ECFD787960745A
:107A6000C6E0DC4FA07C403FB9798842F8D0D848C6
:107A7000833001F0DFFDB879A074B9E0D54FE07C28
:107A8000403FF9798842EBD0D148DB3001F0D2FD9C
:107A9000F879E074ACE0CF4F207D403F397A8842DE
:107AA00004D0CD4801F0C6FD387A2075A0E0C94F5A
:107AB000607D403F797A884205D0C748583001F050
:107AC000B9FD787A607593E097E0C24FA07D403FA2
:107AD000B97A884205D0C048B03001F0ABFDB87A21
:107AE000A07585E0BB4FE07D403FF97A88427FD0AA
:107AF000212000014019263001F09CFDF87AE07544
:107B000076E0B44F207E403F397B884270D04D20D4
:107B1000C0004019263001F08DFD387B207667E0EB
:107B2000AC4F607E403F797B884261D00B20800162
:107B30004019263001F07EFD787B607658E0A54F35
:107B4000A07E403FB97B884252D06320C0004019DC
:107B5000263001F06FFDB87BA07649E09D4FE07EB6
:107B6000403FF97B884243D037200001401926303E
:107B700001F060FDF87BE0763AE0964F207F403FD1
:107B8000397C884234D07920C0004019263001F079
:107B900051FD387C20772BE08E4F607F403F797C11
:107BA000884225D0212040014019263001F042FDB5
:107BB000787C60771CE0874FA07F403FB97C88428B
:107BC00016D08F20C0004019263001F033FDB87C5C
:107BD000A0770DE07F4FE07F403FF97C884207D0DF
:107BE0004D2000014019263001F024FDF87CE0779B
:107BF000761CF6B2282E00D2F8E6754E30790028B1
:107C000023D1347802F040FD00281BD03078029058
:107C1000641CE4B2282C00D9012458206043401988
:107C200057380746FDF7E7FA002804D03471394683
:107C30000020FDF7EAFA3079002806D10298844244
:107C4000E6D171E0307900286ED0707800286BD1D1
:107C500001273C0277702146604801F020FD214653
:107C60005F4801F01CFD5FA15D48FDF777FA352004
:107C70006946087000245A48FDF770FA5BA158481D
:107C8000FDF76CFA307958214843411954484B3973
:107C9000FDF764FA59A15248FDF760FA30791128CE
:107CA0002CD05821484341194D483239FDF756FA36
:107CB00053A14B48FDF752FA53A14848FDF74EFA3D
:107CC00057494648FDF74AFA56A14448FDF746FA97
:107CD0004348FDF763FA00216A46009111716D4631
:107CE00063280FD902260A21FDF7FEF9321B303135
:107CF000641CA954E4B20028F5D10DE03549384898
:107D00002631D3E70A21FDF7EFF93A1B3031641C25
:107D1000A954E4B20028F5D169463048FDF71EFAAF
:107D200041A12E48FDF71AFA2A4820301390027814
:107D300001466039087D9446824247D024493B4A37
:107D4000491D8A181292394A25328A181192374AE7
:107D500058328A181092354A7D328A180F92334A67
:107D6000B0328A180E92314AD5328A180D92304AB2
:107D70008A180C922E4A25328A180B922C4A5832B5
:107D80008A180A922A4A7D328A180992294A8A1840
:107D90000892284A253289180791192879D06DDC74
:107DA000254A26498F18244A25328A180692214AE4
:107DB000583A8E181F4A333A8A180592204A8D186D
:107DC0001F4A25328918049113283BE0C4E00000C3
:107DD00050010020DD000020830200206C1D0020E7
:107DE0006C1E00207B226964223A2200222C227021
:107DF0006172616D73223A7B22000000223A00001A
:107E00007D7D0D0A0000000041542B514D5450550A
:107E10004245583D302C302C302C302C22000000B4
:107E200040170020222C00000D0A00003907000036
:107E30004108000049090000E1060000550100204A
:107E4000510A000071D014DC6649674A654B54182A
:107E500064497D33253151180391624958315118D5
:107E6000D2180292002811D0112877D012286BD195
:107E7000A6E0162874D0172866D195E01B380300B9
:107E800000F0A9FE06987A8C6286806260461138FE
:107E900000E06BE0030000F09EFE1049414F575791
:107EA00009335710573A172C57251E5739460120CA
:107EB000FDF7ABF90021069844E001201299FDF787
:107EC000A4F9002111983DE001201099FDF79DF9DA
:107ED00000210F9836E001200E99FDF796F9002158
:107EE0000D982FE001200C99FDF78FF900210B98D8
:107EF00028E001200A99FDF788F90021099821E07E
:107F000031460120FDF781F9002105981AE0012092
:107F10000899FDF77AF90021079813E0214601201E
:107F2000FDF773F9002103980CE054E00120FDF700
:107F30006CF90021029805E029460120FDF765F95A
:107F40000021049801F076FB284C2948217D01F09E
:107F500071FB1398217D017015B0F0BD36E0FFE78D
:107F600039460120FDF751F90121A4E701201299BA
:107F7000FDF74BF90121A5E701201099FDF745F91F
:107F80000121A6E701200E99FDF73FF90121A7E79E
:107F900001200C99FDF739F90121A8E701200A9980
:107FA000FDF733F90121A9E731460120FDF72DF94D
:107FB0000121AAE701200899FDF727F90121ABE784
:107FC00021460120FDF721F90121ACE70120FDF751
:107FD0001CF90121AEE729460120FDF716F9012120
:107FE000AFE70000A1090000550100209D0000201E
:107FF000A3060020FEE7000070B586B01421684695
:10800000FDF7A1F81848416B012421434163416BFE
:1080100021400591426B02210A434263406B134D9C
:108020000840009505900020114E029003900194A5
:1080300069463046FDF78CFE002229463046FDF7A2
:108040002DFF600300900B48019069460294304672
:10805000FDF77EFE002211460720FDF7DBFF07201B
:10806000FDF7CCFF06B070BD0010024008C0000054
:10807000000400500000211010B5084806490160B6
:10808000042141600649C1608160FDF713FF0028AB
:1080900001D0FDF749FC10BD00300040240F002046
:1080A000FF0F000010B594B00024129413941094A4
:1080B00011940D940E94342168460F94FDF743F803
:1080C0001B481A4901603F2184604160046144619A
:1080D00063218461C160FEF713FC002801D0FDF725
:1080E00023FC01200003109010A91148FEF74AFC60
:1080F000002801D0FDF718FC0D940E940DA90C4832
:108100000F94FEF7D3FB002801D0FDF70DFC079478
:10811000694607480B94FEF773FB002801D0FDF772
:1081200003FC0348FEF718FC14B010BD002C0140FE
:10813000340F002010B5184816490160E1214902AA
:10814000416000218160C16001618161C1610162A2
:108150000C22416242618162FEF77CFE002801D060
:10816000FDF7E2FB00210C48FEF789FD002801D055
:10817000FDF7DAFB00210848FEF75AFD002801D080
:10818000FDF7D2FB0448FEF731FD002801D0FDF7D2
:10819000CBFB10BD00380140740F002010B50D4816
:1081A0000B490160E1214902416000218160C16009
:1081B00001618161C16101620C224162426181629F
:1081C000FEF748FE002801D0FDF7AEFB10BD000011
:1081D000004800408C100020704770477047000036
:1081E00000B585B014216846FCF7ADFF01204003BF
:1081F0000090064801900020029069460448FDF76F
:10820000A7FD0720FDF7FAFE05B000BD0000311004
:108210000004005000B585B014216846FCF793FFB8
:108220000120400300901120019000200290694637
:108230000348FDF78DFD0720FDF7D0FE05B000BD1A
:108240000004005010B5FDF76FFE10BD30B599B0B9
:1082500034216846FCF777FF002414941594169493
:108260001C210DA81794FCF76EFF01204002FDF7BA
:10827000D5FE0A200090FF20013003904020059099
:108280000120069008200A90022580030B90079594
:10829000000304940C90089509946846FEF79AF838
:1082A00007201490169402211595179414A8FDF731
:1082B0008BFF03200D900E940F940DA8FDF7D4FEB4
:1082C00019B030BD01200249C00688607047000027
:1082D00000ED00E0F8B53C48FEF7C2FB3B4C012541
:1082E000A068002802D0401EA06002E0092065605E
:1082F000A0603749374F0878401C087001214903B6
:108300003846FDF7BFFD002803D133490878401CEB
:1083100008706068002855D0002666602068002834
:1083200002D0401E206011E008213846FDF7AFFD65
:10833000FF20F4302060294829490570087800287A
:1083400002D0401E087001E02648057001F040FA96
:10835000254B7D201978C00000290BD023490A68DD
:1083600021688A4200D21218511A032902D92049E1
:108370001E700D701F4A1168002901D0491E11603E
:108380001D4B197800290BD01C490A6821688A42C4
:1083900000D21218511A032902D919491E700D7002
:1083A000184B197800290DD01749226809689142A5
:1083B00001D3881A01E00818801A032802D913484B
:1083C0001E700570F8BD0000340F00200000002072
:1083D0004200002000040050430000205201002011
:1083E00046000020450000202C000020380000201E
:1083F00028000020680000203A0100203C010020F5
:10840000390100201E000020240000201C00002054
:10841000F0B502681A4B1B4C984201D0A04203D120
:108420007025AA434D682A43174D184E184F98429D
:108430000AD0A04208D0174CA04205D0A84203D0D1
:10844000B04201D0B84205D114460322120294432F
:10845000CA6822438024A2434C69224302608A688E
:10846000C2620A688262984205D0A84203D0B04234
:1084700001D0B84201D10969016301214161F0BD18
:10848000002C014000040040004001400044014035
:10849000004801400020004030B58468FF252D02CF
:1084A0001B021343AC430B432343836030BD0000E6
:1084B0008268034B1A400A4307210A4382607047CF
:1084C0008FFFCFFF30B5036A046A6408640004625A
:1084D0008469F025AC43120122430A24A3430B43D1
:1084E0008261036230BD30B5036A1024A343036286
:1084F0008469036A0F252D031203AC432243A02491
:10850000A343090119438261016230BD10B50028FF
:1085100011D0094C01280DD002280CD1E078012897
:1085200009D10648FCF767FE0449401F091DFCF706
:108530006CFE0020E07010BD50010020DA06002023
:10854000F0B513A106C985B00192009112A206CA26
:10855000039202910446416E4034002915D0006810
:108560008168806809014D0F400F02AE315C6F4693
:10857000385CC000FCF7B8FD6085785D715DC000B7
:10858000FCF7B2FD208505B0F0BD01206085F9E75C
:1085900001010103070100000804020408010101B0
:1085A00010B5018DC90707D001684A6801235B0433
:1085B0009A43C36A1A434A60018D890707D5016847
:1085C0004A6801231B049A43036B1A434A60018DD6
:1085D000490707D501684A6801239B049A43436B06
:1085E0001A434A60018D090707D501684A680123CB
:1085F000DB039A43836B1A434A60018DC90607D592
:108600000268916801231B039943C36B194391606E
:10861000018D890607D501688A6801235B039A43A7
:10862000036C1A438A60018D490612D503685A68A3
:1086300001210905446C8A4322435A60426C8A42F4
:1086400007D10268516803235B059943836C194382
:108650005160018D090607D501684A680123DB04D2
:10866000C06C9A4302434A6010BD0000FEB5054647
:10867000002680350446AE60FDF716FC01902068A8
:108680000068124F000709D5012100970022490513
:108690002046019B00F0C0F900280DD12068006839
:1086A00040070BD501210097002289052046019B38
:1086B00000F0B2F9002801D00320FEBD2020286080
:1086C0006860603426770020FEBD0000FFFFFF01D8
:1086D00010B5806A002201464031CA83CA82FEF783
:1086E000F6FA10BD01680A68FF2321339A430A6035
:1086F00001688A68044B1A408A60202284210A504B
:108700000021C16670470000FEFFFFEFF8B5044688
:1087100080682169E26908436169002611430843C2
:10872000616E014320680268B24B1A400A4302603E
:1087300021684868032212039043E26810434860AE
:10874000A169206A226808439168AB4B1940014334
:1087500091602068C16A626A090909011143C16216
:10876000A64A2068A64990420CD148698007800F2C
:1087700023D0012804D002281FD003281CD111E0E7
:1087800004201AE09F4A90420ED148690C2108400B
:1087900013D0042811D0082802D00C280CD101E0F5
:1087A00002200AE0082008E09749884202D0974951
:1087B000884201D1002000E010200122D203E169AB
:1087C000D511934B934F91426FD1002806D00228C8
:1087D00035D004287AD0082869D17AE0FDF7A0FDC9
:1087E00076E0012815D0022815D0032815D00428DA
:1087F00015D0052815D0062815D0072815D008282B
:1088000015D0092815D00A2815D00B2814D0012519
:1088100012E0022510E004250EE006250CE00825F4
:108820000AE00A2508E00C2506E0102504E02025D2
:1088300002E0402500E08025294610461BE0606AE2
:10884000002815D001282AD002282AD003282AD0AF
:1088500004282DD005282DD006282DD007282DD06E
:1088600008282DD009282DD00A282DD00B2800D07B
:10887000012529461846FCF737FC616840004A0884
:108880008018FCF731FC80B201461039B9420ED88D
:108890006049491C01400007400F08437FE0022562
:1088A000E7E70425E5E70625E3E716E00EE08CE0C0
:1088B0000825DEE70A25DCE70C25DAE71025D8E7EE
:1088C0002025D6E74025D4E78025D2E7FDF73CFDFB
:1088D0000246606A00289AD083E7002806D0022862
:1088E00035D0042874D0082879D174E0FDF718FD3C
:1088F00070E0012815D0022815D0032815D00428CF
:1089000015D0052815D0062815D0072815D0082819
:1089100015D0092815D00A2815D00B2814D0012508
:1089200012E0022510E004250EE006250CE00825E3
:108930000AE00A2508E00C2506E0102504E02025C1
:1089400002E0402500E08025294610461BE0606AD1
:10895000002815D0012825D0022825D0032825D0AD
:10896000042825D0052825D0062825D0072825D07D
:10897000082825D0092825D00A2827D00B2800D080
:10898000012529461846FCF7AFFB61684A088018A4
:10899000FCF7AAFB80B201461039B9421FD8216802
:1089A000C8601DE00225ECE70425EAE70625E8E7B4
:1089B0000825E6E70A25E4E70C25E2E71025E0E7CD
:1089C0002025DEE74025DCE702E008E08025D8E747
:1089D000FDF7BAFC0246606A0028A0D089E70126AC
:1089E000204601214030418501850020E066206756
:1089F0003046F8BDF369FFCFFFF4FF1100380140A6
:108A0000401002400044004000480040004C00403C
:108A10000024F400EFFF0000FFB581B017460E46BA
:108A200004460A9D09E0681C07D0FDF73DFA049949
:108A3000401AA8420CD8002D0AD02068C1693046DF
:108A400088431AD00020B842EDD0002005B0F0BD18
:108A500020680168FF22A13291430160206881688B
:108A60004908490081602021204680300160416032
:108A70000020603420770320E8E70120E3E70000CE
:108A800010B51248FEF724F910480168C869C043C0
:108A9000800611D4486AC2B20D480379002B0FD06A
:108AA0004378C82B02D20B4B44781A550A4A1268F5
:108AB00002614278521C4270C8690868C86910BDDA
:108AC0000123037100234370EDE70000740F0020C1
:108AD00028000020401200200000002010B511489E
:108AE000FEF7F6F80F480168C869C043800611D444
:108AF000486AC2B20C488378002B0ED00378C82B8A
:108B000002D20A4B04781A55094A12684260027868
:108B1000521C02700868C86910BD012383700023CD
:108B20000370EEE70010002038010020401C0020F8
:108B30000000002010B51048FEF7CAF80E48006883
:108B4000C169C943890610D4406AC2B20B48817812
:108B500000290BD04178C82904D2094BC9B25A5414
:108B6000491C417007490968816010BD012181706D
:108B700000214170F1E700008C1000201C00002053
:108B800078110020000000200FB410B503A9044B99
:108B9000044A029800F01CF910BC08BC04B0184745
:108BA000919900081C0F00202021020C01D01021F7
:108BB0001046020A01D010460839020901D01046B9
:108BC000091F820801D01046891E420801D0881E64
:108BD0007047081A704730B47446641E2578641CC8
:108BE000AB4200D21D46635D5B00E31830BC184702
:108BF0008307FF22DB0E9A408907090E994000285F
:108C000008DB830809489B001B1818689043084339
:108C1000186070470007000F0838830804489B005D
:108C20001B18D86990430843D861704700E400E0FE
:108C300000ED00E000487047200F002002E008C867
:108C4000121F08C1002AFAD170477047002001E0C6
:108C500001C1121F002AFBD170470000F0B51FB4FC
:108C600086B00998089A030D0021024314D0514898
:108C7000514A1818504305141198012810981AD019
:108C8000281A401C00264D4F4D4900960191049032
:108C9000002812DA444211E01198012449A3012866
:108CA00001D11098C1430698119A84600360C26094
:108CB00041600BB0F0BD4042E4E7044621050020CE
:108CC0003F4A001C51410391029012E0E00707D097
:108CD00032463B4601990098FCF7C8FB0191009091
:108CE00032463B4610461946FCF7C0FB06460F4687
:108CF0006410002CEAD10498039B0028029A099979
:108D0000089806DAFCF7B2FB019B009AFCF7AEFB71
:108D100005E0FCF713FC019B009AFCF70FFC0446EE
:108D20000E460022284BFCF7A1FC03D80020C043CC
:108D3000014607E00022254B20463146FCF7E4FAC5
:108D4000FCF774FC102409E0002C0ADB0A22002343
:108D5000FCF771FA079B30321A55641E02460A432B
:108D6000F2D11122641C079B121B1C19119B012BB1
:108D700003D0012308430ED10AE0084304D0112098
:108D800010900020119077E71098151A6D1E0BE0D7
:108D90001098824202DD00236D1C03E0824201DA5A
:108DA00000236D1E002BEED0069811998260C160E1
:108DB00030C07EE701FCFFFF104D000000001440B2
:108DC0000000F03F300000000000F0430000E03FF2
:108DD000FFB597B00646002518E2252877D1002474
:108DE0002746FD49049400E00443761C32780120B4
:108DF000203A90400842F7D130782A280ED002223B
:108E0000307801463039092916D804990A23594384
:108E1000303940181443761C0490F1E7189802C8C2
:108E200004911890002904DA0120400304434842C9
:108E3000049002200443761C30782E2814D104209C
:108E400004437078761C2A2809D11898761C80C8AB
:108E5000189009E00A214F43303FC719761C30783B
:108E6000014630390929F5D930786C2810D006DC54
:108E70004C281AD068280ED06A2817D104E074282C
:108E800013D07A2812D110E00120400504430CE0F1
:108E90000121090501E0032109050C437178814294
:108EA00003D1012000052418761C761C307811901F
:108EB00066280BD013DC58287DD009DC00287BD035
:108EC0004528F6D04628F4D047281AD1A5E118E065
:108ED000632835D0642870D0652812D19DE17028B0
:108EE0006CD008DC6728F1D069287BD06E280DD0C3
:108EF0006F2806D1BAE073282ED0752871D0782853
:108F000059D01A9A199990476D1C7EE16002400F62
:108F1000022809D003280DD00428189801680DD024
:108F20000D60001D189070E11898EA1701680D6037
:108F30004A60F6E7189801680D80F2E70D70F0E7D7
:108F400018986A4601781172001D1890002050721E
:108F500002A80090012005E0189802C8189000208F
:108F60000091C04361070DD5002101E00199491C22
:108F70000191B94212DA8142F8DB009A515C002972
:108F8000F4D10BE0002101E00199491C01918142DB
:108F9000FADB019A0099895C0029F5D101990498BE
:108FA0001A9B471A21463846199A00F097FA0199F8
:108FB000401945180BE04FE02CE113E04EE000981B
:108FC00000990078491C00911A9A199990470198C4
:108FD000401E0190401CF2D1214638461A9B199A36
:108FE00010E137E00A200021009001916002410F5A
:108FF000022907D0189A01CA1892C2179446032969
:1090000008D00AE01898C01DC108C90005C9189108
:10901000944607E000B2C2179446042902D140B238
:10902000C1178C4600226146944506DA0A460021A3
:10903000404291418C462D2102E0210504D52B218F
:109040006A461173012103E0E10701D02021F7E70F
:10905000029155E00A200AE0102008E0102000905C
:109060000021042004430191082703E00820002187
:10907000019100906002410F022907D0189A01CA9D
:10908000189200229446032908D008E01898C01DC1
:10909000C108C90005C91891944603E080B20429AB
:1090A00000D1C0B200210291210729D51199702960
:1090B00006D0009A1021019B4A401A4305D00EE0C9
:1090C00040216A461173012108E06146014306D040
:1090D00030216A4611731199517302210291009A4D
:1090E0000821019B4A401A430AD16146014301D13C
:1090F000610705D530216A46117301217F1E029157
:109100001199582904D035A10E910DA90D910DE0AA
:1091100037A1F9E76146019B009AFCF78CF80E9B9A
:109120008C469B5C0D9A521E0D9213706146014352
:10913000F0D10D9805A9081A20300190600703D5D9
:1091400001200004844300E001270198874201DDEB
:10915000381A00E00020019900904118029809187F
:109160000498401A0490E00306D421461A9B199AE9
:10917000049800F0B3F94519002706E003A81A9AED
:10918000C05D199990476D1C7F1C02988742F5DBE2
:10919000E0030CD521461A9B199A049800F09EF919
:1091A000451904E01A9A3020199990476D1C0099CE
:1091B000481E00900029F5DC08E00D980D99007814
:1091C000491C0D911A9A199990476D1C0199481ED6
:1091D00001900029F1DC63E10928010030313233CC
:1091E00034353637383961626364656600000000E3
:1091F00030313233343536373839414243444546CD
:109200000000000000F05AF94519761C307800285B
:1092100000D0E2E528461BB0F0BD600700D4062769
:109220001898C01DC108C90048680A680831C30FF2
:10923000DB071891190001D09CA108E0210501D598
:109240009BA104E0E10701D09AA100E09AA14300AC
:1092500011985B08109165280CD006DC452809D0D0
:1092600046281DD0472841D141E0662818D06728FC
:109270003CD13CE00021112F01DB112000E0781CE3
:109280000191009008A911A8FFF7E8FC1399059136
:109290000021119A15927F1C12980197009150E0BD
:1092A0000120C00703900120019008A9009711A890
:1092B000FFF7D4FC139A149905920022119B009297
:1092C00012981593059A0192002901D0104602E0E8
:1092D000791C40180190381A01D5019804E04042E9
:1092E000401E0090781C0190C01B029043E0012FAB
:1092F00000DA01270021112F01DD112000E038469E
:109300000191009008A911A8FFF7A8FC13990591F5
:10931000119A0021129815920091019721070CD4FF
:109320000599B94201DB019900E00191012904DDB1
:10933000159A491E515C302906D0B84201DA011D48
:1093400005DA0121029115E00199491EEDE7002897
:1093500005DC0099411800910199091A03E0019A6E
:10936000411C914200DD01910099401A401C02907D
:109370000120C0070390200706D40299019881427A
:1093800002DB0020C043029000206946C87707AF87
:10939000012103980337C907884224D00220119085
:1093A0002B201290039800280CDA404203902D20C5
:1093B000129007E00A210398FBF796FE30317F1EDA
:1093C000039039701199481E11900029F2DC03981E
:1093D0000028EFD1791E12980870307820210840BB
:1093E0004530BF1E387006A8C01BC01D03901098E2
:1093F0000078002800D00120019941180298C01778
:109400000918039809180498401A401E0490E003B4
:1094100006D421461A9B199A049800F05FF8451962
:1094200010980078002803D01A9A199990476D1C5B
:10943000E00324D521461A9B199A049800F04EF8AF
:1094400045191CE00098002807DB00990598884220
:1094500003DD1598405C199901E0199930201A9A9A
:10946000904700986D1C401C00900298401E02908E
:10947000002804D11A9A2E20199990476D1C019941
:10948000481E01900029DDDC05E038781A9A7F1C1F
:10949000199990476D1C0399481E03900029F4DC2C
:1094A00021461A9B199A0498ACE600002D00000092
:1094B0002B0000002000000000000000F8B504466A
:1094C00000251E461746880404D405E039462020AE
:1094D000B0476D1C641EF9D52846F8BDFFB504469B
:1094E000002581B01E46C80301D5302700E02027A3
:1094F000880404D505E038460399B0476D1C641E06
:10950000F9D5284605B0F0BD0649098C09068A0B35
:109510000121C90653184942834200D8801A4018D5
:10952000C00A7047C075FF1FF0B5002301268446AE
:109530000A4DF6061F460DE06046C418288C00064A
:10954000800B8019A04202D92478CC5400E0CF547B
:109550005B1C9BB29342EFD3F0BD0000C075FF1FB0
:10956000F7B586B015460C46FCF7C6FB0220029004
:109570000698FFF7C9FF0390012004900020059092
:1095800005A902A8FCF73AFB6E07760FEF08002E3C
:1095900000D07F1C002533E0002000900190781E51
:1095A000854233D1002E31D0E800215C6A4611702B
:1095B000022E02D3011949785170032E02D30119EA
:1095C00089789170042E02D30119C978D170052EC3
:1095D00002D3011909791171062E02D301194979B3
:1095E0005171072E02D30019807990710698E90015
:1095F00009180120019B009AFCF74EFB6D1CADB2CF
:10960000BD42C9D3FCF73AFB09B0F0BDE800225CCB
:1096100069460A70001942784A7082788A70C27866
:10962000CA7002790A7142794A7182798A71C07965
:10963000C871DBE770B505460A460020014629548B
:10964000401CC0B22B5C002BF9D10024632A0DD939
:1096500002260A211046FBF747FD321B3031641CFD
:10966000A9540246E4B20028F3D170BD10460A386E
:109670005A280DD201260A211046FBF735FD321B70
:109680003031641CA9540246E4B20028F3D170BD05
:109690000A211046FBF728FD3031297070BD0022E9
:1096A000134601E08354521C8A42FBD370470000EA
:1096B00001A1085C70470000303132333435363751
:1096C00038394142434445460000000070B50C4C17
:1096D00005462278002A11D00A484078002803D095
:1096E00009490AA0FFF750FA29460748FBF742FD4F
:1096F000002801D0012070BD00202070002070BD26
:10970000280000201F0000204012002075617274A4
:1097100020726563763A20257300000070B50F4C07
:109720000646A0780D4600280FD10D48C0780028C5
:1097300003D031460BA0FFF727FA00F05FF8304660
:1097400000F06EF865810120A070E078002804D058
:109750000020E070A0702081012070BD2800002052
:109760001F000020756172742073656E643A2025B5
:10977000730D000070B5104C0646A0780D46002809
:109780000FD10E48C078002803D031460CA0FFF757
:10979000FBF900F033F8304600F042F86581012013
:1097A000A070E0782178084304D00020E070A07019
:1097B0002081012070BD0000280000201F00002033
:1097C000756172742073656E643A2025730D000014
:1097D0000948C188491CC180817800290AD00189C3
:1097E000491C89B201814289914203D90121C1708A
:1097F00000210181704700002800002010B50548B5
:10980000002141700170012149020348FBF79BFCD4
:1098100010BD00002800002040120020704700000A
:1098200070B50446044D02E0E968641C884720785E
:109830000028F9D170BD00002800002010B515A146
:109840001848FBF7C0FC174817498030FBF7BBFCF2
:1098500016A12348FBF7B7FC22A12448FBF7B3FC71
:109860001F4823498030FBF7AEFC1D4821A18038FA
:10987000FBF7A9FC1D4824A18030FBF7A4FC2FA115
:109880003D48FBF7A0FC3D49012008703CA0FFF7D4
:109890007BF910BD48656C6C6F20576F726C64214A
:1098A000000000004014002028A800086131356441
:1098B0004C536D4241546B2E696F742D61732D6D45
:1098C0007174742E636E2D7368616E676861692EA2
:1098D000616C6979756E63732E636F6D00000000B3
:1098E000C01500203138383300000000C0160020B9
:1098F000E4A7000879757368656E67266131743373
:109900006D67664341534E002F7379732F61317435
:10991000336D67664341534E2F79757368656E6783
:109920002F7468696E672F6576656E742F70726F1D
:1099300070657274792F706F737400002F73797370
:109940002F613174336D67664341534E2F797573C0
:1099500068656E672F7468696E672F6576656E74CB
:109960002F70726F70657274792F706F73745F727D
:1099700065706C7900000000C01700203C000020DA
:10998000B3F6B3A7B2CECAFDC9E8D6C3A3A10000FF
:1099900013B5044B012269460348FDF717FB0098F5
:1099A0001CBD0000FFFF00008C10002070B566A1F8
:1099B0006848FBF7FAFB674C674D323400280FD13B
:1099C0002078312804D1012116202A68FCF72AF8D2
:1099D0002078302804D1002116202A68FCF722F8CC
:1099E0005EA15C48FBF7E1FB00280FD1207831280D
:1099F00004D1012117202A68FCF714F820783228B6
:109A000004D1022117202A68FCF70CF859A151480B
:109A1000FBF7CBFB00280ED120780A223038617882
:109A200050433038091808461E382D2803D818200E
:109A30002A68FBF7F7FF53A14648FBF7B6FB00285F
:109A40000ED120780A223038617850433038091816
:109A500008461E38322803D819202A68FBF7E2FF8F
:109A60004EA13C48FBF7A1FB002807D12078312804
:109A700004D101211A202A68FBF7D4FF4AA13548F6
:109A8000FBF793FB00280FD12078312804D1012166
:109A90001B202A68FBF7C6FF2078302804D100215C
:109AA0001B202A68FBF7BEFF44A12A48FBF77DFB79
:109AB00000280FD12078312804D101211C202A68E8
:109AC000FBF7B0FF2078302804D100211C202A6841
:109AD000FBF7A8FF3CA11F48FBF767FB00280FD14D
:109AE0002078312804D101211D202A68FBF79AFF34
:109AF0002078302804D100211D202A68FBF792FF2E
:109B000033A11448FBF751FB00281CD120787D219C
:109B1000C9003038484361786422303951434118D4
:109B2000E0780A2230385043081821793038091873
:109B3000052904D22A4A002010602A4A10601F20FA
:109B40002A68FBF76FFF70BD506F776572537769B6
:109B500074636800081D00204800002053756D6D77
:109B600065725F77696E7465724D6F64655F53658A
:109B7000740000004261746854656D705F536574D1
:109B80000000000048656174696E6754656D70651A
:109B90007261747572655F5365740000446576691F
:109BA0006365526573657400486F745F77617465AF
:109BB000725F436972635F4F4E0000004C6F636BCE
:109BC000537769746368000045434F5F53657400C1
:109BD0005265616C74696D655F53657400000000C7
:109BE0006C0000207000002070B50B4C0025207820
:109BF00000280CD009A0FEF7C7FF0122D2020A49B3
:109C00000A48FFF7ADFC257009A0FEF7BDFF60789C
:109C1000002800D0657070BD3C000020C6F4B6AFCF
:109C2000B4E6B4A2A3A100004014002000F801088B
:109C3000B4E6B4A2CDEAB1CFA3A1000010B5214C87
:109C40000D221F492046FFF76FFC1FA11C48FBF7A0
:109C5000ACFA002802D0FFF7F1FD10BD20468022AB
:109C60001749FFF761FC1748154980308022803181
:109C7000FFF75AFC184880221849FFF755FC164890
:109C80001649803080228031FFF74EFC1448802234
:109C90001449FFF749FC1248124980308022803174
:109CA000FFF742FC104880221049FFF73DFC0E48A8
:109CB0000E49803080228031FFF736FC10BD000055
:109CC0004014002000F8010848656C6C6F20576F45
:109CD000726C64210000000000F9010840150020AA
:109CE00000FA01084016002000FB01084017002080
:109CF000204953228868120202641F488860FCF7DA
:109D00001BF9FEF7A3FAFEF777F9FEF7CBF9FEF79A
:109D100011FAFEF743FAFFF791FFFEF7ADF90022C3
:109D200011460D20FCF776F90D20FCF767F9134872
:109D300001680A68202002430A60114909680A681C
:109D400002430A600F4800F097FC0F4C01250F48B2
:109D5000FCF7E2F8FDF7ACF900F08EF8FDF744FDF2
:109D6000FFF742FFFDF732FEFDF7CAFC2571280A16
:109D70006071ECE700ED00E000500008740F002077
:109D80008C100020B1A6000872110020240F0020C2
:109D90007CB50D46002100910191144610A1FBF7FE
:109DA000E9F9002818D0401D00E0401C0178303946
:109DB0000A29FAD2014600E0401C02782C2AFBD185
:109DC000421A6846FBF7A6F96846FBF727FAA8424D
:109DD00003DBA04201DC01207CBD00207CBD000033
:109DE0002B4353513A00000010B5044632211C4861
:109DF000FBF7A9F91A4832213230FBF7A4F919A16F
:109E00002046FBF7B7F9040027D0641E21783A29D1
:109E1000FBD1021B521E322A00DD32221048611C87
:109E20003230FBF777F90E490FA03231FEF7ACFE66
:109E3000611E0846491E0A78222AFBD1421A521E88
:109E4000322A00DD32220648491CFBF763F9044937
:109E500008A0FEF799FE012010BD002010BD0000F3
:109E6000081D00207D7D0000646174613A25733D0A
:109E70000000000025730D00F8B53D4C0025E0689A
:109E8000FF260727042856D015DC00281DD00128FE
:109E900023D0022838D0032835D17D21C90035A030
:109EA000FFF73CFC00282ED034A0FFF70FFC002861
:109EB0003AD0A5805AE0052847D006284BD007287D
:109EC0004CD0FF281FD1A58005E07D20000100F0C7
:109ED000FBFB002817D0012024E000F0A3FB0028A2
:109EE00011D0274800F0F0FB26A0A168FEF74CFE39
:109EF000A0680121401CA0600220E0602A4802689E
:109F00000A20FBF78FFDF8BDFF21F53127A0FFF7F1
:109F100005FC0028F7D019A0FFF7D8FB002803D0D4
:109F2000A5800320E060F8BDA088411CA1800A281C
:109F3000F9D9E660F8BD00F0DFFAFE2801D105206E
:109F4000F0E7FF28F6D1E760F8BD00F033F8FE280F
:109F5000F7D10620E6E700F071F9F2E700F032FAF7
:109F6000042803D0FF28EFD16570E2E70420D9E789
:109F700040010020415445300D0A00004F4B0000C5
:109F8000B80B000052657365742D25642D212121C5
:109F900021212121212121212121212121212121B1
:109FA0002121210D0A0000004800002041540D0A23
:109FB00000000000F0B56A4CFF2620780025711CD7
:109FC000C1B0032876D007DC664F00280BD00128EB
:109FD0001BD002286FD13CE004286DD0FE286CD045
:109FE000FF28F7D1B9E060A13846FBF7DEF800287A
:109FF00008D17D21C90069A0FFF790FB00285AD045
:10A000006CA021E02078401C99E06846FFF747FBF0
:10A0100069A16846FBF7A2F839466846FBF79EF847
:10A0200069A16846FBF79AF868496846FBF796F815
:10A0300067A16846FBF792F8FF21F5316846FFF704
:10A040006DFB0028DBD063A0FFF740FB002857D151
:10A0500034E06846FFF723FB62A16846FBF77EF811
:10A0600064496846FBF77AF863A16846FBF776F81F
:10A070003C4968468039FBF771F85FA16846FBF7F9
:10A080006DF8384968468031FBF768F85BA168468F
:10A09000FBF764F8FF21F5316846FFF73FFB002826
:10A0A00055D057A0FFF712FB002807D0A5802078D5
:10A0B000801C44E008E043E024E04BE0A088411C21
:10A0C000A1800A2842D842E06846FFF7E8FA50A18A
:10A0D0006846FBF743F83D4968468031FBF73EF898
:10A0E0004FA16846FBF73AF8FF21F5316846FFF7C4
:10A0F00015FB00282BD04CA0FFF7E8FA002820D051
:10A10000A5807FE76846FFF7CAFA41A16846FBF7DA
:10A1100025F849496846FBF721F841A16846FBF755
:10A120001DF8FF21F5316846FFF7F8FA00280ED038
:10A130003DA0FFF7CBFA002803D0A580FE202070B9
:10A1400005E0A088411CA180052800D926700020C8
:10A1500041B0F0BD2570FE20FAE72570FF20F7E73B
:10A1600040010020C0150020613135644C536D4220
:10A1700041546B2E696F742D61732D6D7174742E43
:10A18000636E2D7368616E676861692E616C6979B1
:10A19000756E63732E636F6D0000000041542B5188
:10A1A0004D544346473D2273736C222C302C312C86
:10A1B000300D0A004F4B000041542B514D544F506D
:10A1C000454E3D302C220000222C0000C0160020FD
:10A1D0000D0A00002B514D544F50454E3A20302C63
:10A1E0003000000041542B514D54434F4E4E3D30F2
:10A1F0002C220000C0140020222C2200220D0A0074
:10A200002B514D54434F4E4E3A20302C302C3000C1
:10A2100041542B514D545355423D302C312C22008A
:10A22000222C300D0A0000002B514D545355423A58
:10A2300020302C312C302C00C017002070B5454C3C
:10A24000002520780126042859D009DC00280ED0EA
:10A25000414E01280DD0022818D003286DD129E0E5
:10A26000052864D0062862D0FF2866D167E0401C2C
:10A2700043E03078002807D064213848FFF74EFAD1
:10A2800000285AD02078F2E7042036E034493548D7
:10A29000FFF770FA002850D020783349401C207016
:10A2A0003078087031483570057031480168491CB4
:10A2B000016042E02FA0FFF709FA002804D12DA089
:10A2C000FFF704FA00280CD02BA0FEF75DFCA58058
:10A2D000062020702B48A570026803210A20FBF796
:10A2E000A1FBA088411CA180032826D9A078401C8E
:10A2F000C0B2A070022820D9FF2020701DE02249A2
:10A3000022A0FFF70BFA002817D024A0FFF7DEF9F0
:10A3100000280AD024A0FEF737FC2648FFF764FD8A
:10A3200000280AD0FFF742FB07E0A58004E03220B6
:10A3300000F0CAF9002800D02670002070BD1E4829
:10A3400025704078002802D01CA0FEF71DFCFF20DD
:10A3500070BD000040010020540100206C1D002051
:10A36000701700006C1E00205001002051010020D9
:10A37000180F00204F4B0000B7A2CBCD3C4F4B3EF7
:10A380000D00000048000020DC05000041542B5166
:10A390004D54524543563F0D00000000706F7374DA
:10A3A0005F7265706C790000B2E9CAD53C4F4B3ED4
:10A3B00000000000401200201F000020B7C9D0D0CC
:10A3C00026260D00F8B5324C7D2123780026314F2A
:10A3D000FF250901032B34D00CDC2D480078401CEC
:10A3E000C2B22C48002B407809D0012B12D0022B8E
:10A3F00049D11AE0042B2DD0FF2B44D145E06178E0
:10A40000491CC9B26170227000283CD022A0FEF71E
:10A41000BBFB38E06178022901D0227033E00028CC
:10A4200030D022A0FEF7B0FB2CE027A0FFF776F992
:10A43000002828D027A0FFF749F900281DD0A680C2
:10A4400004E0254800F040F900281CD02078401C8A
:10A45000207018E021A0FFF761F9002813D01DA09B
:10A46000FFF734F9002808D07878002802D01EA021
:10A47000FEF78AFB26700420F8BDA088411CA1804D
:10A48000052800D925700020F8BD2670FF20F8BDF2
:10A49000400100201F000020466C69676874546901
:10A4A0006D65A3BA25640D0A00000000B6FEB4CEA7
:10A4B000B7C9D0D0C4A3CABDA3ACB8B4CEBBC4A3E3
:10A4C000BFE90D0A0000000041542B4346554E3DA4
:10A4D000300D0A004F4B00008813000041542B43FD
:10A4E00046554E3D310D0A00D4D9BFAAC6F4B9A6CF
:10A4F000C4DC0D0A0000000070B5324C7D212078CC
:10A500000026C900FF25032840D006DC002809D01A
:10A51000012812D002284DD11FE0FE284FD0FF287D
:10A5200048D149E028A0FFF7F9F8002842D028A038
:10A5300009E0A6802078401C34E026A0FFF7EEF862
:10A54000002837D026A0FFF7C1F80028F1D1A08855
:10A55000411CA1800A282CD82CE07D21090124A0CF
:10A56000FFF7DCF8002825D019A0FFF7AFF8002886
:10A570001AD022A0FFF7AAF8002815D11F220F2118
:10A580002148FFF705FC0028D3D112E01FA0FFF7F8
:10A59000C5F800280ED020A0FFF798F8002803D0B7
:10A5A000A680FE20207005E0A088411CA1801E2806
:10A5B00000D92570002070BD2670FF2070BD267068
:10A5C000FE2070BD40010020415445300D0A0000BE
:10A5D0004F4B000041542B4350494E3F0D0A0000A1
:10A5E0002B4350494E3A2052454144590000000047
:10A5F00041542B4353510D0A000000002B4353518B
:10A600003A2039392C3939004012002041542B436B
:10A61000474154543F0D0A002B43474154543A20BC
:10A620003100000070B5124C01252078ED03114E69
:10A63000002802D0012818D108E00122294630461E
:10A64000FBF72CFC2078401C20700EE07D20C00021
:10A6500000F03AF8002808D0002229463046FBF7DF
:10A660001DFC00202070012070BD002070BD000086
:10A670004001002000040050002801D00149C860BA
:10A68000704700002800002070B50025074E2C46BA
:10A69000582060438019401CFAF7ADFD4019641C36
:10A6A000E4B2C5B2282CF3D3284670BD5501002072
:10A6B00001B5034B012269460248FCF787FC08BD3F
:10A6C000FFFF0000740F002007498A78002A02D19A
:10A6D000488101208870C878002804D00020C87004
:10A6E00088700881012070472800002000000000C9
:10A6F000000000000000000000000000000000005A
:10A700000000000000000000000000000100000048
:10A71000020000000300000004000000060000002A
:10A720000700000008000000090000000000000011
:10A730000000000000000000000000000100000018
:10A74000020000000300000004000000303132333A
:10A75000343536373839414243444546004040405D
:10A7600040404040404041414141414040404040E4
:10A770004040404040404040404040404005020290
:10A78000020202020202020202020202022020204F
:10A7900020202020202020020202020202029090AB
:10A7A00090909090101010101010101010101010A9
:10A7B00010101010101010100202020202028888FD
:10A7C0008888888808080808080808080808080809
:10A7D00008080808080808080202020240000000F1
:10A7E0005DA70008653635653764353735616631F4
:10A7F0003965376639316631333037353736643944
:10A8000031646338613466366537663732346235B1
:10A81000373861353035343764376366373831312E
:10A820003561653600000000613174336D67664341
:10A8300041534E2E79757368656E677C73656375D9
:10A8400072656D6F64653D322C7369676E6D6574FA
:10A85000686F643D686D61637368613235362C746E
:10A86000696D657374616D703D31363533313633E2
:10A870003437313231377C0098A8000800000020BE
:10A88000240F0000AA58000844AA0008240F002042
:10A890004C1400004C8C0008C1320482016324F483
:10A8A0007A011291131D98023C083FAA0B021F0A5D
:10A8B0000F6D490B1A0101012E2932091201017D88
:10A8C000297E898223460529E50009114441545F08
:10A8D0006D6F6465023630230E065A10580D464CD3
:10A8E0006F6164581A18585A1158A80A5061727446
:10A8F0007353746174B609355823F0055A1258EC35
:10A9000052756E560937582312075A1358061044C9
:10A910006D656E750935581A64B05A1458080C3FA5
:10A920004261746854656D70536574581A6E58416D
:10A9300029580D4648656174589AFAB0080D3E488A
:10A940006F745761746572466C6F77581AF5585A70
:10A950001E582D42617468B0D1093558231D066A0E
:10A9600028B02C656174580B406572581ADCB05AD7
:10A9700032580D464F757444581AF0585A3C58DFF7
:10A98000496E646F6F725A0935582304067A465827
:10A990003D57617465590B3D4552581AAE58CA501F
:10A9A000580E3E5072657373B02332055A5A58C020
:10A9B0000A466972654C6576656C09355823A807A7
:10A9C0005A6458080A3C416C61726D436F64655863
:10A9D0004201720A1D414C4C5F5C01120731414239
:10A9E00043444546323C320C00081264656661758A
:10A9F0006C740930B079580A550D580A510E582315
:10AA0000E803320103174531093E580A5532580A06
:10AA10005533580A5534580A5536580A5437580B86
:10AA2000554631580A5532580A5533580A55345844
:10AA30000A55355809164009FD5809FD5809F758B7
:04AA4000A100000071
:04000005080050B9E6
:00000001FF
