:020000040800F2
:10500000C82D0020D1500008A1AE0008D9A8000882
:105010000000000000000000000000000000000090
:10502000000000000000000000000000A7AE000823
:105030000000000000000000A5AE000841AF00081D
:10504000E350000800000000E3500008E3500008AF
:10505000E3500008E3500008E3500008BD67000873
:105060000000000089660008996600087166000863
:10507000E3500008C9AF0008E3500008000000003A
:10508000E3500008E3500008E3500008E350000834
:10509000E3500008E3500008E3500008E350000824
:1050A000E3500008E3500008E350000805BA000888
:1050B0008DBA0008E9BA00080448854601F09CF85A
:1050C0000048004799D50008C046C046C82D0020BA
:1050D0000448804704480047FEE7FEE7FEE7FEE796
:1050E000FEE7FEE7C5AF0008B950000830B50B4633
:1050F000014600202022012409E00D46D5409D42B2
:1051000005D31D469540491B254695404019154637
:10511000521E002DF1DC30BD70B50024254600285C
:1051200001DA01244042002901DA01254942FFF752
:10513000DDFFAC4200D04042002C00D0494270BD9F
:10514000F0B51FB40646002082B005464024019108
:1051500000901BE0019922460F46304600F0D3FD37
:10516000049A059B801A994110D31046194622468D
:1051700000F0B9FD361A8F41019722460120002127
:10518000009F00F0B0FD38184D4100902046641E8D
:105190000028DFDC019B00982946324607B0F0BDAD
:1051A00001464139192900D82030704703460B4386
:1051B0009B0703D009E008C9121F08C0042AFAD2CD
:1051C00003E00B780370401C491C521EF9D2704753
:1051D000D2B201E00270401C491EFBD2704700228F
:1051E000F6E710B513460A4604461946FFF7F0FFE6
:1051F000204610BD421E5378521C002BFBD10B7869
:105200001370491C521C002BF9D1704730B505466C
:105210002A460B4610781C78521C5B1C002801D0D3
:10522000A042F7D0002C03D0002802D06D1CEFE77D
:10523000284630BD10B5044605E00B780370401CCD
:10524000002B00D0491C521EF7D2204610BDCAB216
:10525000401E4178401C8A4202D00029F9D100202A
:105260007047421C0178401C0029FBD1801A70470E
:1052700010B5002200E0521C835C8C5CA34201D17B
:10528000002BF8D1D8B2E1B2401A10BD30B50446B7
:105290000020034600E05B1C934203D2E05CCD5C3F
:1052A000401BF8D030BD03460A780270401C491CF0
:1052B000002AF9D11846704730B50546002003464C
:1052C00000E05B1C934205D2EC5CC85C201A01D163
:1052D000002CF6D130BD000070B5002800D1106858
:1052E000002514E00B4602E0A64203D05B1C1C78AC
:1052F000002CF9D1E3B22B4307D0002C06D0002DAF
:1053000004D000210170401C04E00546401C0678D2
:10531000002EE7D11060284670BD014ADCE700008E
:105320005C010020034610B508330722040E090271
:1053300021435B1E1C7800022043521EF6D510BD8F
:1053400070B504460D46072310700E06000A304360
:10535000090A521C5B1EF7D52046294670BD000085
:105360000FB400B58DB009900B9010A900200091EA
:10537000C0430A9000200C9006480690064807900B
:105380006A4609A80F9900F005FD0DB008BC04B0ED
:1053900018470000B55D0008D55D0008FFB500277F
:1053A000FF4383B000205C6801909E681D46A96998
:1053B0007F1C049888470090296A88470028F6D106
:1053C0000098401C0CD0032040028443002E19DDBD
:1053D000600614D500982B2809D02D280FD103E0A2
:1053E0000020C04307B0F0BD012080020443A9693A
:1053F0007F1C04988847761E0090002E02DD0098DE
:10540000302803D00598002825D035E0012040023F
:105410000443A969761E7F1C049888470090002EDB
:1054200003DD782805D0582803D00598002810D02F
:1054300022E00598002801D010281DD1012040024B
:105440008443A969761E7F1C049888470090102029
:1054500002E0082000E00A2005900DE00121490249
:105460000C43059A0199761E514308180190A969C9
:105470007F1C049888470090002E05DD0599009850
:1054800000F073FC0028E9DAE96904988847A00570
:1054900002D40120C043A5E7E00722D1600611D560
:1054A0006005019800D5404229680A1D2A600968F4
:1054B000220501D5087014E0220701D5088010E00C
:1054C00008600EE02868011D29600068210502D5EA
:1054D0000199017005E02107019901D5018000E0E3
:1054E000016038467EE7FFB5002083B00090506829
:1054F00001909169144600269768049888470546EC
:105500000C990698084305D009E0A169761C049817
:1055100088470546216A284688470028F5D1681C37
:1055200003D00198C00704D017E00020C04307B0A3
:10553000F0BD2068011D2160006800900DE0019819
:10554000C00704D1009805700098401C0090A16924
:10555000761C7F1E049888470546002F1CDD681CBA
:105560001AD0069800280FD0E817C00E4019411134
:105570008A0006994009511840012A1A0968012039
:1055800090400142DBD107E00C980028D7D1216A76
:10559000284688470028D2D0E169049888470C98AB
:1055A000002807D1002E05DD0198C00702D1009820
:1055B00000210170A068B84204DD0C98002804D0D6
:1055C000002F02D00120C043B1E73046AFE7000012
:1055D000FFB5087889B01546FF2805D0491C2D284D
:1055E00004D00022002407E000240BE00122F9E7A8
:1055F0000A235C430419491C0878FF28F8D1002AC3
:1056000000D06442002004902A7801462D2A01D05F
:105610002B2A0FD16D1C2D2A02D00022049209E002
:105620000122FBE700260A2233466D1C00F01EFB18
:10563000381871412F78FF2FF4D10C9AA2180692D6
:1056400002460A4304D0FF23069A9133DA4205DA70
:10565000002109980A4606C00DB0F0BD0024B74AE3
:10566000B54D2646079200F07DFD02900698039105
:10567000002801DA474200E0074639050020AF4A1A
:10568000001C51410191009012E0F80707D022461A
:105690002B463046079900F017FA06460791224636
:1056A0002B461046194600F00FFA04460D467F10AF
:1056B000002FEAD10698019B0028009A03990298CE
:1056C00006DA00F0D7FC3246079B00F0D3FC05E079
:1056D00000F0FAF93246079B00F0F6F9049A002A26
:1056E00002D00122D2075140099A03C2B4E7FFB5A4
:1056F00091B0002009900025ED432E209E685C6843
:105700001F460190B9696D1C129888470090396A4C
:1057100088470028F6D10098401C0AD00D20C0010F
:105720008443002E12DD00982B2809D02D280DD19E
:1057300003E00020C04315B0F0BD01208002044307
:10574000B9696D1C12988847761E009003A9600500
:1057500001D52D2000E02B206A461073491C0CA8AF
:105760000F9102900AE0B9696D1C12988847009069
:105770000120400204431398761E0560002E02DDCE
:1057800000983028EFD001990098884246D18020B7
:10579000044308E00998401E099001204002044398
:1057A0001399681C0860B9696D1C761E12988847A9
:1057B00000903028EED031E00199884205D12006D2
:1057C00003D480200443761E1EE0009806F0E2FB1E
:1057D000002826D001204002044307A90F98033176
:1057E000761E88420BD200980F99303808700F98B7
:1057F000401C0F90200607D50998401E03E02006A4
:1058000002D40998401C0990A00502D51399681C80
:105810000860B9696D1C129888470090002ECBDC97
:1058200059E0002E57DD0098652801D0452852D157
:10583000A00550D5032000028443B9696D1C761E73
:10584000129888470090002E0CDD2B2804D02D28BC
:1058500008D1FF2001300443B9696D1C12988847B4
:10586000761E0090E00501D52D2100E02B21029845
:1058700001700298401C0290019025E00120400236
:1058800004430EA902980131761E88420ED2009878
:10589000029930380006000E087003D10299019871
:1058A00081420AD90298401C029006E0E00501D529
:1058B000234801E0224840420990B9696D1C1298C2
:1058C0008847009013980560002E04DD009806F0CC
:1058D00061FB0028D2D1F969129888470F99FF20FF
:1058E0000870029903AA087000200A900B900CA976
:1058F0000AA8099BFFF76CFEA00502D40120C04353
:1059000019E72420044209D0E00713D138680B9A24
:105910000A99031D3B60006806C00BE00B990A98CA
:1059200000F04EFC0146E00704D13868021D3A60E1
:10593000006801602846FEE6000014400000F03FC9
:10594000F1D8FFFF70B5064606F0FAF9046805467F
:105950000A220021304600F0F5FA2C6070BD0000EC
:10596000F0B507460846584087B0C00F049048007D
:105970000E46590040084908BC1A884105D23846ED
:1059800031461E4617460B46024658004008104353
:105990004DD0300D039040055900400D490D059044
:1059A000401A0290402873DA18030121000B090500
:1059B0000843019004980092002806D01146019AED
:1059C00049420020904100910190029840210A1A1A
:1059D0000199009800F087F905460C466B4607CB05
:1059E00000F0A2F9C0197141039A0E0D0023D717D8
:1059F00056401A467A40164344D0049A002A2DD0C5
:105A0000029A012A039A15DC1205C01A9141012657
:105A10003605001C7141D20F059ED20700930192FA
:105A200002962A46234600F0D2FA07B0F0BD384667
:105A30003146FAE71605234A0F46B218C01AB74195
:105A400001210905001C4F4100187F41114618181B
:105A50007941E20F10436D19644113E0E2076D08CC
:105A600015436408C2071443039A01261205C01A9D
:105A700091413605001C7141CE074008304349086A
:105A8000C01851412A46234600F094FACDE7FFE7BB
:105A9000049801224000C117121A00238B41049878
:105AA0003146C417381AA141EEE730B40124E407A7
:105AB000634030BC54E730B40124E407614030BC9B
:105AC0004EE700000000E0FFF0B51FB488B00B996E
:105AD0000998002448400999C00F490049080991D4
:105AE000C0070B990090490049080B910999089843
:105AF000A64608431CD00B990A98084318D0099869
:105B000001244000420D4800410D0998240500037E
:105B1000000B204309900B980003000B20430B90CF
:105B200050181C494018002201901446104605E008
:105B3000002001460DB0F0BD032801DA034600E065
:105B400003239C46C11A0AAE0AE05F0008ADED5B74
:105B50004F00F75B7D430027AA187C41491C5B1E60
:105B60006145F2DD410004AB5A522104120C0A4394
:105B7000240C401C0828DFDB019802900099704635
:105B800001910090059B049A0799069800F01FFA6E
:105B9000D0E700000DFCFFFF70B5CD0F4A000903F0
:105BA0000123090B1B0519430B4BED070024520D74
:105BB0009A4201DA002070BD074B34339A4203DC6D
:105BC0009A1A00F0A0F802E00449511888402C43CA
:105BD000F1D0404270BD0000FF030000CDFBFFFF8D
:105BE0004A0009030123090B1B051943094B10B592
:105BF000520D9A4201DA002010BD064B34339A420E
:105C000003DC9A1A00F07FF810BD03495118884050
:105C100010BD0000FF030000CDFBFFFF10B5002901
:105C200004DB0124E40740428C412146002B04DBC5
:105C30001C460123DB075242A3418B4200D1824222
:105C400010BD000010B5002904DB0124E407404228
:105C50008C412146002B04DB1C460123DB0752420A
:105C6000A341994200D1904210BD0000F0B51FB48D
:105C700086B000200090019002900698069980B2AC
:105C800004900798090C02040014114307900027A0
:105C9000089D099806913E463C4603900398A9B298
:105CA0000204000C039004982D0C15434843002176
:105CB000224600F018F8C719714110340E46402CE6
:105CC000ECDB3846029A00F00EF8009A019B80182F
:105CD0000090594102980191103002904028CCDB8D
:105CE00000980BB0F0BD10B5202A04DB0146203A25
:105CF0009140002010BD914020239C1A0346E340B0
:105D00001943904010BD10B5202A04DB0846203A04
:105D1000D040002110BD0B46D340D0402024A21A11
:105D200091400843194610BD10B5202A06DBCB1759
:105D30000846203A1041C1170B4306E00B461341B9
:105D4000D0402024A21A91400843194610BD0000FB
:105D500000487047B8F3000810B50446FFF7F8FF95
:105D60000068005DC007C00F10BD3A2800D230386F
:105D7000202302469A43412A01D3104637388842ED
:105D800001D30020C04370470268137851180160A6
:105D90001846704710B5D160044951610449116239
:105DA00000211161114600F039FA10BD895D00082B
:105DB000595D00084268002A08D001680B78491C28
:105DC000002B03D0521E06C0184670470121C16047
:105DD000881E70474268002A0BD0C3680168002BF8
:105DE00007D183688B4204D0491E521C06C0002094
:105DF00070470020C0437047F7B582B0029C00276F
:105E00002078641C15460197302802D0002D15D04B
:105E100015E020780127641C782804D0582802D087
:105E2000002D09D00BE0002D01D0102D07D1002747
:105E300010252078641C02E0082500E00A250026D1
:105E4000009610E00099012769430818020C2946C2
:105E500080B2714300908E183804864201D301202D
:105E600001902078641C2946FFF77FFF0028E9DABB
:105E70000398002805D0002F01D0641E00E0029C8A
:105E800004600198002806D005F05AFF0221016045
:105E9000C81E05B0F0BD009930040843F9E70000C2
:105EA0000FB400B589B00CA900910B990023CB6009
:105EB000204B214A06930792042201921F4A029224
:105EC0001F4A089202466B460020FFF710FC09B0FB
:105ED00008BC04B0184770B586B006460020C04321
:105EE0000190002015460C46009102910490324624
:105EF000694604A8FFF7D4FF024604982118002D34
:105F000005D0002801D0084600E02046286004980B
:105F100000280DD0002A02DD0098884208D0081B16
:105F20000190009432466946029404A8FFF7B8FF36
:105F300006B070BDB55D0008D55D0008FFFFFF7FAE
:105F4000595D0008F7B5009C0F4600262578641CB3
:105F5000002D05D0FFF7FCFE0068405DC007F5D1BD
:105F60002B2D02D02D2D18D0641E39462046029AC2
:105F7000FFF742FF002F04D03968A14201D10099F8
:105F800039607105022400290BDA4042002803DD44
:105F900005F0D6FE0460A007FEBD01208002064386
:105FA000E3E70028F8DA05F0CBFE04600048FEBD08
:105FB000FFFFFF7F10B5002B08DA0024401C614171
:105FC00092185B411A4301D14008400010BDF0B562
:105FD0001FB482B005460C0003D0084605F034FE1D
:105FE00002E005F031FE20300246009021462846AE
:105FF000FFF779FE049B059A04460F4618431143A8
:10600000084314D0184610431BD0009840210A1AA8
:1060100018460599FFF777FE05460E46009A059942
:106020000498FFF760FE084305D0012004E02046F5
:10603000394607B0F0BD0020C11705430E432C437D
:10604000374300990E986305401A7905E40A002247
:106050000C43FD0A0A3002D500200146E9E701059C
:10606000101969410C9C0D9D00196941FFF7A2FFB1
:10607000DFE70000F0B50C465C4085B0E40FE407B4
:1060800003944C00002664085900944649080246CF
:106090000296224321D062460A431ED06200570D69
:1060A0004A000E032303550D012402462C49240502
:1060B000781B1B0B360B4018234326436146009088
:1060C0001C46501AB44103D30098401C009002E0D3
:1060D000921800985B41002803DA0020014605B0C1
:1060E000F0BD0020012109050746864611E06446FF
:1060F0001D46141BB54106D36546521BB341744679
:1061000007430C43A646CD07400849082843921888
:106110005B4105460D43EAD11046184313D0604653
:10612000194650407140084306D06046101AB341EA
:1061300006D20122002306E000220123DB0702E051
:106140000122D2435310009874460105381C614166
:10615000029C039D00196941FFF72CFFBFE7000077
:10616000FD0300000EB5054A02920022009213467C
:106170000192FFF72CFF03B000BD000033040000C4
:106180004A0009030123090B1B0519430A4B10B5EB
:10619000520D9A4202DA0020014610BD064B3433FC
:1061A0009A4203DC9A1AFFF7AEFD10BD034BD218DA
:1061B000FFF799FD10BD0000FF030000CDFBFFFFBE
:1061C000CB0FDB07490010B5490802460A4307D048
:1061D0000A0D07240903E401090B121B002A01DC44
:1061E000002010BDC900440F0C43C100E018D205C7
:1061F000801800F0B1F910BD064C0125064E05E0EF
:10620000E36807CC2B430C3C98471034B442F7D3D7
:10621000FEF756FF50F4000870F40008F3B58DB097
:1062200000200A9001200B90002608460C300C46F6
:1062300009906269012109989047051E2ED0252DED
:106240002DD0216A8847002818D062690121099859
:106250009047216A88470028F7D1411E6269099852
:10626000904700E0761CA1690D988847216A88470D
:106270000028F7D1E1690D988847DAE7A1690D9800
:1062800088470746A84201D1761CD2E7E1690D98FC
:1062900088477F1C02D10A98002877D04AE100275E
:1062A00062693D463946099890472A280CD16269AF
:1062B000012109989047012506E00A214F433F1824
:1062C000303FEBD4102005436269012109989047C3
:1062D000014630390A2903D29C498F42DEDCECE7C3
:1062E000E90600D49A4F6C280AD04C2810D06828B0
:1062F00024D06A282ED074280CD07A280AD00DE039
:1063000062690121099890476C2823D004211CE080
:10631000202005436269012109989047A7606560C4
:1063200065284FD026DC582839D01ADC452849D0BA
:1063300012DC252834D04128B0D143E06269012124
:1063400009989047682802D008210D43E6E701200C
:10635000C002DEE70220DCE7462833D047282CD1F4
:1063600030E05B2870D061282CD063286CD0642882
:1063700023D161E06F284FD009DC662822D067283E
:1063800020D0692826D06E2817D12EE0CEE07028C4
:106390004DD073286FD075284ED078280DD154E099
:1063A000A1690D9888470546252800D16CE7E16969
:1063B0000D9888476D1C00D16DE7BBE00A224CE0C8
:1063C0000A2252E0012023466A46C0430D99FFF796
:1063D0008EF9A4E02846402108436060A8072346C0
:1063E00001D5002239E000223FE0E80700D020E795
:1063F0002068011D21600068290501D5067018E795
:10640000290701D5068014E7A90703D5F11706600F
:1064100041600EE706600CE72846402108436060B3
:10642000A807234601D5082217E008221DE04949A4
:1064300028460840606016E0284640210843606016
:10644000A8072346BCD5B9E715E0284640210843F4
:106450006060A80707D5234610220120C0430D998C
:10646000C046C0465BE0234610220120C0430D9980
:10647000FEF794FF53E000210C910B460091632836
:1064800002D05B2808D044E02079C00601D4012066
:10649000A060012000903CE06269012109989047CA
:1064A0005E2805D101200C90014662690998904749
:1064B0002169002906D10B4601AA8F00491CD3513E
:1064C0000829FADB002835D0216900290ED1C1172F
:1064D000C90E09184A11930001AA9A1849094901DD
:1064E000411A012013688840034313606269012147
:1064F000099890475D28E5D10C98002808D0002025
:1065000001AB81005A58401CD2435A500828F8DB8E
:1065100001AB01202246C0430D99FEF7E4FF00289D
:106520000ADA401C06D10B98002803D00020C04393
:106530000FB0F0BD0A98FBE7E90702D10A99491CA0
:106540000A91361800200B9073E60000CCCCCC0CDE
:10655000FFFFFF7FF1F7FFFF002904DA401C49002D
:1065600001D140084000704770B40024050C05D1EB
:106570001024000402D1002921D01124050E01D1DC
:1065800000020834050F01D10001241D850F01D13F
:106590008000A41C002801DB4000641C002908D0F6
:1065A00020252E1B0D46F540A14000D00121294396
:1065B000084301061B1B000ADB1D02D5002070BC2E
:1065C0007047DB05181880180029F8DA401C4900CC
:1065D000F5D170BC40084000704770B58C18057844
:1065E000401C6B075B0F01D10378401C2A1106D1B8
:1065F0000278401C03E006780E70401C491C5B1EAC
:10660000F9D12B0705D40023521E0DD40B70491C61
:10661000FAE70378401CCB1A921C03E01D780D703A
:10662000491C5B1C521EF9D5A142D8D3002070BD75
:1066300030B502460B460C480024002100BF10E094
:10664000555C6840002409E0C507ED0F002D03D01C
:106650004010064D684000E04010641C082CF3DB3D
:10666000491C9942ECDB30BDFFFF000001A0000097
:1066700010B5034800F024FD024800F021FD10BDD4
:10668000780400201C04002010B5024800F018FD1A
:1066900010BD0000C003002010B5034800F010FD3D
:1066A000024800F00DFD10BDD4040020300500208C
:1066B00070B50446206C8008800009494018606469
:1066C0002178084608381421FEF710FD05460448D5
:1066D0008030A064E906C90E01208840E06470BDE6
:1066E0000008024002799106890E4A1E9200064B6C
:1066F000D2180265044A403242654A1E93079B0F36
:1067000001229A40826570470009024070B5856C8D
:10671000C46C6C60046D002C02D0456D846D6C609F
:106720000C4C64681C26056C35400126AE40344391
:10673000084D6C60046863608468102C04D10468A0
:10674000A2600468E16003E00468A1600468E2609C
:1067500070BD00000000024002480088001F01498F
:10676000488070478000002070B504460D462A46D8
:106770002146024802F018FF70BD00002C030020E3
:1067800070B504460D462A462146024802F00CFF29
:1067900070BD00000402002070B504460D462A4674
:1067A00021460448FEF702FD2A460249024802F04B
:1067B0003DFF70BDA31300200402002010B519484E
:1067C000C068012149030840002804D11548006928
:1067D0000840002801D0012000E0002000281CD043
:1067E00000BF012040030F49C860086100BF014697
:1067F0000D4801F019F8002807D101200B49087055
:1068000000200B490968486207E001200949087027
:1068100007480068406A084908800120400300F0EA
:10682000FBFE10BD001802400004005009010020CA
:10683000B8010020080100200A01002072B600BF44
:10684000FEE70000F1B582B000200190234C3EE04D
:106850000298FEF706FD041920787B2834D17D21AB
:106860002046FEF7F4FC0546002D2DD0281B461CC3
:10687000701C05F09FFA0746002F0DD032462146C6
:106880003846FEF7D7FC0020B855384606F0AAFD7A
:106890000190384605F058FA0198022809D11048AD
:1068A00000680090009806F08FFC009805F04CFA04
:1068B00009E00198012806D1094800680090009875
:1068C00005F042FA00BF00BF6C1C0020019020467A
:1068D0000299FEF79BFC041EBAD1FEBD8F0E00206C
:1068E0006400002070B506460D460BA13046FEF749
:1068F0008DFC0446002C0DD0083403E0207828706D
:10690000641C6D1C20780D2802D020780028F5D159
:106910000020287070BD00002B51434349443A20A9
:106920000000000004494969012212040243114396
:10693000014A5161704700000020024010B5034633
:10694000064A5269064C22401046CA00012424041B
:106950002243921C0243014C626110BD00200240A0
:1069600007E0FFFF10B50849496901242143064C9F
:106970006161026000BF00BF00BFBFF36F8F00BF47
:1069800000BF00BF436010BD00200240F0B50246CA
:10699000002314460D46114E76690127BF043E437D
:1069A0000E4F7E6100BFEFF31086304672B605E0F1
:1069B0002E6826602D1D241D5E1CF3B2402BF7D3DC
:1069C00000BF064E366901273F043E40002EF8D135
:1069D00000BF80F3108800BFF0BD0000002002401F
:1069E00070B5044600F03AFF061901252D0405E0B4
:1069F00000F034FFB04201D3032070BD124800699B
:106A000028400028F4D11048006910490840054684
:106A1000481C0D490861002D03D00D484560012038
:106A2000EBE700F01BFF061905E000F017FFB0428E
:106A300001D30320E1E704480069012189040840EB
:106A40000028F2D100BFD8E700200240FA830000FE
:106A5000AC27002010B51FA12248FEF724FC22A17C
:106A600020484030FEF71FFC20491E488030FEF7CA
:106A70001AFC1FA12B48FEF716FC2BA12C48FEF791
:106A800012FC2C4927488030FEF70DFC2AA125482E
:106A90008038FEF708FC2DA125488030FEF703FC66
:106AA00037A14648FEF7FFFB45A144488030FEF77A
:106AB000FAFB4FA15E48FEF7F6FB5EA15C48803012
:106AC000FEF7F1FB01206849087068A006F072F932
:106AD00010BD000048656C6C6F20576F726C6421AC
:106AE000000000008B0600203133380000F400085D
:106AF000613135644C536D4241546B2E696F742D76
:106B000061732D6D7174742E636E2D7368616E6781
:106B10006861692E616C6979756E63732E636F6D40
:106B2000000000000B08002031383833000000005E
:106B30000B090020BCF3000879757368656E672641
:106B4000613174336D67664341534E002F7379731F
:106B50002F613174336D67664341534E2F797573DE
:106B600068656E672F7468696E672F6576656E74E9
:106B70002F70726F70657274792F706F737400006C
:106B80002F7379732F613174336D67664341534EB0
:106B90002F79757368656E672F7468696E672F65E6
:106BA00076656E742F70726F70657274792F706F66
:106BB00073745F7265706C79000000000B0A00202E
:106BC0002F7379732F613174336D67664341534E70
:106BD0002F79757368656E672F7468696E672F65A6
:106BE00076656E742F6661756C742F706F737400A8
:106BF0002F7379732F69363064316950476A315089
:106C00006C2F6C68475030726C737235434F61471C
:106C10006F672F7468696E672F6576656E742F666F
:106C200069726D776172652F706F73740000000078
:106C30000B0B00202F6F74612F6465766963652FDD
:106C4000757067726164652F6936306431695047C9
:106C50006A31506C2F6C68475030726C73723543D8
:106C60004F61476F6700000022000020B3F6B3A712
:106C7000B2CECAFDC9E8D6C3A3A10D0A0000000028
:106C800070B504460C490988481C0A21FEF744FAED
:106C90008DB209484088A8420CD0074909880B22C8
:106CA0005143054A121D88180B222146FEF77EFA31
:106CB0000148058070BD0000AA1C002010B50446E4
:106CC0000D4840880C490988884213D00A484088FA
:106CD0000B225043084A121D81180B222046FEF752
:106CE00065FA05494988481C0A21FEF715FA88B259
:106CF0000149488010BD0000AA1C002010B50549BC
:106D000009880A31034A5288881A0A21FEF704FAD0
:106D100088B210BDAA1C0020F7B584B00E461546F7
:106D200031A207CA01AB07C3002700242812694615
:106D300088712846E917090E091809120902691A0B
:106D4000CAB26946CA710498087204980A380300E6
:106D500004F091FF160C28282828282828282828FD
:106D60000F1011121314151617281A2869464E729F
:106D700019E000BF00BF00BF00BF00BF00BF00BFE1
:106D800000BF69464E720EE064213046FEF7C4F93A
:106D90006846417264213046FEF7BEF9C1B26846CA
:106DA000817200E000BF00BF012705E001A8C05DBF
:106DB000001984B2781CC7B2092FF7DB2046E1170F
:106DC000090E091809040A0E69464A73E117090EEB
:106DD000091809120902611ACAB269468A7301A820
:106DE000FFF74EFF07B0F0BDAA0B00000000000047
:106DF0000000000010B523480078002804D00128C6
:106E000012D0022838D125E00022012149031E4872
:106E100000F01DFD00201D490968486219480078EE
:106E2000401C184908702BE018480068406A84B27A
:106E3000174884420DDB01225103134800F007FD7F
:106E400000201249096848620E480078401C0D492C
:106E5000087015E00D480068406A84B2462C0ADBD1
:106E600000200C4908700C480078401C0A49087042
:106E700000200449087003E000200249087000BFA8
:106E800000BF10BD1801002000040050B801002010
:106E9000760200000F0100200E01002010B504460C
:106EA00035480078002804D0012812D002285DD18E
:106EB00039E0002201214903304800F0C8FC0020DD
:106EC0002F49096848622C480078401C2A490870FC
:106ED00050E0002C13D02A480068406AD22821D301
:106EE00001225103254800F0B2FC00202449096822
:106EF000486221480078401C1F49087012E0204871
:106F00000068406A46280DD3012251031B4800F057
:106F10009EFC00201A490968486217480078401C06
:106F20001549087026E016480068406A46281CD3B8
:106F300014480078072805DA12480078401C1149E7
:106F400008700FE000200F4908700F4800780B28E8
:106F500005DA0D480078401C0B49087002E0FE205D
:106F60000949087000200449087003E00020024924
:106F7000087000BF00BF10BD1801002000040050C1
:106F8000B80100200F0100200E0100200146002959
:106F900001D1012070472520405C022808D0042040
:106FA000C86300BF00222420425400BF0120F1E743
:106FB000086800680E2290430A681060486C0068F8
:106FC000FF22013290434A6C106008680068400854
:106FD00040000A681060124840681C230A6C1A407E
:106FE0000123934018430E4A50608A6CC86C50606D
:106FF000086D002809D0086D0068FF220132904317
:107000000A6D10604A6D886D50600122252042543F
:1070100000BF00222420425400BF0020BAE7000035
:107020000000024070B5044600252520005D0228BE
:1070300003D00420E06301253AE0206800680E21B7
:107040008843216808602068006840084000216883
:107050000860606C0068FF2101318843616C086042
:10706000144840681C22216C114001228A401043C0
:1070700010494860A16CE06C4860206D002809D080
:10708000206D0068FF2101318843216D0860616D2A
:10709000A06D486001212520015500BF002124205A
:1070A000015500BFA06B002802D02046A16B884785
:1070B000284670BD000002400146C86B70470000C2
:1070C00070B5044645480568206806681C20216C98
:1070D0000140042088402840002820D0042030406F
:1070E00000281CD02068006820210840002805D115
:1070F0002068006804218843216808603748406898
:107100001C22216C114004228A40104333494860FC
:10711000206B002860D02046216B88475CE01C2053
:10712000216C0140022088402840002828D00220FD
:107130003040002824D02068006820210840002822
:1071400008D1206800680A2188432168086001216D
:1071500025200155214841681C22206C1040022244
:10716000824011431D48416000BF00212420015589
:1071700000BFE06A00282FD02046E16A88472BE054
:107180001C20216C0140082088402840002823D082
:107190000820304000281FD0206800680E21884356
:1071A000216808600D4841681C22206C10400122B3
:1071B00082401143094841600120E06301212520FC
:1071C000015500BF00212420015500BF606B00283D
:1071D00002D02046616B884770BD0000000002406D
:1071E00010B50446002C01D1012010BD2A4A2168A7
:1071F000881A1421FDF77AFF8000206402212520DF
:107200000155206800682549084021680860E16848
:10721000A06808432169084361690843A1690843DC
:10722000E1690843216A0843216809680843216825
:1072300008602046FFF73CFA01218903A0688842D4
:1072400001D10020606020798006800E616C0860AA
:10725000A16CE06C4860606800280CD0606804286D
:1072600009D82046FFF73EFA0020216D0860616DC5
:10727000A06D486003E0002020656065A0650020E7
:10728000E06301212520015500BF00212420015584
:1072900000BF0020A9E70000080002400F80FFFFA8
:1072A000F8B504460D4616461F460020009000BF64
:1072B0002420005D012801D10220F8BD01212420F5
:1072C000015500BF2520005D012844D10221252061
:1072D00001550020E06320680068400840002168F4
:1072E00008603B46324629462046FFF70FFA206BDE
:1072F000002806D0206800680E2108432168086035
:107300000BE0206800680421884321680860206839
:1073100000680A21084321680860606C0068012148
:1073200009040840002805D0606C00680912084371
:10733000616C0860206D002806D0206D0068FF2178
:1073400001310843216D086020680068012108436D
:107350002168086008E08020E06300BF002124204D
:10736000015500BF012000900098A6E770B50446C3
:1073700000F074FA06462546681C002802D005482D
:1073800000782D1800BF00F069FA801BA842FAD3DC
:1073900070BD000054010020F8B504460F4600BF40
:1073A00023480078012801D10220F8BD012020499E
:1073B000087000BF002048607D20C000FFF710FB70
:1073C0000646002E2CD1042060602068042808D1D5
:1073D0006068FFF7A7FA7D20C000FFF701FB0646B3
:1073E0001EE00020C0433860A5680DE029466068B3
:1073F000FFF7A4FA7D20C000FFF7F2FA0646002E40
:1074000001D03D6005E06D1CE168A0684018A8420D
:10741000ECD800BF0748406902218843054948610C
:1074200000BF00200249087000BF3046BDE70000E1
:10743000AC27002000200240012007494969C2070B
:107440001143054A516111464969C90FC90700290D
:1074500000D000207047000000200240F0B51FB4AB
:10746000064614461D4600BF18480078012802D180
:10747000022005B0F0BD01201449087000BF0020B3
:1074800048607D20C000FFF7ABFA0746002F15D1FA
:10749000012E05D122462B460198FFF763FA03E03F
:1074A00021460198FFF772FA7D20C000FFF798FA95
:1074B000074607484069B0430549486100BF0020BE
:1074C0000249087000BF3846D3E70000AC2700200F
:1074D00000200240002009494969C90FC907002955
:1074E0000BD00749054A91600649916011464969E8
:1074F000C90FC907002900D00120704700200240B1
:1075000023016745AB89EFCDF0B502460B4600205D
:1075100073E0012585402946194000296CD0394D7A
:107520008608B600AC598507EE0E0F25B5402C40F5
:1075300005252D07AA4201D100250FE0324DAA42B0
:1075400001D101250AE0314DAA4201D1022505E011
:107550002F4DAA4201D1032500E005258607F60E2E
:10756000B540A54222D1274D20352D688D43254EAB
:107570002036356035466D688D437560214D603D20
:107580006D688D431F4E603E756035462D688D4396
:1075900035608507EE0E0F25B5402C46194D86083F
:1075A000B600AE59A6438708BF00EE5115684700E4
:1075B0000326BE4035431560C508AE00154620358C
:1075C000AD594607F70E0F26BE40B543C608B600B4
:1075D00017462037BD51956847000326BE40B54386
:1075E0009560556801268640B5435560D5684700CB
:1075F0000326BE40B543D560401C1D46C540002D46
:1076000087D1F0BD6018024000040050000800500F
:10761000000C00507047000010B504460A48C068CE
:107620002040002804D00848C460204600F00EF82E
:10763000054800692040002804D003480461204622
:10764000FFF7E8FF10BD000000180240704700007F
:1076500070B503460A460021D7E001268E40146823
:107660003440002C73D01579AD07AD0F012D04D037
:107670001579AD07AD0F022D18D198684E0003257E
:10768000B5400646AE4330464E00D568B540284367
:107690009860586801258D400646AE433046102656
:1076A000556835402D098D40284358601579AD0740
:1076B000AD0F032D0BD0D8684E000325B54006460C
:1076C000AE4330464E009568B5402843D8601579E2
:1076D000AD07AD0F022D15D1CD08AE001D462035EA
:1076E000A8594D07EE0E0F25B5400646AE4330466D
:1076F0004E07F60E1569B5402843CD08AD001E466D
:107700002036705118684E000325B5400646AE433A
:1077100030461579AD07AD0F4E00B54028431860CF
:107720000326360455683540002D6DD03A4D8E083D
:10773000B600A8598D07EE0E0F25B5400646AE439C
:10774000304605252D07AB4202D1002510E05BE055
:10775000324DAB4201D101250AE0314DAB4201D19E
:10776000022505E02F4DAB4201D1032500E00525A0
:107770008E07F60EB5402843274D8E08B600A85157
:10778000254D603D28680546A54328460126360557
:1077900055683540002D02D00546254328461E4D2C
:1077A000603D286068680546A543284601267605A1
:1077B00055683540002D02D0054625432846164D14
:1077C000603D6860144D203568680546A54328462D
:1077D0000126760455683540002D02D00546254324
:1077E00028460D4D2035686028680546A543284683
:1077F0000126360455683540002D02D00546254344
:107800002846054D20352860491C1568CD40002DBF
:1078100000D022E770BD0000601802400004005054
:1078200000080050000C0050024613690B40002B6A
:1078300001D0012000E00020704710B542691346D6
:107840000B401B040C4694432343836110BD002A64
:1078500001D0816100E0816270470000014800684A
:10786000704700004C010020034800680349097874
:1078700040180149086070474C0100205401002065
:1078800010B5002408480068FF210131084306496B
:107890000860032000F00AF8002801D0012401E06C
:1078A00000F034F8204610BD00200240F8B5044630
:1078B00000251348007800281ED0114801787D204B
:1078C000C000FDF713FC074639460E480068FDF777
:1078D0000DFC064600F050FE00280BD1042C07D208
:1078E00000222146401E00F067F80748046004E0CB
:1078F000012502E0012500E001252846F8BD000031
:1079000054010020580100205001002008B500BF9C
:1079100010480068012108430E49086008460068C5
:10792000C007C00F009000BF00BF00BF094840382B
:10793000C06B8905084307494039C8630846C06BD6
:1079400009040840009000BF00BF0320400200F07F
:1079500007FE08BD401002400146002915DBCB069A
:10796000DB0E01229A400A4B1A6000BF00BF00BF25
:10797000BFF34F8F00BF00BF00BF00BF00BF00BFFD
:10798000BFF36F8F00BF00BF00BF00BF7047000094
:1079900080E100E00146002909DB00BF00BFCB0603
:1079A000DB0E01229A40034B1A6000BF00BF00BFEC
:1079B0007047000000E100E070B504460D46164631
:1079C0002946204604F066F970BD000070B50446F3
:1079D0001148006803214902884320430E4908608A
:1079E0004815844216D10D490968062251430846BC
:1079F0000B49FDF77BFB451C05E0002D01D06D1EFA
:107A000001E0032070BD044840690121890208405B
:107A10008842F2D00020F5E70070004058010020B5
:107A200040420F00FEB504460027002002900121CD
:107A300049042068084088427BD1002001907748A3
:107A4000C06BC902084000280ED100BF7348C06B4C
:107A500008437249C8630846C06B09040840009097
:107A600000BF00BF012001906D480068FF21013177
:107A700008436B490860FFF7F1FE064606E0FFF792
:107A8000EDFE801B022801D9032706E06448006848
:107A9000FF21013108400028F1D000BF002F4BD159
:107AA0005E484030C569032109020D40002D1AD0FF
:107AB000A069A84217D059484030C069884305469C
:107AC00056484030C06901210904084353494031F8
:107AD000C8610846C0690121090488434F49403103
:107AE000C8610846C561E807C00F002813D0FFF73A
:107AF000B5FE064607E0FFF7B1FE801B4949884204
:107B000001D9032706E045484030C06902210840FA
:107B10000028F0D000BF002F0CD140484030C06991
:107B2000032109028843A16908433C494031C861E7
:107B300003E00DE0029700E002970198012806D1CA
:107B40003648C06B0121090788433449C86300BF28
:107B50002078C007C00F002809D030484030406965
:107B600080088000616808432C4940314861022147
:107B700020680840022809D12848403040690C217B
:107B80008843A16808432549403148612021206885
:107B9000084020280AD121484030406903210903C8
:107BA0008843E16808431D49403148610121890348
:107BB00020680840884213D118484030406980004E
:107BC00080086169084315494031486109066069C8
:107BD000884205D11148C068891308430F49C8601D
:107BE0000121C90220680840884215D10B48403065
:107BF00040690321890388432169084307494031CB
:107C00004861012189032069884205D10348C06881
:107C1000890008430149C8600298FEBD0010024077
:107C2000007000408813000070B504460D46002C1B
:107C300001D1012070BD6B4800684007400FA84289
:107C400018D268480068C008C00028436549086029
:107C5000FFF704FE064607E0FFF700FE801B6249BF
:107C6000884201D90320E5E75E4800684007400FDD
:107C7000A842F1D1022120680840022815D1042130
:107C800020680840042807D1584880680721090364
:107C90008843401855498860544880680F2109027C
:107CA0008843A1680843514988602078C007C00F05
:107CB000002854D06068012808D14C480068012190
:107CC0004904084000282ED10120B3E7606802284B
:107CD00008D146480068012149060840002822D101
:107CE0000120A7E76068002808D14048006801210A
:107CF00089020840002816D101209BE7606803280C
:107D000008D13A484030006A0221084000280AD1D0
:107D100001208FE735484030C06902210840002823
:107D200001D1012086E731488068C008C000616841
:107D300008432E498860FFF791FD064607E0FFF7EC
:107D40008DFD801B2849884201D9032072E727480E
:107D50008068382108406168C9008842EFD1214815
:107D600000684007400FA84218D91E480068C008A4
:107D7000C00028431B490860FFF770FD064607E076
:107D8000FFF76CFD801B1849884201D9032051E799
:107D9000144800684007400FA842F1D10421206830
:107DA0000840042808D11148806807210903884346
:107DB000E16808430D49886000F03AF80B4989688A
:107DC0000F2212021140090A8900094A515CC906B2
:107DD000C90EC8400749086007480068FFF766FDFC
:107DE00028E7000000200240881300000010024035
:107DF000D4F200085801002050010020014800681A
:107E0000704700005801002000B5FFF7F7FF064952
:107E10008968072212031140090B8900034A515C4B
:107E2000C906C90EC84000BD0010024014F3000886
:107E3000FEB5354880683821084000280DD1324809
:107E4000006809020840C10A0120884000902F48BC
:107E50000099FDF74BF9044654E02B48806838211F
:107E60000840082801D12A4C4CE027488068382176
:107E70000840102834D12448C0688607B60F22482D
:107E8000C068702108400009401C0190022E0FD0EC
:107E9000032E0CD11E480199FDF728F91A49C9682B
:107EA0007F2212021140090A484305460DE000BF37
:107EB00016480199FDF71AF91349C9687F22120281
:107EC0001140090A4843054600BF00BF0E48C0687C
:107ED000400F471C39462846FDF708F9044611E0D3
:107EE0000948806838210840202801D1840209E02F
:107EF0000548806838210840182802D17D242402D2
:107F000000E000242046FEBD001002400024F400E2
:107F100000127A00FEB50446002C01D10120FEBDFE
:107F20002078C007C00F00286FD0F7488768382135
:107F30000F40C0688607B60F102F01D1032E01D065
:107F4000082F0BD1F048006801214904084000289F
:107F50005BD06068002858D10120E0E700BF012114
:107F600009046068884205D1E74800680843E6498B
:107F7000086021E005210904606888420ED1E248CA
:107F80000068012189040843DF4908600846006849
:107F9000012109040843DC4908600DE0DA48006863
:107FA000012109048843D849086008460068012176
:107FB00089048843D449086000BF6068002812D053
:107FC000FFF74CFC054606E0FFF748FC401B642821
:107FD00001D90320A3E7CC480068012149040840E7
:107FE0000028F1D011E0FFF739FC054606E0FFF765
:107FF00035FC401B642801D9032090E7C248006883
:108000000121490408400028F1D1022120680840DC
:10801000022873D1BC488068382108400746BA4816
:10802000C0688607B60F102F01D1022E01D0002F95
:1080300036D1B5480068012189020840002804D0E3
:10804000E068002801D1012069E7AF4840687F213E
:1080500009028843616909020843AB494860002F5F
:1080600016D1084600680721C902884321690843E0
:10807000A5490860084600680722D2021040C20ADB
:10808000012090400146A148FDF730F8A049086062
:10809000A0480068FFF70AFC002849D001203EE70D
:1080A000E06800282BD0984800680721C90288435F
:1080B0002169084394490860084600688915084307
:1080C00091490860FFF7CAFB054606E0FFF7C6FBCB
:1080D000401B022801D9032021E78B4800680121B9
:1080E000890208400028F1D0874840687F210902B2
:1080F00088436169090208438349486018E082485F
:108100000068FF21013188437F490860FFF7A6FB23
:10811000054606E0FFF7A2FB401B022801D9032019
:10812000FDE6794800680121890208400028F1D164
:10813000082120680840082849D173488068382100
:10814000084018280BD170484030006A02210840CE
:1081500000283CD0A069002839D10120DFE6A069C1
:1081600000281AD068484030006A01210843664957
:1081700040310862FFF772FB054606E0FFF76EFB31
:10818000401B022801D90320C9E65F484030006A3D
:10819000022108400028F1D019E05B484030006A15
:1081A00040084000584940310862FFF757FB054638
:1081B00006E0FFF753FB401B022801D90320AEE67F
:1081C00051484030006A022108400028F1D10421C2
:1081D0002068084004287CD1002001904A4880682B
:1081E0003821084020280BD147484030C06902217F
:1081F000084000286ED0A06800286BD101208EE6D0
:108200004148C06B010F01208843002810D000BFF7
:108210003D48C06B0121090708433B49C863084634
:10822000C06B09040840009000BF00BF012001900E
:1082300039480068FF2101310840002816D136482E
:108240000068084334490860FFF708FB054606E06C
:10825000FFF704FB401B022801D903205FE62E48EC
:108260000068FF21013108400028F1D000BFA0685C
:10827000012808D124484030C0690121084322491F
:108280004031C86120E0A06805280FD11E48403069
:10829000C069042108431C494031C8610846C069CF
:1082A0000121084318494031C8610DE016484030AB
:1082B000C0694108490014484030C161C0690421C7
:1082C000884311494031C86100BFA068002816D01A
:1082D00001E040E03EE0FFF7C1FA054607E0FFF7A6
:1082E000BDFA401B0D49884201D9032017E6064814
:1082F0004030C069022108400028F0D01EE0FFF79E
:10830000ADFA054614E00000001002400024F4001D
:108310005801002050010020007000408813000028
:10832000FFF79CFA401B6249884201D90320F6E519
:108330006048C069022108400028F1D10198012855
:1083400008D15C484038C06B01210907884359496E
:108350004039C86300BFE06900285AD0554840380A
:1083600080683821084010287AD0E069022851D16D
:108370005048403800680121090688434D4940397A
:108380000860FFF76BFA054606E0FFF767FA401B47
:10839000022801D90320C2E546484038006801217F
:1083A000490608400028F0D1616A206A0843A16AA2
:1083B00009020843E16A0843216B08433D494039FB
:1083C000C9683D4A114008433A494039C8600846E7
:1083D000006801210906084336494039086008460B
:1083E000C0680904084333494039C860FFF736FACA
:1083F000054606E0FFF732FA401B022801D90320A8
:108400008DE52C48403800680121490608400028C5
:10841000F0D04AE027484038006801210906884327
:10842000244940390860FFF719FA054606E0FFF7CE
:1084300015FA401B022801D9032070E51D48403879
:1084400000680121490608400028F0D11948403849
:10845000C0681A49084017494039C86025E0FFE75D
:10846000E069012800D15AE512484038C668B107D2
:10847000890F206A814216D170203040616A88429B
:1084800011D17F2000023040A16A090288420AD13E
:108490001F2040043040E16A884204D1710F49072F
:1084A000206B814201D0012039E5002037E5000032
:1084B00088130000401002408C80C11FFCFFFEEFBB
:1084C000FFB581B004460D461646002C02D10120AE
:1084D00005B0F0BD88200059002805D10021842076
:1084E0000155204600F0DEFE24218820015120683D
:1084F00000684008400021680860204603F066F8E4
:10850000012800D1E4E7A06A002802D0204602F04A
:1085100033FE206880680121890308432168886050
:10852000206880680121C903884328432168886046
:10853000770504980004074320680068074908404D
:1085400038432168086020680068012108432168D9
:108550000860204602F088FEBAE70000FFFF00FC3A
:10856000044909680322520291430143014A116000
:10857000704700000000014070B504462546681EA3
:108580000949884201D901200CE0681E0749486169
:108590000321081F03F07EFB0020044988610720A7
:1085A0000861002070BD0000FFFFFF0000E000E058
:1085B000704770477047000030B502460B4600BF59
:1085C0003C20805C012801D1022030BD01253C20E7
:1085D000855400BF02253D2085541068416810680D
:1085E0008468184D1068A84206D10F252D0508464D
:1085F000A84301465868014370250846A843014630
:1086000018680143106841600E4D1068A84207D0F9
:108610000D4D1068A84203D00C4D1068A84207D138
:1086200080252046A8430446986804431068846067
:1086300001253D20855400BF00253C20855400BF06
:108640000020C2E7002C014000040040004001402F
:1086500010B50446002C01D1012010BD3D20005D65
:10866000002805D100213C200155204600F026F8C5
:1086700002213D200155211D206802F0ADFC0121A1
:108680004820015500BF3E2001553F2001554020A4
:10869000015541200155422001554320015500BF9D
:1086A00000BF442001554520015546200155472073
:1086B000015500BF3D2001550020CEE738B50446E6
:1086C00017492068884216D100BF16480068C914AF
:1086D00008431449086008460068C914084000901F
:1086E00000BF00BF002211460D20FFF765F90D20E5
:1086F000FFF750F913E00C49206888420FD100BF02
:1087000008484038C06B0221084306494039C86315
:108710000846C06B02210840009000BF00BF38BD72
:10872000002C0140401002400004004001463D2062
:10873000405C012801D00120704702233D204354B2
:10874000114B0868984207D0104B0868984203D034
:108750000F4B086898420FD1086882680D4B1A4089
:10876000062A0FD0D81F82420CD008680068012367
:1087700018430B68186005E0086800680123184377
:108780000B6818600020D7E7002C0140000400406F
:10879000004001400700010001463D20405C0128E7
:1087A00001D00120704702233D2043540868C0686F
:1087B000012318430B68D860114B0868984207D012
:1087C000104B0868984203D00F4B086898420FD1AD
:1087D000086882680D4B1A40062A0FD0D81F8242C3
:1087E0000CD008680068012318430B68186005E086
:1087F00008680068012318430B6818600020D1E75F
:10880000002C01400004004000400140070001002E
:10881000F8B504460D460020009000BF3C20005DE6
:10882000012801D10220F8BD01213C20015500BFE3
:1088300002213D200155206886683A480640FF2104
:10884000090230468843064620688660286850281A
:1088500034D00CDC202851D004DC00284CD0102867
:1088600052D14AE030284AD040284DD13AE0602821
:108870002ED0702807D001210903401A02D0401AD7
:1088800042D10DE043E0EB686A68A968206802F015
:10889000F3FB20688668772006432068866036E010
:1088A000EB686A68A968206802F0E6FB20688068C7
:1088B0000121890308432168886028E0EA68696823
:1088C000206802F0F3FB5021206802F0E3FB1EE079
:1088D000EA686968206802F002FC6021206802F002
:1088E000D9FB14E0EA686968206802F0DFFB4021E8
:1088F000206802F0CFFB0AE000BF00BF00BF29687C
:10890000206802F0C7FB02E00120009000BF00BF1A
:1089100001213D20015500BF00213C20015500BF31
:10892000009880E788FFCEFF7047000010B504462E
:108930002068006902210840400800281CD02068F7
:10894000C06808404008002816D0481F2168086108
:1089500001202077206880698007800F002803D0DD
:108960002046FFF7E1FF05E0204600F0DBF8204657
:1089700000F0D9F800202077206800690421084021
:10898000800800281DD02068C068084080080028A2
:1089900017D0C843216808610220207720688069C9
:1089A000032109020840002803D02046FFF7BCFF3E
:1089B00005E0204600F0B6F8204600F0B4F80020AC
:1089C00020772068006908210840C00800281CD0D2
:1089D0002068C0680840C008002816D0C843216835
:1089E0000861042020772068C0698007800F002874
:1089F00003D02046FFF798FF05E0204600F092F8EC
:108A0000204600F090F800202077206800691021AF
:108A10000840000900281DD02068C06808400009EF
:108A2000002817D0C84321680861082020772068F3
:108A3000C069032109020840002803D02046FFF73F
:108A400073FF05E0204600F06DF8204600F06BF85B
:108A50000020207720680069C007C00F012148402E
:108A6000484000280CD02068C06808404840484072
:108A7000002805D0C81E21680861204600F054F87F
:108A80002068006980210840C00900280BD02068B8
:108A9000C0680840C009002805D0C84321680861A3
:108AA0002046FFF786FD20680069FF21013108405C
:108AB000000A00280CD02068C06880210840C00946
:108AC000002805D01648216808612046FFF770FD90
:108AD0002068006940210840800900280BD02068E8
:108AE000C06808408009002805D0C8432168086193
:108AF000204600F07DF820680069202108404009E8
:108B000000280BD02068C06808404009002805D024
:108B1000C843216808612046FFF74CFD10BD0000E6
:108B2000FFFEFFFF7047704710B504462648844299
:108B300048D12648026840680021521C4841234918
:108B40000A60486022480088002805DD2048008827
:108B5000401E1F49088017E0FF20F4301C490880A0
:108B600008211C48FEF769FE1B480078002805DD37
:108B700019480078401E1849087002E00120174982
:108B8000087001201649087016480078002804D0A3
:108B900014480078401E1349087004F045FA124842
:108BA000008800280EDD10480088401E0E4908800D
:108BB00008460088002805D17D20C00008800120DB
:108BC0000A49087010BD00006C0100200800002058
:108BD00058000020000400504901002048010020F6
:108BE000000100200C01002054000020560000204D
:108BF0007047014600BF8420405C012801D102205B
:108C0000704701238420435400BF2423882043500D
:108C10000868026808680068400840000B6818602F
:108C200001235B0710469843024600204866086807
:108C3000026020238820435000BF00238420435437
:108C400000BF0020DCE77047704770B504460D4652
:108C500000BF8420005D012801D1022070BD0121E8
:108C60008420015500BF2421882001512068066816
:108C7000206800684008400021680860206880681B
:108C8000072149068843284321688860204602F06E
:108C90003FFA2068066020218820015100BF002192
:108CA0008420015500BF0020D8E770B504460D466A
:108CB00000BF8420005D012801D1022070BD012188
:108CC0008420015500BF24218820015120680668B6
:108CD00020680068400840002168086020688068BB
:108CE000C000C008284321688860204602F010FABE
:108CF0002068066020218820015100BF00218420C7
:108D0000015500BF0020D9E770477047F8B5044609
:108D1000882005598C2006592068806880210840E9
:108D2000802827D1212D25D100BF03F03FF8074629
:108D3000012003F072F82068806880218843216850
:108D40008860384603F069F800BFE06F00280ED055
:108D5000E06FFEF71BF9002809D0E06FFEF7ACF9D1
:108D6000202804D11021902001510320F8BD204675
:108D700002F002FC206880684021084040282AD187
:108D8000222E28D100BF03F011F80746012003F07E
:108D900044F820688068402188432168886038460C
:108DA00003F03BF800BF80200059002810D080213C
:108DB0000859FEF7EBF800280AD080210859FEF781
:108DC0007BF9202804D11021902001510320CDE708
:108DD000204602F073FB0020C8E77047F0B585B06D
:108DE00004462068C5692068066820688768FA48D4
:108DF000284003900398002814D120202840002800
:108E000010D020203040002804D101200007384035
:108E1000002807D0606F002802D02046616F884785
:108E200005B0F0BD039800287ED0EC4838400028FB
:108E300003D1EB4830400028F6D0E807C00F0028E7
:108E40000DD0FF2001303040002808D001202168DB
:108E50000862902000590121084390210851022006
:108E6000284000280CD0F807C00F002808D00220A6
:108E7000216808629020005904210843902108517C
:108E80000420284000280CD0F807C00F002808D084
:108E90000420216808629020005902210843902193
:108EA000085108202840002810D0202030400028F9
:108EB00003D1CA483840002808D008202168086239
:108EC0009020005908210843902108510120C00238
:108ED000284000280ED0012080063040002809D00C
:108EE0000120C00221680862902000592021084317
:108EF000902108519020005900285ED02020284061
:108F000000280ED020203040002804D10120000786
:108F10003840002805D0606F002802D02046616FDD
:108F200088479020005900E048E00290206880685F
:108F300040210840402804D02821029808400028F9
:108F400035D0204602F0BAFA2068806840210840F7
:108F5000402828D100BF02F029FF0190012002F033
:108F60005CFF206880684021884321688860019800
:108F700002F053FF00BF8020005900280FD099490C
:108F800080200059816380210859FEF74BF80028A2
:108F900013D0802210591259916B88470DE020465A
:108FA000FFF71BFF09E02046FFF717FF05E020460B
:108FB000FFF713FF00219020015131E7E06E0128F7
:108FC0007ED11020284000287AD010203040002880
:108FD000FAD010202168086220688068402108408B
:108FE000402876D1802000590068406880B2019006
:108FF000019800286CD05C20015B0198814267DDFC
:109000005E210198085380200059006800682021E3
:10901000084000284DD100BF02F0C8FE009001209A
:1090200002F0FBFE20680068FF21013188432168BF
:109030000860009802F0F1FE00BF00BF02F0B6FE2B
:109040000090012002F0E9FE20688068400840009E
:1090500021688860009802F0E0FE00BF00BF02F0C7
:10906000A5FE0090012002F0D8FE20688068402113
:10907000884321688860009802F0CFFE00BF20215D
:109080008C2001510020E06600BF02F08FFE0090AE
:10909000012002F0C2FE2068006810218843216888
:1090A0000860009802F0B9FE00BF80210859FDF762
:1090B0006DFF022020675C20025B5E20005B02E007
:1090C00057E006E004E0101A81B22046FFF7BBFD2E
:1090D000A6E65C20015B5E20005B081A80B201906E
:1090E0005E20005B002843D00198002840D000BFDC
:1090F00002F05CFE0090012002F08FFE2068006804
:10910000FF212131884321680860009802F085FE24
:1091100000BF00BF02F04AFE0090012002F07DFE79
:10912000206880682D49C9430840216888600098FC
:1091300002F073FE00BF20218C2001510020E06668
:10914000606700BF02F032FE0090012002F065FE71
:10915000206800681021884321680860009802F0A8
:109160005CFE00BF0220206720460199FFF76BFDDF
:1091700056E601200005284000280CD0012080057B
:109180003840002807D001200005216808622046E9
:10919000FFF7BBFD44E68020284000280FD0802048
:1091A0003040002804D10120C0053840002806D0F6
:1091B000A06F002802D02046A16F884730E64020EB
:1091C0002840002810D04020304000280CD02046F5
:1091D00002F0B6F924E600000F08000001000010BC
:1091E00020010004E5B200080120C0052840002845
:1091F00008D0012080073040002803D02046FFF728
:1092000083FD0DE6012000062840002807D0F00F5E
:10921000C007002803D02046FFF716FD00E600BF78
:10922000FEE510B50446002C01D1012010BDA06957
:10923000002800D000E000BF88200059002805D198
:10924000002184200155204600F02CF8242188209C
:1092500001512068006840084000216808602046ED
:1092600002F0B4F9012800D1E0E7A06A002802D09A
:10927000204601F081FF206840680921C902884327
:1092800021684860206880682A21884321688860B6
:10929000206800680121084321680860204601F029
:1092A000E3FFC3E710B58EB00446142109A8FBF70D
:1092B00096FF1C2102A8FBF792FFB0492068884264
:1092C0007DD1012002900020039002A8FEF7AAFBA6
:1092D000002801D0FDF7B2FA00BFA94800680121BB
:1092E00089030843A64908600846006801218903EC
:1092F0000840019000BF00BF00BFA1484038406B4C
:10930000012108439E49403948630846406BC00725
:10931000C00F019000BF00BF03204002099002204F
:109320000A9000200B900C9001200D9009A90520B7
:109330000007FEF78DF99348934908603220486092
:10934000002191488160C16080210161002141615B
:109350008161C1610162FDF743FF002801D0FDF783
:109360006DFA00BF8849802001510846846200BF21
:109370008448503085490860332048601021834874
:1093800081600021C1608021016100214161816112
:10939000C1610162FDF724FF002801D0FDF74EFAFC
:1093A00000BF7A48E067846200BF002211461B209C
:1093B000FEF702FB1B20FEF7EDFADDE0FFE7744944
:1093C0002068884261D1022002900020049002A807
:1093D000FEF728FB002801D0FDF730FA00BF6848EF
:1093E0004038C06B01214904084365494039C863CE
:1093F0000846C06B012149040840019000BF00BF2E
:1094000000BF5F484038406B012108435C49403948
:1094100048630846406BC007C00F019000BF00BF03
:109420000E20099002200A9000200B900C90012041
:109430000D9009A905200007FEF70AF951483C30B4
:109440005449086034204860002152488160C1605E
:1094500080210161002141618161C1610162FDF7EB
:10946000BFFE002801D0FDF7E9F900BF494980207F
:1094700001510846846200BF002211461C20FEF7FD
:109480009BFA1C20FEF786FA76E043492068884262
:1094900072D100BF3A484038C06B012189040843AB
:1094A00037494039C8630846C06B01218904084028
:1094B000019000BF00BF00BF31484038406B02211F
:1094C00008432F49403948630846406B0221084051
:1094D000019000BF00BF03200002099002200A9003
:1094E00000200B900C9004200D9009A92B48FEF74A
:1094F000AFF8244814302A4908603620486000211B
:1095000027488160C1608021016100214161816142
:10951000C1610162FDF764FE002801D0FDF78EF9FC
:1095200000BF1F49802001510846846200BF1548D2
:1095300028301C4908603720486010211948816094
:109540000021C16080210161002141618161C1610F
:109550000162FDF745FE002801D0FDF76FF900BF5D
:109560001048E067846200BF002211461D20FEF70C
:1095700023FA1D20FEF70EFA0EB010BD0038014090
:109580004010024008000240C00300201C040020DC
:1095900000440040780400200048004000040050CF
:1095A000D404002030050020F8B504460D461646C8
:1095B0008C200059202834D1002D01D0002E01D15B
:1095C0000120F8BD01210903A068884208D1206963
:1095D000002805D1E807C00F002801D00120F0E7DE
:1095E0000020E066206840680121C9050840002885
:1095F00011D000BF02F0DAFB0746012002F00DFC9B
:1096000020680068012189060843216808603846FF
:1096100002F003FC00BF32462946204602F0EEF875
:10962000CFE70220CDE7704770470000F8B5044649
:109630000E46154688200059202855D1002E01D00D
:10964000002D01D10120F8BD01210903A068884245
:1096500008D12069002805D1F007C00F002801D0EB
:109660000120F0E7266554200553562005530021BC
:1096700090200151212188200151E06F00281DD048
:109680001A48E16FC8621A48E16F08631948E16F30
:1096900048630020E16F886323681A4628322B460E
:1096A000216DE06FFDF7FCFD002807D01021902010
:1096B00001512021882001510120C4E74020216868
:1096C000086200BF02F072FB0746012002F0A5FB12
:1096D000206880688021084321688860384602F04D
:1096E0009CFB00BF0020AEE70220ACE749B40008B5
:1096F000ADB40008FDB20008034A0168914202D1EE
:109700000021024A116070470048004030000020EC
:109710007047000008B500200090CA4880780028F3
:109720007ED00020C7498870C821C748FDF71CF8C3
:10973000C648808B002873DDC5A1C348FBF798FDA0
:10974000002803D10121C4A003F034FBC6A1BE4808
:10975000FBF78EFD00280AD1C5480288C54801885C
:10976000C5A003F027FBC949C9A003F023FBCCA186
:10977000B548FBF77DFD002804D1CC480168CCA09A
:1097800003F018FBCEA1B048FBF772FD002805D10D
:109790000120CD490870CDA003F00CFBCEA1AA4852
:1097A000FBF766FD002805D1CE480288002116206F
:1097B000FDF7B2FACCA1A448FBF75AFD002805D169
:1097C000C848028801211620FDF7A6FA6A46C9A1F9
:1097D0009D48FBF7C5FD012806D1009881B2C1481C
:1097E00002881820FDF798FA6A46C5A19648FBF74B
:1097F000B7FD012806D1009881B2BA480288192025
:10980000FDF78AFAC0A19048FBF732FD002819D174
:1098100000BF00BF00BF00BF00BFBFF34F8F00E01D
:109820002DE300BF00BF00BFBB48BC49C86000BFFC
:1098300000BF00BFBFF34F8F00BF00BF00BF00BF1E
:1098400000BFFDE7B6A18048FBF712FD002810D14C
:10985000B7480078002806D00020B5490870B5A0A8
:1098600003F0A8FA05E00120B1490870B6A003F0A2
:10987000A1FABAA17448FBF7FBFC002810D1AC4850
:109880004078002806D00020A9494870B7A003F00E
:1098900091FA05E00120A6494870B9A003F08AFAC0
:1098A000BCA16948FBF7E4FC002810D1A0488078EF
:1098B000002806D000209E498870B8A003F07AFAEC
:1098C00005E001209A498870BAA003F073FABEA19E
:1098D0005D48FBF7CDFC00280AD19548C0780028E8
:1098E00003D000209249C87002E001209049C8705E
:1098F000B7A15548FBF7BCFC002802D10120B749AD
:109900000870B7A15048FBF7B3FC002801D1FDF760
:10991000A1F80E22B6A14C48FBF7CEFC002808D1D6
:10992000B74AB8A14848FBF71BFDB549BAA003F0F8
:1099300041FA0E22C0A14448FBF7BEFC00280AD120
:10994000AF4A803AC0A14048FBF70AFDAC498039D4
:10995000C2A003F02FFA1122C8A13B48FBF7ACFCD0
:1099600000280AD1A64A8032C9A13748FBF7F8FC83
:10997000A3498031CBA003F01DFA0C22D2A13248BA
:10998000FBF79AFC002808D1D34AD4A12E48FBF754
:10999000E7FCD149D5A003F00DFA0A22DBA12A4841
:1099A000FBF78AFC00280AD1CB4A8032DAA126488C
:1099B000FBF7D6FCC8498031DBA003F0FBF90D2290
:1099C000E0A12148FBF778FC00280AD18C4AC03A74
:1099D000E0A11D48FBF7C4FC8949C039E1A003F0B0
:1099E000E9F90D22E7A11848FBF766FC002808D129
:1099F000E84AE9A11448FBF7B3FCE649EAA003F002
:109A0000D9F90D22F0A11048FBF756FC00280AD125
:109A1000E04A8032F0A10C48FBF7A2FCDD4980311E
:109A2000F1A003F0C7F90D22F7A10748FBF744FCAA
:109A3000002806D1F84AF9A10348FBF791FCF64942
:109A4000F4E1F6E18C0E0020DB1200208C140020E3
:109A500076657273696F6E00B9CCBCFEB0E6B1BEBC
:109A6000A3BA2564200D0A007A65726F0000000019
:109A7000200000201E000020CAFDD6B52530346429
:109A80002CB2BDD6E825640D0A0000008C0500202C
:109A90007A65726F5F6275663A25730D0A00000081
:109AA0006F75746C696E65636E7400001000002041
:109AB000B8B4CEBBB4CECAFD2564B4CE000000005D
:109AC000757064617465000014000020D7BCB1B8E3
:109AD0004F5441C9FDBCB600676173705F636C6F22
:109AE0007365640026010020676173705F6F7065A5
:109AF0006E00000062617468726F6F6D3D256400D6
:109B0000686561743D25640073797374656D5F5297
:109B100053543D31000000000400FA0500ED00E060
:109B200064656275675F476173706F776572000087
:109B300000000020B1DAB9D2C2AFD0C5CFA2B4F2D2
:109B4000D3A12D4F46460000B1DAB9D2C2AFD0C57D
:109B5000CFA2B4F2D3A12D4F4E0000006465627510
:109B6000675F45433630304E0000000045433630D5
:109B7000304ED0C5CFA2B4F2D3A12D4F464600003F
:109B800045433630304ED0C5CFA2B4F2D3A12D4FCD
:109B90004E000000476173436F737400C8BCC6F881
:109BA000BBFDCBE3D0C5CFA2B4F2D3A12D4F464627
:109BB00000000000C8BCC6F8BBFDCBE3D0C5CFA2F7
:109BC000B4F2D3A12D4F4E004D515F73656E64000A
:109BD000666C6173685F7361766500002200002027
:109BE000666C6173685F666163746F727900000010
:109BF0004D5154545F757365726E616D653D000023
:109C00008B0700204D5154545F757365726E616D02
:109C1000653D2573000000004D5154545F73657419
:109C200074696E675F757365726E616D653A202049
:109C3000202025730D0A00004D5154545F636C6958
:109C4000656E7449643D00004D5154545F636C6906
:109C5000656E7449643D2573000000004D515454F5
:109C60005F73657474696E675F636C69656E744970
:109C7000643A2020202025730D0A00004D515454D1
:109C80005F6D717474486F737455726C3D000000A1
:109C90004D5154545F6D717474486F737455726C88
:109CA0003D2573004D5154545F73657474696E673C
:109CB0005F6D717474486F737455726C3A20202014
:109CC0002025730D0A0000004D5154545F706173DC
:109CD0007377643D000000008B0800204D51545400
:109CE0005F7061737377643D257300004D51545468
:109CF0005F73657474696E675F7061737377643ADC
:109D00002020202025730D0A000000004D515454DE
:109D10005F706F72743D00004D5154545F706F72EC
:109D2000743D2573000000004D5154545F736574F9
:109D300074696E675F706F72743A202020202573FB
:109D40000D0A00004D5154545F496F74436F6465B0
:109D50003D0000004D5154545F496F74436F64657A
:109D60003D2573004D5154545F73657474696E677B
:109D70005F696F74636F64653A2020202025730D3E
:109D80000A0000004D5154545F514D545355423117
:109D90003D0000008B0900204D5154545F514D543B
:109DA000535542313D2573004D5154545F736574D2
:109DB00074696E675F514D54535542313A202020EB
:109DC0002025730D0A0000004D5154545F514D542D
:109DD000535542323D0000004D5154545F514D5493
:109DE000535542323D2573004D5154545F73657491
:109DF00074696E675F514D54535542323A202020AA
:109E00002025730D0A0000004D5154545F514D54EC
:109E1000535542333D0000008B0A00204D515454ED
:109E20005F514D54535542333D25730014A002F049
:109E3000C1FF0D221AA11E48FBF73EFA002808D1E7
:109E40001C4A1DA11A48FBF78BFA1A491EA002F002
:109E5000B1FF0D2224A11648FBF72EFA00280AD1E3
:109E6000144A803224A11248FBF77AFA1149803152
:109E700025A002F09FFFC8210D48FBF7B0F908BDEF
:109E80004D5154545F73657474696E675F514D54DE
:109E9000535542333A2020202025730D0A0000003C
:109EA0004D5154545F514D54535542343D000000C0
:109EB000DB1200200B0B00204D5154545F514D54C8
:109EC000535542343D2573004D5154545F736574AE
:109ED00074696E675F514D54535542343A202020C7
:109EE0002025730D0A0000004D5154545F514D540C
:109EF000535542353D0000004D5154545F514D546F
:109F0000535542353D2573004D5154545F7365746C
:109F100074696E675F514D54535542353A20202085
:109F20002025730D0A00000010B50C4800780028A9
:109F300013D00BA002F03EFF0122D2020D490E48C1
:109F400003F0ADF8002805D1044908700BA002F019
:109F500031FF02E00EA002F02DFF10BD2200002014
:109F6000C6F4B6AF464C415348B4E6B4A2A3A10D23
:109F70000A0000008B06002000F80108464C4153FF
:109F800048B4E6B4A2CDEAB1CFA3A10D0A00000007
:109F9000464C415348B4E6B4A2CAA7B0DCA3A10D15
:109FA0000A00000070B57348007800287ED00020B9
:109FB000704908706C247048C07C44436F48026844
:109FC00040680021121948416C490A6048606A489B
:109FD000807920210840002827D00C20684908708B
:109FE0006549087B0A21FBF797F8C117654A136892
:109FF0005268C0185141634A03C25F48C07C0028C0
:10A0000009D06148016840680022891D50415E4ABC
:10A010001160506031E05C48016840680022491CD2
:10A020005041594A1160506027E01E205449087081
:10A030005149087BC117890F09188910CA17514D5A
:10A0400028CDC9186A414F4B06C34B48C07C002835
:10A050000AD04D48016840680F230022C9185041BA
:10A06000494A1160506008E0474802684068002192
:10A07000921C484144490A6048607D22D200002376
:10A080003E4903C9FBF75CF804462007000F02F0C5
:10A0900017FF014638483A30817124092007000F24
:10A0A00002F00EFF014634483A3000E061E04171B1
:10A0B00024092007000F02F003FF01462E483A3022
:10A0C000017124092007000F02F0FAFE01462A4818
:10A0D0003A30C1702B4804682007000F02F0F0FEF0
:10A0E000014625483A30817224092007000F02F00A
:10A0F000E7FE014620483A30417224092007000F4C
:10A1000002F0DEFE01461C483A30017224092007A5
:10A11000000F02F0D5FE014617483A30C1713C22CB
:10A120000023194903C9FBF70BF804462007000F69
:10A1300002F0C6FE014610483A3081732409200718
:10A14000000F02F0BDFE01460B483A30417324096E
:10A150002007000F02F0B4FE014607483A300173B1
:10A1600024092007000F02F0ABFE014602483A30F6
:10A17000C17270BD480100205D2700203001002021
:10A1800049010020380100204001002070B5BB4883
:10A190000078002806D0012811D0022877D00328A3
:10A1A00076D1F2E0B6480078002807D00020B44904
:10A1B00008700120B1490870B24908705BE1B048ED
:10A1C000007800280DD00020AD490870AD48007817
:10A1D000002803D10120AB49087002E00020A94902
:10A1E0000870A9480078002872D00020A64908709D
:10A1F000A448007801286BD10020A2490870A34828
:10A200000088A34988420ADDA0480088A149884205
:10A2100005DA0020A0490860A049086043E09B4897
:10A220000088282816DD99480088782812DA9C488A
:10A2300099490968415C994802780120904081431E
:10A240009748954A1268815494480068401C934985
:10A25000086028E08D4800886E281ADD8B48008849
:10A26000FF211931884214DA8D488B490968405C16
:10A270008A490A780121914008438949864A12682F
:10A28000885486480068401C844908600BE087E0D9
:10A29000F0E084480078002802D083A002F08AFD14
:10A2A0000020764908707D48006807286CD9002096
:10A2B0007A49086078480068401C77490860084679
:10A2C00000681A285FD3002500200860012406E0FA
:10A2D0005AE07348005D401985B2601CC4B2182C66
:10A2E000F7DB6F48007E00026D49497E4018A842A6
:10A2F00045D16B48007948282FD11A2268496E4809
:10A30000FAF754FF05241FE06549085DC117090FDE
:10A3100009180911694A535C611F4900491C664AC2
:10A320001A3253545E49085DC117090F0918091103
:10A330000901411A614A535C611F4900891C5E4A48
:10A340001A325354601CC4B2152CDDDD22205A4948
:10A350008876222158483A30C173962058490870AF
:10A36000FCF7CCFC002806DD032044490870554862
:10A37000FCF7A4FC06E000204049087002E0002041
:10A380003E49087000BF00BF75E04D4800780028C6
:10A3900005D1022039490870012000F09DFD6AE0D6
:10A3A0004948007806281ED006DC030001F063FC53
:10A3B0000613161718191A5F0A2818D006DC072882
:10A3C00012D0082811D0092851D10FE00B280FD046
:10A3D000FE284CD12EE0FCF70DFD49E000BF00BF88
:10A3E00000BF00BF00BF00BF00BF00BF00BF00BF75
:10A3F00036480078030001F03EFC0805060708090E
:10A400000A0B0C1A00BF00BF00BF00BF00BF00BF97
:10A4100000BF2D490978491E2A4A515C2B4A1378FE
:10A4200001229A4011400846FCF738FD00E000BFC9
:10A4300000BF1DE026480088401C254908801948B7
:10A440000078002806D017480078002802D021A004
:10A4500002F0B0FCFCF780F9002000F03DFD002088
:10A4600006490870184908701849087000E000BFD4
:10A4700000BF00E000BF00BF70BD00001901002058
:10A48000090100200D010020080100200A01002020
:10A4900026020000520300001001002014010020D9
:10A4A0004327002000000020B5A5D7DCCFDFBDD3B7
:10A4B000CAD5D2ECB3A300005D27002084F20008C7
:10A4C0000C0100201A0100200E0100200F010020C5
:10A4D00026010020474153D2D1B7A22CBFECCBD9E3
:10A4E000C9CFB1A80D0A000010B500246248007859
:10A4F00005286FD008DC01280FD0022828D00328B7
:10A5000048D0042867D15CE006286BD0072872D0B9
:10A51000082871D0FF28F5D1A4E003F04DFA0028F7
:10A5200015D0564804F056FE5548016855A002F073
:10A5300041FC53480068401C514908605A48028851
:10A5400001210A20FCF7E8FB02204B49087091E04A
:10A55000FF21F53155A002F0EDFC002819D055A0DF
:10A5600002F0BCFC002806D00020534908800320DC
:10A57000414908700DE0504801880088401C4E4A4F
:10A5800010800A2905DD4DA002F014FCFF203A4995
:10A5900008706FE003F044F90446FE2C0BD14A48E2
:10A5A0000078012803D105203349087008E0042011
:10A5B0003149087004E0FF2C02D108202E490870B0
:10A5C00058E003F033FA0446FE2C05D106202A4950
:10A5D000087006E017E04CE0FF2C02D10820264965
:10A5E000087047E003F054FB0446FE2C05D105201B
:10A5F0002149087006E015E023E0FF2C02D1082075
:10A600001D49087036E004F039FB0446FE2C03D1E6
:10A6100007201949087004E0FF2C02D108201649D0
:10A62000087027E004F01CFC0446FE2C03D1042033
:10A630001149087004E0FF2C02D108200E4908706F
:10A6400018E003F043F80446032C02D10A490870CD
:10A6500007E0FF2C05D100201C490870FF200649A7
:10A66000087007E0002014490880012002490870A2
:10A6700000E000BF00BF10BD5D000020B80B00006F
:10A680001000002052657365742D25642D21212151
:10A6900021212121212121212121212121212121AA
:10A6A0002121210D0A0000002601002041540D0A3D
:10A6B000000000004F4B00005E000020CED5CAD63F
:10A6C000CAA7B0DC000000001400002060000020D9
:10A6D00070B572480078002815D000206F490870C6
:10A6E0006F484088401C6E49488008464088098869
:10A6F000884208DD00206A4948806A4800680121D4
:10A700000843684908606848007D684909788842BC
:10A7100078D06548007D00281ED1002419E0A000F3
:10A72000201863494018C078312810D1611C0120DD
:10A7300088405C49096808435A490860A00020180D
:10A740005B4940185BA10A78C27049780171601CAE
:10A75000C4B20A2CE3DD51E05348007D162801D134
:10A7600000243AE05048007D192801D1012434E04A
:10A770004D48007D1C2801D102242EE04A48007D6E
:10A78000202801D1032428E04748007D1F2801D15B
:10A79000042422E04448007D1D2801D105241CE04A
:10A7A0004148007D172801D1062416E03E48007D6F
:10A7B0001B2801D1072410E03B48007D122801D15D
:10A7C00008240AE03848007D112801D1092404E05A
:10A7D0003548007D132800D10A24611C01208840DF
:10A7E0003049096808432F490860A0002018304903
:10A7F000401831A10A78C270497801712A48007D59
:10A800002A4908702D480078002825D12C48047862
:10A810002448006800281FD000BF601CC4B20D2C63
:10A8200000DD0124611E012088401E49096808409E
:10A83000002809D021480470611E01208840194970
:10A8400009688143174801601C480078002803D13B
:10A850001B4800788442E0D11848007800281CD0BA
:10A8600018480078012818D117480078012814D119
:10A8700000201449087015480268104801781448EF
:10A8800002F092F81248FAF7ECFC05462A460B480B
:10A890000178104802F0FCF800BF70BD00010020F4
:10A8A00080000020F40000205D2700202801002007
:10A8B0008E0000203000000031000000F800002071
:10A8C000F9000020FA0000201C000020FC000020FD
:10A8D0002E2500202E26002000BFFEE710B50D22F9
:10A8E0004D494E4801F038FF4DA14B48FAF7C0FCE6
:10A8F000002802D0FCF7AEF88DE0484C40224649D3
:10A90000204601F029FF403440224349403120468F
:10A9100001F022FF403480223F498031204601F07F
:10A920001BFF803480224249204601F015FF80340D
:10A9300080223F498031204601F00EFF8034802282
:10A940003C49204601F008FF80348022394980319B
:10A95000204601F001FF803480223749204601F073
:10A96000FBFE8034802234498031204601F0F4FE21
:10A97000803480223149204601F0EEFE803480226E
:10A980002E498031204601F0E7FE803480222C4998
:10A99000204601F0E1FE80342AA002F00BFA1E49A5
:10A9A0002DA002F007FA2EA002F004FA33A002F064
:10A9B00001FA1949403138A002F0FCF916498031FA
:10A9C00039A002F0F7F91A4980313CA002F0F2F9FF
:10A9D000184980313EA002F0EDF9164941A002F07D
:10A9E000E9F9134944A002F0E5F9134947A002F040
:10A9F000E1F9114980314AA002F0DCF90F494DA07C
:10AA000002F0D8F90D4980314FA002F0D3F90C497A
:10AA100052A002F0CFF910BD8B06002000F801080B
:10AA200048656C6C6F20576F726C642100000000E9
:10AA30008B0700208B0800208B0900208B0A002048
:10AA40008B0B0020B6C1C8A1464C415348CDEAB19A
:10AA5000CFA3A10D0A00000025730D0A000000001D
:10AA60002A2A2A2A2AD3B2BCFEB0E6B1BE56312E1B
:10AA7000302E302A2A2A2A2A0D0A00002A2A2A2AB7
:10AA80002AC8EDBCFEB0E6B1BE56312E302E302ABB
:10AA90002A2A2A2A0D0A0000696F74436F6465A38D
:10AAA000BA25730D0A000000436C69656E74496431
:10AAB0003A2020202025730D0A0000004D71747487
:10AAC000486F737455726C3A2025730D0A000000AC
:10AAD000506F72743A202020202020202025730DF2
