:020000040800F2
:1050000078230020D15000086583000881810008C2
:105010000000000000000000000000000000000090
:10502000000000000000000000000000698300088C
:10503000000000000000000067830008D183000822
:10504000E350000800000000E3500008E3500008AF
:10505000E3500008E3500008E35000080959000835
:1050600000000000E3500008E3500008E35000088F
:10507000E350000861840008E350000800000000CD
:10508000E3500008E3500008E3500008E350000834
:10509000E3500008E3500008E3500008E350000824
:1050A000E3500008E3500008E35000081D8C00089E
:1050B000798C0008D18C00080448854600F0EEFA8F
:1050C000004800475D9F0008C046C0467823002086
:1050D0000448804704480047FEE7FEE7FEE7FEE796
:1050E000FEE7FEE751840008B950000830B50B46D2
:1050F000014600202022012409E00D46D5409D42B2
:1051000005D31D469540491B254695404019154637
:10511000521E002DF1DC30BD03460B439B0703D02C
:1051200009E008C9121F08C0042AFAD203E00B786C
:105130000370401C491C521EF9D27047D2B201E0E4
:105140000270401C491EFBD270470022F6E710B5E2
:1051500013460A4604461946FFF7F0FF204610BDE5
:10516000421E5378521C002BFBD10B781370491C44
:10517000521C002BF9D1704730B505462A460B4624
:1051800010781C78521C5B1C002801D0A042F7D07C
:10519000002C03D0002802D06D1CEFE7284630BD5C
:1051A000421C0178401C0029FBD1801A704710B5C1
:1051B000002200E0521C835C8C5CA34201D1002BD6
:1051C000F8D1D8B2E1B2401A10BD03460A78027095
:1051D000401C491C002AF9D11846704730B50546D5
:1051E0000020034600E05B1C934205D2EC5CC85CE7
:1051F000201A01D1002CF6D130BD0321001D401E24
:10520000037812021A43491EF9D510467047034627
:1052100003220870000A491C521EFAD5184670472E
:1052200070B5064603F0E8FD046805460A22002131
:10523000304600F033F82C6070BDF0B51FB4064660
:10524000002082B005464024019100901BE00199A6
:1052500022460F46304600F043FA049A059B801A16
:10526000994110D310461946224600F029FA361A01
:105270008F410197224601200021009F00F020FA73
:1052800038184D4100902046641E0028DFDC019B49
:1052900000982946324607B0F0BD0000F7B5009CE3
:1052A0000F4600262578641C002D05D000F03CFA3E
:1052B0000068405DC007F5D12B2D02D02D2D18D0F0
:1052C000641E39462046029A00F032FA002F04D0BC
:1052D0003968A14201D10099396071050224002981
:1052E0000BDA4042002803DD03F086FD0460A007CE
:1052F000FEBD012080020643E3E70028F8DA03F050
:105300007BFD04600048FEBDFFFFFF7FF0B5074650
:105310000846584087B0C00F049048000E46590018
:1053200040084908BC1A884105D2384631461E4615
:1053300017460B4602465800400810434DD0300D2A
:10534000039040055900400D490D0590401A029008
:10535000402873DA18030121000B09050843019066
:1053600004980092002806D01146019A4942002074
:10537000904100910190029840210A1A01990098E9
:1053800000F09EF905460C466B4607CB00F0B9F9D4
:10539000C0197141039A0E0D0023D71756401A46C3
:1053A0007A40164344D0049A002A2DD0029A012A4A
:1053B000039A15DC1205C01A914101263605001C1E
:1053C0007141D20F059ED2070093019202962A46A0
:1053D000234600F00DFA07B0F0BD38463146FAE733
:1053E0001605234A0F46B218C01AB7410121090514
:1053F000001C4F4100187F41114618187941E20FF7
:1054000010436D19644113E0E2076D081543640809
:10541000C2071443039A01261205C01A91413605AA
:10542000001C7141CE07400830434908C018514163
:105430002A46234600F0CFF9CDE7FFE70498012282
:105440004000C117121A00238B4104983146C4173B
:10545000381AA141EEE730B40124E407634030BCC0
:1054600054E730B40124E407614030BC4EE700004B
:105470000000E0FFF0B51FB488B00B990998002434
:1054800048400999C00F490049080991C0070B9984
:105490000090490049080B9109990898A6460843CD
:1054A0001CD00B990A98084318D009980124400091
:1054B000420D4800410D099824050003000B2043CC
:1054C00009900B980003000B20430B9050181C49C7
:1054D0004018002201901446104605E000200146C5
:1054E0000DB0F0BD032801DA034600E003239C461B
:1054F000C11A0AAE0AE05F0008ADED5B4F00F75B32
:105500007D430027AA187C41491C5B1E6145F2DDE2
:10551000410004AB5A522104120C0A43240C401CD3
:105520000828DFDB019802900099704601910090F5
:10553000059B049A0799069800F05AF9D0E70000F5
:105540000DFCFFFFF0B50C465C4085B0E40FE407AE
:1055500003944C000026640859009446490802460A
:105560000296224321D062460A431ED06200570DA4
:105570004A000E032303550D012402462C4924053D
:10558000781B1B0B360B40182343264361460090C3
:105590001C46501AB44103D30098401C009002E00E
:1055A000921800985B41002803DA0020014605B0FC
:1055B000F0BD0020012109050746864611E064463A
:1055C0001D46141BB54106D36546521BB3417446B4
:1055D00007430C43A646CD074008490828439218C4
:1055E0005B4105460D43EAD11046184313D060468F
:1055F000194650407140084306D06046101AB34126
:1056000006D20122002306E000220123DB0702E08C
:105610000122D2435310009874460105381C6141A1
:10562000029C039D0019694100F0D5F8BFE7000016
:10563000FD0300004A0009030123090B1B05194360
:105640000A4B10B5520D9A4202DA0020014610BDF5
:10565000064B34339A4203DC9A1A00F041F810BD2D
:10566000034BD21800F02CF810BD0000FF0300001F
:10567000CDFBFFFF10B5002904DB0124E407404205
:105680008C412146002B04DB1C460123DB075242E0
:10569000A341994200D1904210BD0000064C012563
:1056A000064E05E0E36807CC2B430C3C98471034CA
:1056B000B442F7D3FFF704FDF0AA000810AB0008CE
:1056C00010B5202A04DB0146203A9140002010BD8D
:1056D000914020239C1A0346E3401943904010BD9B
:1056E00010B5202A04DB0846203AD040002110BD26
:1056F0000B46D340D0402024A21A914008431946BB
:1057000010BD10B5202A06DBCB170846203A104101
:10571000C1170B4306E00B461341D0402024A21AC8
:1057200091400843194610BD0048704758AA000828
:10573000F7B582B0029C00272078641C15460197BB
:10574000302802D0002D15D015E020780127641CE8
:10575000782804D0582802D0002D09D00BE0002D65
:1057600001D0102D07D1002710252078641C02E0FD
:10577000082500E00A250026009610E00099012780
:1057800069430818020C294680B2714300908E18B4
:105790003804864201D3012001902078641C2946F8
:1057A00000F078F80028E9DA0398002805D0002FE7
:1057B00001D0641E00E0029C04600198002806D01D
:1057C00003F01AFB02210160C81E05B0F0BD00996C
:1057D00030040843F9E710B5002B08DA0024401C18
:1057E000614192185B411A4301D14008400010BD4D
:1057F000F0B51FB482B005460C0003D0084603F094
:10580000B5FA02E003F0B2FA2030024600902146D9
:105810002846FFF755FF049B059A04460F46184398
:105820001143084314D0184610431BD00098402160
:105830000A1A18460599FFF753FF05460E46009AC7
:1058400005990498FFF73CFF084305D0012004E0C8
:105850002046394607B0F0BD0020C11705430E436E
:105860002C43374300990E986305401A7905E40AE2
:1058700000220C43FD0A0A3002D500200146E9E768
:105880000105101969410C9C0D9D00196941FFF734
:10589000A2FFDFE73A2800D23038202302469A439D
:1058A000412A01D310463738884201D30020C04333
:1058B000704770B58C180578401C6B075B0F01D1E1
:1058C0000378401C2A1106D10278401C03E00678B8
:1058D0000E70401C491C5B1EF9D12B0705D4002318
:1058E000521E0DD40B70491CFAE70378401CCB1AEA
:1058F000921C03E01D780D70491C5B1C521EF9D5EB
:10590000A142D8D3002070BD10B501246403214604
:10591000054800F0B3FA002802D1044901200870BC
:10592000204600F0FBF910BD0004005044000020A8
:105930007047000002484169024A114341617047C3
:105940000020024004000100054A5169FF23F93399
:105950009943C00008430349084350617047000061
:10596000002002400200010030B505494C690125C4
:105970002C434C610260BFF36F8F436030BD000069
:105980000020024030B50B4C002362690125AD04B4
:105990002A436261EFF3108272B620C95B1C20C0FB
:1059A000DBB2402BF9D32069C003FCD482F310880A
:1059B00030BD00000020024070B5054600F070FACE
:1059C0004619174C03E000F06BFAB0421FD2206971
:1059D000C043C003F7D5216912480140401C206133
:1059E000A26901208007024003D0A0691043A06192
:1059F0001143002903D00C484160012070BD00F024
:105A00004FFA451905E000F04BFAA84201D30320F4
:105A100070BD2069C0434003F5D5002070BD000073
:105A200000200240FA83000020190020F8B50F463C
:105A30001A4C110AA170E27020710A380025FEB2DA
:105A4000030003F0AAF9160C1C1C1C1C1C1C1C1CBB
:105A50001C1C0E0E0E0E0E0E0E0E0E1C161C66716B
:105A60000DE0012002F020FE4B200D49C00008602F
:105A7000F5E764213846FFF739FB6171A071012019
:105A8000215C401C4D190928FAD3280A6072034989
:105A90000120A57238394870F8BD00007800002058
:105AA0006001002070B5124C0121E5790022490304
:105AB0001048002D06D023469B78012D05D0022DDD
:105AC00013D10CE0A270002203E03F2B06D3A2709A
:105AD000012200F0DFF9E079401CE07170BD072B76
:105AE000FCD32261E068401CE060E27170BD000000
:105AF0004000002000040050F8B51C4C064600256C
:105B0000E779012149031A482A46002F08D0234685
:105B10009B78012F07D0022F14D0E2712846F8BDE0
:105B2000A270002208E0002E02D0152B02D2F5E769
:105B3000072BF3D3A270012200F0ACF9E079401CEE
:105B4000E071EBE7072BE9D32069072802D2401C5C
:105B5000206107E02261E0680B2801D2401C00E0D0
:105B6000FE20E0601046E271F8BD00004000002019
:105B700000040050F8B501460024203101220A71CA
:105B80004B79022B03D00421C16301242DE003686B
:105B90001D680E26B5431D6003681D686D086D0005
:105BA0001D60436C1D68FF260136B5431D60104B18
:105BB0005D68066C1C273E401746B7403D435D605C
:105BC000836CC56C5D60036D002B07D01E68FF25DC
:105BD0000135AE431E60436D856D5D604A710022E4
:105BE0000A71816B002900D088472046F8BD00006B
:105BF00000000240F8B51D4D064628780F460128E2
:105C00000AD001202870002068607D20C000FFF7C6
:105C1000D3FE002802D026E00220F8BD3168042916
:105C200004D00021C9433960746812E0FFF782FE96
:105C30007D20C000FFF7C0FE15E02046FFF784FE80
:105C40007D20C000FFF7B8FE002801D03C6005E0D1
:105C5000641CB26871688918A142EED804494A6987
:105C600002239A434A6100212970F8BD20190020BF
:105C700000200240054901204A69C3071A434A61CE
:105C80004969002900DA0020704700000020024026
:105C9000F0B51FB4144C06462078154601280AD0EA
:105CA0000120207000277D20C0006760FFF784FE80
:105CB000002803D010E0022005B0F0BD012E0DD069
:105CC00029460198FFF75EFE7D20C000FFF774FEB5
:105CD00006494A69B2434A612770EDE72A46039BA9
:105CE0000198FFF741FEEFE7201900200020024055
:105CF000064900204A69002A07DA054A8A60054AEF
:105D00008A604969002900DA0120704700200240BA
:105D100023016745AB89EFCD7047000070B5084D92
:105D20000446E868204203D0EC60204600F00AF800
:105D30002869204203D02C612046FFF7EDFF70BD9B
:105D40000018024070470000F0B5002388E00122EF
:105D50009A409446144022007ED04C68022C01D018
:105D6000122C0CD1DC08A40027183C6A5D07ED0E4C
:105D70000F26AE40B4430E69AE4026433E6205682E
:105D80005E000324B4400F79A543BF07BF0FB7409F
:105D90002F4307604D68012D05D0022D03D0112D32
:105DA00001D0122D0ED18568CF68A543B7402F438F
:105DB000876047686546AF430D79ED06ED0F9D405E
:105DC0003D434560C568A5438C68B4402C43C4601E
:105DD0004C68E40043D59D08244CAD002F193C6E5F
:105DE0009D07EE0E0F25B540AC4305252D07A842B3
:105DF00001D100250FE01E4DA84201D101250AE086
:105E00001C4DA84201D1022505E01B4DA84201D13D
:105E1000032500E00525B5402543144C3D66134D90
:105E200080352E684F689643FF0300D516432E60D9
:105E30006E684F689643BF0300D516436E602568B1
:105E40004E689543F60200D51543256065684E6897
:105E50009543B60202D500E001E0154365605B1C86
:105E60000A681446DA4000D071E7F0BD001802401D
:105E70000004005000080050000C00500069084069
:105E800000D00120704742690A4201D08162704708
:105E900081617047002A01D081617047816270473B
:105EA00001488068704700001000002070B50400B1
:105EB0000FD021681348086021681348086003CC9C
:105EC00041602068083C21688860FFF7E9FF0546CB
:105ED00008E0012070BDFFF7E3FF401B302801D927
:105EE000032070BD2068C0680028F4D120680269D2
:105EF000E1688A4201D0016101E0044901600020AB
:105F000070BD0000CCCC000055550000AAAA0000CE
:105F1000006802490160002070470000AAAA000042
:105F2000024881684268891881607047100000202B
:105F300010B508480024016882151143016020460D
:105F400000F00AF8002801D0012401E000F028F850
:105F5000204610BD0020024070B50F4E002471682D
:105F60000546002915D07D20C000FFF7BFF8014687
:105F70000A480068FFF7BAF800F022FC002808D1B0
:105F8000042D06D200222946401E00F03FF835605D
:105F900000E00124204670BD100000201C000020FD
:105FA00008B50B48016801221143016000681040E8
:105FB000009007484038C26B01040A43C263C06BBB
:105FC000084000900320400200F0F0FB08BD0000F4
:105FD00040100240002809DBC106C90E012088409C
:105FE00003490860BFF34F8FBFF36F8F7047000006
:105FF00080E100E0002805DBC106C90E01208840D1
:10600000014908607047000000E100E010B502F0AF
:10601000D1FE10BD10B50F4C2168032252029143EE
:1060200001432160C11FFF39FA390ED10A48062108
:10603000006848430949FFF759F8401C02E000286E
:1060400005D0401E61694905F9D4002010BD032028
:1060500010BD0000007000401C00002040420F00F6
:10606000F8B5044600680026524D800358D55148C3
:1060700000274038C06BC00009D44E484038C26B7E
:1060800001040A43C263C06B0840012700904A48DC
:106090000168821511430160FFF702FF009005E0DF
:1060A000FFF7FEFE0099401A022825D842480068F2
:1060B000C005F5D5E8690321090208400FD0A169A0
:1060C00081420CD0E86903210902EA698843012171
:1060D00009040A43EA61EA698A43EA61E861C007A0
:1060E0000FD0FFF7DDFE009008E0FFF7D9FE009922
:1060F000411A3248814201D9032609E0E869800744
:10610000F3D5E869032109028843A1690843E861DE
:10611000002F05D027484038C16B02049143C1636A
:106120002078C00705D0686961688008800008434E
:1061300068612078800705D568690C218843A168CB
:10614000084368612078400606D568690321090381
:106150008843E168084368612088400411D5686974
:1061600061698000800808436861012160698907CE
:10617000884206D10F484038C168012212041143F9
:10618000C1602088000512D568690321890388430E
:10619000216908436861012120698903884206D189
:1061A00004484038C168012212041143C1603046DE
:1061B000F8BD00004010024000700040881300004D
:1061C000F8B50F46060043D04D4D28684007400FF4
:1061D000B84213D22868C008C00038432860FFF7CF
:1061E0005FFE044605E0FFF75BFE011B4548814268
:1061F00061D828684007400FB842F4D13068424C5B
:1062000081070DD5400704D5A0680721090308437D
:10621000A060A0680F2109028843B1680843A0600C
:106220003078C00732D0706801280AD002280BD01D
:1062300000280FD03449403103280ED0C96989079E
:1062400004E02168890301E021688901002906DB57
:106250000120F8BD21684905F8E7096AEFE7A16860
:10626000C908C9000143A160FFF71AFE009006E0CB
:10627000FFF716FE0099411A224881421BD8A068F8
:10628000382108407168C9008842F1D12868400768
:10629000400FB84217D91A480168C908C9003943E4
:1062A0000160FFF7FDFD054607E0FFF7F9FD411B23
:1062B0001448814201D90320F8BD11480068400705
:1062C000400FB842F1D13078400706D5A0680721C9
:1062D00009038843F1680843A06000F031F8A16821
:1062E0003C2289091140094A515CC906C90EC840BF
:1062F0000749086007480068FFF72EFEF8BD000058
:1063000000200240881300000010024064A9000829
:106310001C0000201000002006480749006889681A
:10632000064A4904490F8900515CC906C90EC84094
:10633000704700001C00002000100240A4A90008C3
:1063400010B5204CA068204A8006400F16D0A068E7
:106350008006410F501001290FD0A1688906490F0E
:10636000022912D0A0688006400F042823D0A0681C
:106370008006400F032821D0002010BD2068012195
:106380008004400F8140104612E0E1688B07E1680D
:106390009B0F4906490F491C032B00D01046FEF7FE
:1063A000A5FEE1684904490E4843E168490F491CCC
:1063B000FEF79CFE10BD0120C00310BD7D20000231
:1063C00010BD0000001002400024F400F8B50400E5
:1063D0007ED020783827C007EB4D002846D0A8682B
:1063E000E96838408907890F102802D008280BD0A7
:1063F00001E0032908D001206268000482420AD12A
:1064000029680143296015E0286880032ED560685B
:106410000028DDD02AE0052301211B0489049A42CB
:106420002A6802D10A432A60EAE782432A60286880
:1064300088432860606800280CD0FFF731FD0646CD
:1064400004E0FFF72DFD801B642873D828688003C3
:10645000F7D50BE0FFF724FD064604E0FFF720FD2B
:10646000801B6428F1D828688003F7D4207880073F
:1064700069D5A868E96838408A070721920FC902E0
:10648000102802D0002813D001E0022A10D0E068C2
:10649000002846D028688843216908432860286876
:1064A000FF21013108432860FFF7FAFC06462CE083
:1064B0002A68520502D5E268002A89D06A687F23DB
:1064C0001B029A4363691B021A436A60002800E0BA
:1064D0008DE00ED128688843216908432860286828
:1064E00001218004400F8140A848FEF7FFFDA84924
:1064F0000860A8480068FFF72FFD002877D122E048
:10650000FFF7CEFC801B02289FD828684005F7D5EE
:1065100068687F210902884361690902084368604D
:1065200011E02968FF20013081432960FFF7B8FCA2
:10653000064605E098E0FFF7B3FC801B022884D8EC
:1065400028684005F7D42078934E00072ED5A86818
:106550008006400F03280AD0A0690028306A16D0B0
:10656000012108433062FFF79BFC07460BE0306ACD
:1065700080071BD5A06900289FD017E0FFF790FC8B
:10658000C01B022870D8306A8007F7D50EE040089B
:1065900040003062FFF784FC074604E0FFF780FC10
:1065A000C01B022860D8306A8007F7D420784007E3
:1065B0006CD5A86800278006400F042818D0E86B27
:1065C000C00008D4E96B012000070143E963E96BCF
:1065D00001400127009171480168C90519D401687B
:1065E000821511430160FFF75BFC00900DE083E032
:1065F000F06980074AD5A06800287DD046E0FFF703
:106600004FFC0099401A02282ED864480068C00543
:10661000F5D5A168012910D004200529F16911D010
:1066200049084900F161F1698143F161A0680028DE
:1066300016D0FFF735FC00900EE0F0690121084309
:10664000F061F3E70143F161F7E7FFF729FC0099F7
:10665000411A534881426DD8F0698007F5D50EE0A4
:10666000FFF71EFC009007E064E0FFF719FC0099BB
:10667000411A4B4881425DD8F0698007F5D4002F5C
:1066800004D0E96B012000078143E963E069002839
:1066900077D0A9688906490F022951D0012636060C
:1066A000022828680DD0B0432860E8688008800080
:1066B000E860E8683B490840E860FFF7F1FB044602
:1066C0003AE0B0432860FFF7EBFB074604E0FFF732
:1066D000E7FBC01B02282DD828688001F7D4616A27
:1066E000206AA26A0843E16A120211430843216B3F
:1066F0000843E9682C4A00E041E011400843E860A3
:10670000286830432860E868012109070843E860E9
:10671000FFF7C6FB044604E0FFF7C2FB001B02289C
:1067200008D828688001F7D52BE0FFF7B9FB001BDC
:10673000022801D90320F8BD28688001F5D420E0A3
:106740000128F8D0E868226A8107890F914216D1A2
:106750007021626A0140914211D17F21A26A09022F
:106760000140120291420AD11F214904E26A01400C
:10677000914204D1400F216B4007884201D0012093
:10678000F8BD0020F8BD0000001002400024F40015
:106790001C0000201000002040100240007000404B
:1067A00088130000FFFFFEEF8C80C11F03490A68B9
:1067B00003235B029A4302430A60704700000140D2
:1067C000094910B5401E884201D9012010BD074C6F
:1067D00060610321081F02F0EDFA0020A06107208C
:1067E0002061002010BD0000FFFFFF0000E000E07E
:1067F000704770477047000070B5034620331A7F1A
:10680000012A4BD001221A770325CA682D02AA4318
:106810008D6800682A430125AD02AA434D68002413
:106820002A430125ED02AA430D682A4301252D03C1
:10683000AA430D692A4301256D03AA434D692A43E2
:106840000125AD03AA430D6B2A430F252D04AA434E
:106850000D8B2D042A43124DA84204D10126360780
:10686000B243CE693243A84214D10F252D05AA4365
:106870000D8D2D052A4301252D06AA430D6A2A43B5
:1068800001256D06AA434D6AC96A2A4301256D0791
:10689000AA430A4342641C77002070BD022070BDE9
:1068A000002C0140F0B5034620331A7F012A1ED088
:1068B00001271F7702225A7704686268A5680D4E87
:1068C000B44205D116460F22120596434A68324358
:1068D0007026B2430E688968164380229543294387
:1068E0006660006881605F7700201877F0BD022045
:1068F000F0BD0000002C014070B5040005D0254615
:106900002035687F002802D006E0012070BD0020FD
:106910002877204600F00AF802206877211D2068B9
:1069200001F044FE01206877002070BD08B50068C2
:106930000549884207D105480268C1140A4302602C
:1069400000680840009008BD002C01404010024043
:106950000168CB6801221343CB6000688168064B55
:106960001940062905D01304994202D00168114349
:1069700001600020704700000700010070B5054667
:1069800004462035287F012817D001262E770220C3
:106990006877226890682E4B1840FF231B029843AB
:1069A00090600A68502A32D00EDC202A4CD006DCD7
:1069B000002A49D0102A3BD146E0022070BD302A7F
:1069C00042D0402A34D137E0602A28D0702A12D031
:1069D00001200003121A2BD0824229D1CB684A68C9
:1069E0008968206801F026FE2068816801229203F0
:1069F000114381601CE0CB684A688968206801F017
:106A000019FE2168886877221043886010E0CA6800
:106A10004968206801F024FE5021206806E0CA6819
:106A20004968206801F02DFE6021206801F00EFE0B
:106A30006E770020287770BDCA684968206801F029
:106A40000FFE40212068F1E711462068EEE70000C4
:106A500088FFCEFF7047000070B5044600680169EA
:106A60000025C9438907002915DBC168C943890787
:106A700011D4E91E01610120207720688069800718
:106A8000204602D0FFF7E6FF04E000F0A7F820461A
:106A900000F0A5F8257720680169C943490717D494
:106AA000C168C943490713D40421C94301610220C5
:106AB0002077206880698005800F204602D0FFF78C
:106AC000C9FF04E000F08AF8204600F088F8257736
:106AD00020680169C943090716D4C168C943090779
:106AE00012D40821C9430161042020772068C069BD
:106AF0008007204602D0FFF7ADFF04E000F06EF8FB
:106B0000204600F06CF8257720680169C943C90662
:106B100017D4C168C943C90613D41021C943016100
:106B2000082020772068C0698005800F204602D0A9
:106B3000FFF790FF04E000F051F8204600F04FF816
:106B4000257720680169C943C90708D1C168C943CD
:106B5000C90704D1891E0161204600F041F8206870
:106B60000169C943090609D4C168C943090605D4A6
:106B70008021C94301612046FFF73BFE206801697F
:106B8000C943C90508D4C168C943090604D41249D8
:106B900001612046FFF72CFE20680169C9434906C0
:106BA00009D4C168C943490605D44021C9430161DC
:106BB000204600F016F820680169C943890609D407
:106BC000C168C943890605D42021C9430161204613
:106BD000FFF710FE70BD0000FFFEFFFF704770471B
:106BE0007047704730B5014660310A7F012A18D0DE
:106BF00001220A7724230246803214461360036878
:106C00001A681D686D086D001D6001235B079A43BB
:106C10000023436600680260202020600B7718463E
:106C200030BD022030BD7047F8B5054604466035DA
:106C3000287F01281DD0012028772422204680307B
:106C40000746026020680668026852085200026027
:106C50002068826807235B069A430A4382602046C5
:106C600001F03CFD20680660202038600020287775
:106C7000F8BD0220F8BDF8B5054604466035287F0A
:106C800001281CD001202877242220468030074686
:106C9000026020680668026852085200026020689C
:106CA0008268D200D2080A438260204601F016FDB5
:106CB000206806602020386000202877F8BD022078
:106CC000F8BD704770477047F8B503680446DA6945
:106CD0001868996816072546360F8035002E60D053
:106CE000584EFF2721370E400740374372D0D70751
:106CF00006D0C70504D501271F62AB683B43AB60D4
:106D0000930708D5CB0706D0276802233B62AB6800
:106D100004273B43AB60530708D5CB0706D0276851
:106D200004233B62AB6802273B43AB60130709D5E2
:106D300020230340334305D0266808233362AE681E
:106D40001E43AE60AB68002B38D092060AD52022D5
:106D50001040D2051140084304D0E16E002901D053
:106D600020468847A86821688968490601D4000739
:106D700029D5204601F084FD2068816849061ED58A
:106D8000826840218A438260A06F002817D02E4974
:106D90008163A06FFEF7EEFE00280FD0A06F816B1D
:106DA0000BE0960616D5012720263F0706400F4028
:106DB0003E430FD0E16E22E020468847F8BD2046D2
:106DC000FFF781FFF8BD2046FFF77DFF0020A86098
:106DD000F8BDFFE7D60208D54E0206D50120000512
:106DE00018622046FFF76EFFF2E716060AD5012764
:106DF0008026FF05064039400E4303D0216F00294D
:106E0000DAD1E5E751060DD541060BD51A682046C3
:106E100040218A431A60202129600021216700F067
:106E200041F9D5E7110205D5410003D52046FFF70A
:106E300048FFCDE7D101CBD50028C9DA2046FFF7BE
:106E4000F2FEC5E7010000106D88000870B504006F
:106E500006D02046803005460068002802D007E0B2
:106E6000012070BD00217C200155204600F026F84D
:106E700024202860206801684908490001602046F4
:106E800001F012FD0128ECD0A06A002802D02046B3
:106E900001F054FC206841680922D202914341600C
:106EA000206881682A22914381602068016801225C
:106EB00011430160204601F0A7FC70BDF0B587B01A
:106EC000044614216846FEF740F92468384E052030
:106ED00000223849012302250007B4421FD1354C56
:106EE000403427689E033743276024683440059464
:106EF0004C6B1C434C63496B029219400591032172
:106F0000490200910195049303926946FEF71CFF24
:106F1000002201211B20FFF779F81B2020E0264EDC
:106F2000B44221D1CE6B012464042643CE63CE6BE0
:106F3000264005964C6B1C434C63496B0292C90773
:106F4000C90F05910E2100910195049303926946A2
:106F5000FEF7FAFE002202211C20FFF757F81C2042
:106F6000FFF748F807B0F0BD14488442FAD1CB6B64
:106F7000012080040343CB63CB6B03400593486B34
:106F800028434863486B0292284005900320000282
:106F90000090042004900195039269460848FEF78A
:106FA000D3FE002203211D20FFF730F81D20D7E774
:106FB00000380140001002400044004000480040FA
:106FC00000040050FFB5074604468037386885B096
:106FD0000D46202864D1002D0CD00798002809D038
:106FE0000120A1680003814207D12069002804D153
:106FF000E80702D0012009B0F0BD204660300290C1
:10700000007F01284CD00298012101770020B86050
:1070100021203860FEF744FF01902646403607984D
:10702000B0820798F0820120A1680003814202D15A
:107030002069002802D00395002515E00020039068
:1070400012E000228021204601F0B4FD002818D172
:107050000398002817D02168007888620398401CA4
:107060000390F08A401EF082F08A019B0028089865
:107070000090E6D100224021204601F09BFD00282F
:1070800008D00320B7E728882168C005C00D8862B2
:10709000AD1CE6E720203860029900200877AAE7B7
:1070A0000220A8E770470000F0B5CF4889B04179C9
:1070B00000790A0202430121CC4889024118039158
:1070C0000721C901411802910321090241180191C8
:1070D0000521C90141180891C11DFF31FA310791FD
:1070E000803906910146FF308031013005910490CE
:1070F000002A29D1BD49BEA001F014FEBEA001F0B6
:1071000011FEC4A001F00EFEC9A0059901F00AFE0F
:10711000CCA0069901F006FECFA0089901F002FE6E
:10712000D2A0079901F0FEFDD5A0049901F0FAFD67
:10713000D8A0019901F0F6FDDBA0029901F0F2FD63
:10714000DEA0039901F0EEFDE1480178002979D035
:1071500000250570A448DFA1801DFEF728F8E04F48
:10716000002804D1002116203A68FEF75FFC9E48F3
:10717000DCA1801DFEF71BF8002804D10121162098
:107180003A68FEF753FC9848D9A1801DFEF70FF826
:10719000CF4C0126E41C002809D12078002802D019
:1071A0002570D7A001E02670DAA001F0BBFD8E4863
:1071B000DDA1801DFDF7FBFF002804D1DE491F2063
:1071C0003A68FEF733FC8848DCA1801DFDF7EFFF2D
:1071D000002807D08448DDA1801DFDF7E8FF0028C6
:1071E00009D012E0BFF34F8FDD49DC48C860BFF320
:1071F0004F8F00BFFDE76078002802D06570D9A0EE
:1072000001E06670DCA001F08DFD7748DFA1801DF4
:10721000FDF7CDFF002809D1A078002802D0A57085
:10722000DCA001E0A670E1A001F07CFD6E48E4A1C5
:10723000801DFDF7BCFF002806D1E078002802D0B1
:10724000E57001E0CDE0E6706748DFA1801DFDF745
:10725000AEFF002807D1DE48017D002901D0057569
:1072600001E0162101756048DAA1801DFDF79FFF3E
:10727000002801D1DA4806705B48DAA1801DFDF7CD
:1072800096FF002801D102F0CBFB57480E22D9A16E
:10729000801DFDF7A3FF544C143400280BD180212E
:1072A0000498FDF752FF21460498FDF759FFD5A039
:1072B000049901F037FD4C480E22DAA1801DFDF73C
:1072C0008DFF00280BD180210598FDF73EFF214658
:1072D0000598FDF745FFD7A0059901F023FD424829
:1072E0001122DCA1801DFDF779FF00280CD180213F
:1072F0000698FDF72AFF3C4906981731FDF730FF45
:10730000D9A0069901F00EFD37480C22DFA1801D9F
:10731000FDF764FF00280CD180210798FDF715FFC9
:10732000314907981231FDF71BFFDCA0079901F0E6
:10733000F9FC2D480A22E1A1801DFDF74FFF00282E
:107340000CD180210898FDF700FF274908981031DB
:10735000FDF706FFDCA0089901F0E4FC22480D22AD
:10736000E0A1801DFDF73AFF1F4C133400280BD11C
:1073700080210198FDF7E9FE21460198FDF7F0FE16
:10738000DCA0019901F0CEFC17480D22E1A1801D7F
:10739000FDF724FF00280BD180210298FDF7D5FED0
:1073A00021460298FDF7DCFEDEA0029901F0BAFC4E
:1073B0000D480D22E3A1801DFDF710FF00280BD121
:1073C00080210398FDF7C1FE21460398FDF7C8FE12
:1073D000E0A0039901F0A6FC0348C821801DFDF739
:1073E000B4FE09B0F0BD00007A1900202011002081
:1073F00025730D0A000000002A2A2A2A2AD3B2BCCB
:10740000FEB0E6B1BE56312E302E302A2A2A2A2A64
:107410000D0A00002A2A2A2A2AC8EDBCFEB0E6B1CD
:10742000BE56312E302E302A2A2A2A2A0D0A000072
:10743000436C69656E7449643A2020202025730DE1
:107440000A0000004D717474486F737455726C3A81
:107450002025730D0A000000506F72743A2020201E
:10746000202020202025730D0A0000005061737336
:1074700077643A20202020202025730D0A00000088
:10748000557365726E616D653A2020202025730D5D
:107490000A000000514D54535542313A202020201B
:1074A0002025730D0A000000514D54535542323AC5
:1074B000202020202025730D0A000000514D545338
:1074C0005542333A202020202025730D0A00000069
:1074D00020000020676173705F636C6F73656400E8
:1074E00048000020676173705F6F70656E00000078
:1074F00064656275675F476173706F7765720000DE
:10750000B1DAB9D2C2AFD0C5CFA2B4F2D3A12D4F58
:1075100046460000B1DAB9D2C2AFD0C5CFA2B4F2AC
:10752000D3A12D4F4E0000005265616C74696D65EA
:107530005F53657400000000E10500007379737407
:10754000656D5F5253543D31000000006465627503
:10755000675F45433630304E000000000400FA05F6
:1075600000ED00E045433630304ED0C5CFA2B4F236
:10757000D3A12D4F4646000045433630304ED0C58E
:10758000CFA2B4F2D3A12D4F4E0000004761734348
:107590006F737400C8BCC6F8BBFDCBE3D0C5CFA2E7
:1075A000B4F2D3A12D4F464600000000C8BCC6F877
:1075B000BBFDCBE3D0C5CFA2B4F2D3A12D4F4E007B
:1075C0004D515F73656E6400544553545F455200DE
:1075D000A1000020666C6173685F736176650000CE
:1075E0000C000020666C6173685F466163746F72A3
:1075F000790000004D5154545F757365726E616D72
:10760000653D00004D5154545F73657474696E6735
:107610005F757365726E616D653A20202020257359
:107620000D0A00004D5154545F636C69656E7449D6
:10763000643D00004D5154545F73657474696E6706
:107640005F636C69656E7449643A2020202025735D
:107650000D0A00004D5154545F6D717474486F737E
:107660007455726C3D0000004D5154545F73657445
:1076700074696E675F6D717474486F737455726C62
:107680003A2020202025730D0A0000004D5154544B
:107690005F7061737377643D000000004D51545476
:1076A0005F73657474696E675F7061737377643A52
:1076B0002020202025730D0A000000004D51545455
:1076C0005F706F72743D00004D5154545F73657468
:1076D00074696E675F706F72743A20202020257382
:1076E0000D0A00004D5154545F514D5453554231D1
:1076F0003D0000004D5154545F73657474696E67AA
:107700005F514D54535542313A2020202025730DAE
:107710000A0000004D5154545F514D5453554232AC
:107720003D0000004D5154545F73657474696E6779
:107730005F514D54535542323A2020202025730D7D
:107740000A0000004D5154545F514D54535542337B
:107750003D0000004D5154545F73657474696E6749
:107760005F514D54535542333A2020202025730D4C
:107770000A000000FEB5464D687900287ED0002042
:10778000294668716131C87C6C2204465043EA6A1C
:107790001018E8620190887981062846076B466BCD
:1077A0003C48007B00900DD50C20A8710A21009860
:1077B000FDF79CFCC0192863002C01D0B61D0CE01D
:1077C000761C0AE01E20A87100988008C019286362
:1077D000002C01D00F3600E0B61C7D216E63C9007D
:1077E0000198FDF783FC06462B488078002809D0D5
:1077F00021462AA0009A01F095FA31462EA02A6B64
:1078000001F090FA30073549224C000F085C8034B3
:10781000207330090107314A090F515CE1720009F8
:107820000107090F515CA1720006000F1146085CA8
:107830006072288E0107090F515C2174000901074D
:10784000090F515CE17300090107090F515CA17335
:107850000006000F1146085C60733C21686BFDF761
:1078600045FC01071D4A090F515C217500090107FC
:10787000090F515CE1740009010700E007E0090FFE
:10788000515CA1740006000F1146085C6074FEBDD7
:1078900040000020A100002023000020BBF0C1A672
:1078A0003A256420202020202020202020C1F7C15C
:1078B000BF3A2564200D0A00D3C3C6F83A25642ACE
:1078C000302E3030314D332020D3C3CBAE3A256C2F
:1078D000642A302E314C200D0A00000088980008E0
:1078E000F8B5794C002621782046007900290DD082
:1078F000012913D0012502297ED0032905D10028B2
:1079000014D02671E6706662E561F8BD0028FCD0EF
:10791000267103202070E670A661F8BDA06A0028D9
:10792000FBD10220207000F03BFDF8BD012149038E
:107930006648FEF7A3FA0128F7D1E0690028F4D0E1
:10794000E078014638391D2903D26661A6612662B6
:10795000F8BD5D4F411F4337072907D26169A06910
:107960007A5C2B4683409A437A5409E00C381028FD
:107970000DD26269A069B95C2B4683401943B954A2
:10798000401CA061206AE661401C206201E0267074
:107990002662A0690728DBD9A6616069401C606186
:1079A0001A28D5D300200146606101203A5C401CB2
:1079B00051181828FADB387E7A7E00028018884237
:1079C0003CD1414B4C22613300203F4943310E5C96
:1079D0001E54461F102E12D80E5C3D49B44636097F
:1079E0008E5D394947006131791840314E776646DE
:1079F00037073F0F364E00E026E0F65D8E77401CDD
:107A00009042E2DB30492220C13188712031487533
:107A100030480078002804D02B481E21C73001F0E0
:107A200081F9022000F040FE3220A0626078002838
:107A300001D02570F8BD00202070F8BD0020207016
:107A400025A001F06FF9F8BDE06806282ED007DC0C
:107A5000030001F0A2F906282B2B2B2B2B04F2E7B5
:107A60000A2823D006DC072820D008281ED00928A1
:107A7000E9D11BE00B2819D0FE28E4D1A068401CF6
:107A8000A06014480078002802D016A001F04AF93E
:107A900026706078002801D0401E607000F066FCFF
:107AA000E6602661F8BDFDF7FDFFF8BD21690729F5
:107AB000FBD8054A383210182038C07F8D40284046
:107AC000FEF71AF8F8BD0000400000200004005046
:107AD000C4A9000823000020D0A3CEF32B25640DF9
:107AE0000A000000474153D2D1B7A20010B50848A0
:107AF0000A21C068FDF7FAFA012907D10548FDF708
:107B00007CFB0449801F091DFDF781FB10BD0000AF
:107B100054010020E9060020F0B595B00020009047
:107B20000190FE48FD4D80781035002872D000206D
:107B3000FA49FB4C8870064658217143685C00285E
:107B400034D049190391029109310F460846049136
:107B5000FDF753FB3946401CFDF759FB07460298D9
:107B6000401DFDF74AFB874208D900200499FDF724
:107B70004EFB03990120491CFDF749FB330001F03E
:107B80000CF90F091623303C4A5766758493A2B14D
:107B9000C0CFDD00E24F607C403F79798842CFD092
:107BA0002846263001F02EFE78796074C6E0DC4F5E
:107BB000A07C403FB9798842F8D0D8488E3001F097
:107BC00021FEB879A074B9E0D54FE07C403FF97947
:107BD0008842EBD0D148E63001F014FEF879E07429
:107BE000ACE0CF4F207D403F397A884204D0CD4869
:107BF00001F008FE387A2075A0E0C94F607D403F53
:107C0000797A884205D0C748583001F0FBFD787A70
:107C1000607593E097E0C24FA07D403FB97A8842FB
:107C200005D0C048B03001F0EDFDB87AA07585E010
:107C3000BB4FE07D403FF97A88427FD02120000190
:107C40004019263001F0DEFDF87AE07576E0B44F99
:107C5000207E403F397B884270D04D20C0004019C3
:107C6000263001F0CFFD387B207667E0AC4F607E98
:107C7000403F797B884261D00B208001401926303B
:107C800001F0C0FD787B607658E0A54FA07E403FB4
:107C9000B97B884252D06320C0004019263001F0E1
:107CA000B1FDB87BA07649E09D4FE07E403FF97B77
:107CB000884243D0372000014019263001F0A2FD50
:107CC000F87BE0763AE0964F207F403F397C88424F
:107CD00034D07920C0004019263001F093FD387C63
:107CE00020772BE08E4F607F403F797C884225D003
:107CF000212040014019263001F084FD787C607716
:107D00001CE0874FA07F403FB97C884216D08F206F
:107D1000C0004019263001F075FDB87CA0770DE059
:107D20007F4FE07F403FF97C884207D04D20000123
:107D30004019263001F066FDF87CE077761CF6B23B
:107D4000282E00D2F8E6754E3079002823D13478F9
:107D500002F0D6FD00281BD030780290641CE4B2FB
:107D6000282C00D90124582060434719573F384632
:107D7000FDF743FA002804D0347139460020FDF79E
:107D800046FA3079002806D102988442E6D18AE08A
:107D900030790028FBD07078002871D101273C028F
:107DA00077702146604801F062FD21465F4801F08E
:107DB0005EFD5FA15D48FDF7D3F900245EA15B483D
:107DC000FDF7CEF95DA15948FDF7CAF93079582180
:107DD0004843411955484B39FDF7C2F95BA1534857
:107DE000FDF7BEF93079112826D0582148434119B2
:107DF0004E483239FDF7B4F955A14C48FDF7B0F9BA
:107E000054A14A48FDF7ACF954A16846B26800F0A5
:107E100099FF69464548FDF7A3F951A14348FDF78D
:107E20009FF951A14048FDF79BF930791428544837
:107E300006D80321090205E039493C482631D9E733
:107E40000121890241183848FDF78AF94DA13648C9
:107E5000FDF786F93548FDF7A3F900216A46009140
:107E600011716D4663280CD902260A21FDF73EF9EF
:107E7000321B3031641CA954E4B20028F5D10AE069
:107E800011E00A21FDF732F93A1B3031641CA95484
:107E9000E4B20028F5D169462348FDF761F93AA11B
:107EA0002148FDF75DF91E48203013900278014605
:107EB0006039087D944682426ED01849334A1031A9
:107EC0008A181292314A25328A1811922F4A583252
:107ED0008A1810922D4A7D328A180F922B4AB0329E
:107EE0008A180E92294AD5328A180D92284A8A1881
:107EF0000C92274A25328A180B92254A58328A1842
:107F00000A92234A7D328A180992224A8A180892D4
:107F1000204A25328918079119283EE05401002093
:107F2000E100002092020020741D0020741E002039
:107F30007B226964223A220035000000222C227044
:107F40006172616D73223A7B22000000223A0000C8
:107F50007D0000002C22534E223A220025640000AE
:107F6000227D0D0A0000000041542B514D54505504
:107F70004245583D302C302C302C302C2200000053
:107F800020110020222C00000D0A000039070000FB
:107F900041080000490900009EE070D02FDC714AC2
:107FA00071498F186F4A25328A1806926F4A8E18C7
:107FB0006E4A25328A1805926D4A8D186C4A253210
:107FC00089180491132870D014DC6A49664A684BFA
:107FD00054186849333B2531511803916449583985
:107FE0005118D2180292002811D0112876D01228E8
:107FF0006AD1A5E0162873D0172865D194E01B3804
:10800000030000F0CAFE0697798B61857F616046A8
:108010001138030000F0C1FE104A4250585809348C
:108020005810583B172C58251E5839460120FDF78B
:10803000EEF80021069845E001201299FDF7E7F8D7
:10804000002111983EE001201099FDF7E0F8002191
:108050000F9837E001200E99FDF7D9F800210D980F
:1080600030E001200C99FDF7D2F800210B9829E0AF
:1080700001200A99FDF7CBF80021099822E035E0AC
:1080800031460120FDF7C3F8002105981AE00120D0
:108090000899FDF7BCF80021079813E0214601205C
:1080A000FDF7B5F8002103980CE054E00120FDF73E
:1080B000AEF80021029805E029460120FDF7A7F857
:1080C0000021049801F09EFB2B4C2C48217D01F0EF
:1080D00099FB1398217D017015B0F0BD36E0FFE7E4
:1080E00039460120FDF793F80121A3E701201299F9
:1080F000FDF78DF80121A4E701201099FDF787F81D
:108100000121A5E701200E99FDF781F80121A6E7DD
:1081100001200C99FDF77BF80121A7E701200A99BE
:10812000FDF775F80121A8E731460120FDF76FF84A
:108130000121AAE701200899FDF769F80121ABE7C1
:1081400021460120FDF763F80121ACE70120FDF78E
:108150005EF80121AEE729460120FDF758F801211C
:10816000AFE70000E106000064010020F108000014
:10817000510A0000A1090000A1000020B206002061
:10818000FEE7000070B586B014216846FCF7DDFFFD
:108190001848416B012421434163416B2140059103
:1081A000426B02210A434263406B134D0840009525
:1081B00005900020114E02900390019469463046CC
:1081C000FDF7C2FD002229463046FDF763FE60033D
:1081D00000900B480190694602943046FDF7B4FDCB
:1081E000002211460720FDF711FF0720FDF702FFCF
:1081F00006B070BD0010024008C00000000400502E
:108200000000211010B508480649016004214160B2
:108210000649C1608160FDF749FE002801D0FDF7E5
:1082200087FB10BD003000402C0F0020FF0F000026
:1082300010B594B0002412941394109411940D94DA
:108240000E94342168460F94FCF77FFF1B481A49AF
:1082500001603F2184604160046144616321846165
:10826000C160FEF749FB002801D0FDF761FB01204A
:108270000003109010A91148FEF780FB002801D0E0
:10828000FDF756FB0D940E940DA90C480F94FEF7C4
:1082900009FB002801D0FDF74BFB0794694607480E
:1082A0000B94FEF7A9FA002801D0FDF741FB034823
:1082B000FEF74EFB14B010BD002C01403C0F002017
:1082C00010B5184816490160E121490241600021BA
:1082D0008160C16001618161C16101620C22416202
:1082E00042618162FEF7B2FD002801D0FDF720FB5C
:1082F00000210C48FEF7BFFC002801D0FDF718FB59
:1083000000210848FEF790FC002801D0FDF710FB83
:108310000448FEF767FC002801D0FDF709FB10BDFB
:10832000003801407C0F002010B50D480B4901605A
:10833000E1214902416000218160C16001618161E8
:10834000C16101620C22416242618162FEF77EFDE1
:10835000002801D0FDF7ECFA10BD000000480040F5
:1083600094100020704770477047000000B585B03A
:1083700014216846FCF7E9FE0120400300900648FE
:1083800001900020029069460448FDF7DDFC0720BB
:10839000FDF730FE05B000BD0000311000040050B4
:1083A00000B585B014216846FCF7CFFE01204003DC
:1083B0000090112001900020029069460348FDF7CB
:1083C000C3FC0720FDF706FE05B000BD0004005009
:1083D00010B5FDF7A5FD10BD30B599B03421684644
:1083E000FCF7B3FE00241494159416941C210DA8D8
:1083F0001794FCF7AAFE01204002FDF70BFE0A20AD
:108400000090FF200130039040200590012006904D
:1084100008200A90022580030B900795000304941E
:108420000C90089509946846FDF7D0FF072014903A
:10843000169402211595179414A8FDF7C1FE032088
:108440000D900E940F940DA8FDF70AFE19B030BDE3
:1084500001200249C00688607047000000ED00E07E
:10846000F8B53F48FEF7F8FA3E4C0125A068002811
:1084700002D0401EA06002E009206560A0603A4979
:108480003A4F0878401C0870012149033846FDF72F
:10849000F5FC002803D136480178491C017060685A
:1084A00000285BD0002666602068002802D0401EAD
:1084B000206017E008213846FDF7E5FCFF20F43086
:1084C00020602C482C4905700878002802D0401EF6
:1084D000087001E02948057029480168002901D089
:1084E000491E016001F066FA264B7D201978C00014
:1084F00000290BD024490A6821688A4200D2121848
:10850000511A032902D921491E700D7020490A68A9
:10851000002A01D0521E0A601E4B197800290BD088
:108520001D490A6821688A4200D21218511A03298B
:1085300002D91A491E700D70194B197800290DD0F7
:10854000184922680968914201D3881A01E0081885
:10855000801A032802D914481E700570F8BD000067
:108560003C0F0020000000204200002000040050CA
:108570004300002056010020460000204500002056
:1085800060010020300000203C0000202C00002072
:10859000680000203E010020400100203D01002035
:1085A000220000202800002020000020F0B50268F2
:1085B0001A4B1B4C984201D0A04203D17025AA430C
:1085C0004D682A43174D184E184F98420AD0A042C2
:1085D00008D0174CA04205D0A84203D0B04201D029
:1085E000B84205D11446032212029443CA682243BA
:1085F0008024A2434C69224302608A68C2620A68EE
:108600008262984205D0A84203D0B04201D0B8425D
:1086100001D10969016301214161F0BD002C0140D4
:108620000004004000400140004401400048014077
:108630000020004030B58468FF252D021B02134343
:10864000AC430B432343836030BD00008268034B7F
:108650001A400A4307210A43826070478FFFCFFF09
:1086600030B5036A046A6408640004628469F02512
:10867000AC43120122430A24A3430B4382610362E9
:1086800030BD30B5036A1024A34303628469036AD2
:108690000F252D031203AC432243A024A343090159
:1086A00019438261016230BD10B5002811D0094C18
:1086B00001280DD002280CD1E078012809D1064804
:1086C000FCF79BFD0449401E091DFCF7A0FD00209E
:1086D000E07010BD54010020E9060020F0B513A1A0
:1086E00006C985B00192009112A206CA03920291B6
:1086F0000446416E4034002915D0006881688068C6
:1087000009014D0F400F02AE315C6F46385CC0006E
:10871000FCF7ECFC6085785D715DC000FCF7E6FC61
:10872000208505B0F0BD01206085F9E70101010356
:1087300007010000080402040801010110B5018DC1
:10874000C90707D001684A6801235B049A43C36ADA
:108750001A434A60018D890707D501684A680123D9
:108760001B049A43036B1A434A60018D490707D5DE
:1087700001684A6801239B049A43436B1A434A6089
:10878000018D090707D501684A680123DB039A4375
:10879000836B1A434A60018DC90607D50268916848
:1087A00001231B039943C36B19439160018D890613
:1087B00007D501688A6801235B039A43036C1A4357
:1087C0008A60018D490612D503685A68012109059E
:1087D000446C8A4322435A60426C8A4207D1026841
:1087E000516803235B059943836C19435160018DE4
:1087F000090607D501684A680123DB04C06C9A4367
:1088000002434A6010BD0000FEB5054600268035D3
:108810000446AE60FDF744FB019020680068124FEB
:10882000000709D501210097002249052046019B38
:1088300000F0C0F900280DD12068006840070BD572
:1088400001210097002289052046019B00F0B2F922
:10885000002801D00320FEBD20202860686060341D
:1088600026770020FEBD0000FFFFFF0110B5806AE3
:10887000002201464031CA83CA82FEF724FA10BDA5
:1088800001680A68FF2321339A430A6001688A68F5
:10889000044B1A408A60202284210A500021C166BC
:1088A00070470000FEFFFFEFF8B5044680682169BD
:1088B000E26908436169002611430843616E014380
:1088C00020680268B24B1A400A4302602168486877
:1088D000032212039043E26810434860A169206AB2
:1088E000226808439168AB4B1940014391602068AE
:1088F000C16A626A090909011143C162A64A206876
:10890000A64990420CD148698007800F23D00128E6
:1089100004D002281FD003281CD111E004201AE043
:108920009F4A90420ED148690C21084013D0042878
:1089300011D0082802D00C280CD101E002200AE056
:10894000082008E09749884202D09749884201D11F
:10895000002000E010200122D203E169D511934BE1
:10896000934F91426FD1002806D0022835D00428B9
:108970007AD0082869D17AE0FDF7CEFC76E00128AC
:1089800015D0022815D0032815D0042815D00528A5
:1089900015D0062815D0072815D0082815D0092885
:1089A00015D00A2815D00B2814D0012512E0022575
:1089B00010E004250EE006250CE008250AE00A2553
:1089C00008E00C2506E0102504E0202502E0402503
:1089D00000E08025294610461BE0606A002815D07B
:1089E00001282AD002282AD003282AD004282DD0F2
:1089F00005282DD006282DD007282DD008282DD0C9
:108A000009282DD00A282DD00B2800D00125294671
:108A10001846FCF76BFB616840004A088018FCF7B9
:108A200065FB80B201461039B9420ED86049491C35
:108A300001400007400F08437FE00225E7E70425D7
:108A4000E5E70625E3E716E00EE08CE00825DEE723
:108A50000A25DCE70C25DAE71025D8E72025D6E73C
:108A60004025D4E78025D2E7FDF76AFC0246606A1C
:108A700000289AD083E7002806D0022835D00428A1
:108A800074D0082879D174E0FDF746FC70E0012825
:108A900015D0022815D0032815D0042815D0052894
:108AA00015D0062815D0072815D0082815D0092874
:108AB00015D00A2815D00B2814D0012512E0022564
:108AC00010E004250EE006250CE008250AE00A2542
:108AD00008E00C2506E0102504E0202502E04025F2
:108AE00000E08025294610461BE0606A002815D06A
:108AF000012825D0022825D0032825D0042825D0F8
:108B0000052825D0062825D0072825D0082825D0D7
:108B1000092825D00A2827D00B2800D0012529466E
:108B20001846FCF7E3FA61684A088018FCF7DEFA99
:108B300080B201461039B9421FD82168C8601DE0D3
:108B40000225ECE70425EAE70625E8E70825E6E73D
:108B50000A25E4E70C25E2E71025E0E72025DEE71B
:108B60004025DCE702E008E08025D8E7FDF7E8FBD8
:108B70000246606A0028A0D089E70126204601212C
:108B80004030418501850020E06620673046F8BD11
:108B9000F369FFCFFFF4FF1100380140401002409D
:108BA0000044004000480040004C00400024F40015
:108BB000EFFF0000FFB581B017460E4604460A9D40
:108BC00009E0681C07D0FDF76BF90499401AA84228
:108BD0000CD8002D0AD02068C169304688431AD0CD
:108BE0000020B842EDD0002005B0F0BD206801683B
:108BF000FF22A13291430160206881684908490041
:108C00008160202120468030016041600020603476
:108C100020770320E8E70120E3E7000010B51248C1
:108C2000FEF752F810480168C869C043800611D4A5
:108C3000486AC2B20D480379002B0FD04378C82B85
:108C400002D20B4B44781A550A4A126802614278E4
:108C5000521C4270C8690868C86910BD01230371BD
:108C600000234370EDE700007C0F00202C00002063
:108C7000481A00200000002010B51148FEF724F823
:108C80000F480168C869C043800611D4486AC2B25F
:108C90000C488378002B0ED00378C82B02D20A4BE5
:108CA00004781A55094A126842600278521C027010
:108CB0000868C86910BD0123837000230370EEE7C4
:108CC000081000203C010020481C0020000000206B
:108CD00010B51048FDF7F8FF0E480068C169C94398
:108CE000890610D4406AC2B20B48817800290BD0A3
:108CF0004178C82904D2094BC9B25A54491C417061
:108D000007490968816010BD01218170002141700F
:108D1000F1E70000941000202000002080190020BE
:108D2000000000200FB410B503A9044B044A0298B8
:108D300000F030F910BC08BC04B01847B59B00081F
:108D4000240F00200FB410B504A9074B02AA039802
:108D500000F020F9044602A9002000F0B9FC2046EA
:108D600010BC08BC04B01847D19600082021020CA2
:108D700001D010211046020A01D01046083902091C
:108D800001D01046091F820801D01046891E4208F2
:108D900001D0881E7047081A704730B47446641EAC
:108DA0002578641CAB4200D21D46635D5B00E3186E
:108DB00030BC18478307FF22DB0E9A408907090E53
:108DC0009940002808DB830809489B001B18186895
:108DD00090430843186070470007000F0838830865
:108DE00004489B001B18D86990430843D86170471A
:108DF00000E400E000ED00E000487047280F00208C
:108E000002E008C8121F08C1002AFAD17047704753
:108E1000002001E001C1121F002AFBD170470000B1
:108E2000F0B51FB486B00998089A030D00210243DB
:108E300014D05148514A181850430514119801286C
:108E400010981AD0281A401C00264D4F4D49009604
:108E500001910490002812DA444211E01198012493
:108E600049A3012801D11098C1430698119A846042
:108E70000360C26041600BB0F0BD4042E4E70446CD
:108E8000210500203F4A001C51410391029012E04D
:108E9000E00707D032463B4601990098FCF7EAFA12
:108EA0000191009032463B4610461946FCF7E2FA23
:108EB00006460F466410002CEAD10498039B002854
:108EC000029A0999089806DAFCF7D4FA019B009AED
:108ED000FCF7D0FA05E0FCF735FB019B009AFCF7A4
:108EE00031FB04460E460022284BFCF7C3FB03D897
:108EF0000020C043014607E00022254B20463146B2
:108F0000FCF704FAFCF796FB102409E0002C0ADBBE
:108F10000A220023FCF791F9079B30321A55641E90
:108F200002460A43F2D11122641C079B121B1C1932
:108F3000119B012B03D0012308430ED10AE0084303
:108F400004D0112010900020119077E71098151A86
:108F50006D1E0BE01098824202DD00236D1C03E0C1
:108F6000824201DA00236D1E002BEED00698119983
:108F70008260C16030C07EE701FCFFFF104D000041
:108F8000000014400000F03F300000000000F043FB
:108F90000000E03FFFB597B0064600251BE22528FC
:108FA00076D100242746F749049400E00443761C58
:108FB00032780120203A90400842F7D130782A28B0
:108FC0000ED00222307801463039092916D804998A
:108FD0000A235943303940181443761C0490F1E7B2
:108FE000189802C804911890002904DA012040035F
:108FF00004434842049002200443761C30782E2813
:1090000014D1042004437078761C2A2809D11898BA
:10901000761C80C8189009E00A214F43303FC719D9
:10902000761C3078014630390929F5D930786C281A
:1090300010D006DC4C281AD068280ED06A2817D128
:1090400004E0742813D07A2812D110E001204005E2
:1090500004430CE00121090501E0032109050C434B
:109060007178814203D1012000052418761C761CFA
:10907000307866280BD013DC58287DD009DC002816
:109080007BD04528F6D04628F4D047281AD1A9E14C
:1090900018E0632835D0642870D0652812D1A1E18A
:1090A00070286CD008DC6728F1D069287DD06E2844
:1090B0000DD06F2806D1BCE073282ED0752873D050
:1090C000782859D01A9A199990476D1C82E160024C
:1090D000400F022809D003280DD0042818980168F1
:1090E0000DD00D60001D189074E11898EA17016802
:1090F0000D604A60F6E7189801680D80F2E70D7080
:10910000F0E718986A4601781172001D1890002047
:10911000507202A80090012005E0189802C818902B
:1091200000200091C04361070ED5002101E00199A4
:10913000491C0191B94213DA8142F8DB019A009986
:10914000895C0029F3D10BE0002101E00199491C61
:1091500001918142FADB019A0099895C0029F5D1DD
:10916000019904981A9B471A21463846199A00F02B
:1091700099FA4019019903E051E030E115E050E01F
:10918000451807E0009800990078491C00911A9A48
:10919000199990470198401E0190401CF2D1214638
:1091A00038461A9B199A12E137E00A2000210090F4
:1091B00001916002410F022907D0189A01CA189242
:1091C000C2179446032908D00AE01898C01DC108A8
:1091D000C90005C91891944607E000B2C217944629
:1091E000042902D140B2C1178C4600226146944541
:1091F00006DA0A460021404291418C462D2102E0C8
:10920000210504D52B216A461173012103E0E107F2
:1092100001D02021F7E7029156E00A200AE0102051
:1092200008E0102000900021042004430191082749
:1092300003E008200021019100906002410F022903
:1092400007D0189A01CA189200229446032908D020
:1092500008E01898C01DC108C90005C918919446B6
:1092600003E080B2042900D1C0B20021029121079D
:109270002AD531780D91702906D0009A1021019BD2
:109280004A401A4305D00EE040216A46117301217D
:1092900008E06146014306D030216A4611730D99FA
:1092A000517302210291009A0821019B4A401A43FE
:1092B0000AD16146014301D1610705D530216A46D3
:1092C000117301217F1E02913178582904D02EA1FB
:1092D0000E910DA90D910DE030A1F9E76146019BBA
:1092E000009AFBF7AAFF0E9B8C469B5C0D9A521EC0
:1092F0000D92137061460143F0D10D9805A9081A2B
:1093000020300190600703D501200004844300E071
:1093100001270198874201DD381A00E000200199F9
:1093200000904118029809180498401A0490E0032C
:1093300006D421461A9B199A049800F0B3F94519EE
:10934000002706E003A81A9AC05D199990476D1C82
:109350007F1C02988742F5DBE0030CD521461A9B5F
:10936000199A049800F09EF9451904E01A9A3020E1
:10937000199990476D1C0099481E00900029F5DC52
:109380001FE0000009280100303132333435363710
:109390003839616263646566000000003031323341
:1093A00034353637383941424344454600000000E1
:1093B0000D980D990078491C0D911A9A19999047AA
:1093C0006D1C0199481E01900029F1DC4DE100F06F
:1093D00059F94519761C3078002800D0DFE5284679
:1093E0001BB0F0BD600700D406271898C01DC10847
:1093F000C90048680A680831C30FDB0718911900D3
:1094000001D09CA108E0210501D59BA104E0E10762
:1094100001D09AA100E09AA14300109130785B0836
:1094200065280CD006DC452809D046281DD04728E1
:1094300041D141E0662818D067283CD13CE00021AA
:10944000112F01DB112000E0781C0191009008A988
:1094500011A8FFF7E5FC139905910021119A1592C7
:109460007F1C12980197009150E00120C0070390E3
:109470000120019008A9009711A8FFF7D1FC139AC9
:10948000149905920022119B009212981593059A47
:109490000192002901D0104602E0791C4018019089
:1094A000381A01D5019804E04042401E0090781C13
:1094B0000190C01B029043E0012F00DA0127002138
:1094C000112F01DD112000E038460191009008A91C
:1094D00011A8FFF7A5FC13990591119A0021129884
:1094E00015920091019721070CD40599B94201DB2F
:1094F000019900E00191012904DD159A491E515C92
:10950000302906D0B84201DA011D05DA01210291A5
:1095100015E00199491EEDE7002805DC0099411886
:1095200000910199091A03E0019A411C914200DD62
:1095300001910099401A401C02900120C00703903D
:10954000200706D402990198814202DB0020C04323
:10955000029000206946C87707AF012103980337BE
:10956000C907884224D0022011902B201290039822
:1095700000280CDA404203902D20129007E00A21C7
:109580000398FBF7B3FD30317F1E039039701199BA
:10959000481E11900029F2DC03980028EFD1791EB3
:1095A000129808703078202108404530BF1E38706E
:1095B00006A8C01BC01D039010980078002800D09A
:1095C0000120019941180298C01709180398091839
:1095D0000498401A401E0490E00306D421461A9BCA
:1095E000199A049800F05EF8451910980078002840
:1095F00003D01A9A199990476D1CE00324D521468F
:109600001A9B199A049800F04DF845191CE000982F
:10961000002807DB00990598884203DD1598405C17
:10962000199901E0199930201A9A904700986D1CF9
:10963000401C00900298401E0290002804D11A9A03
:109640002E20199990476D1C0199481E0190002900
:10965000DDDC05E038781A9A7F1C199990476D1C5B
:109660000399481E03900029F4DC21461A9B199A9D
:109670000498ACE62D0000002B0000002000000044
:1096800000000000F8B5044600251E461746880471
:1096900004D405E039462020B0476D1C641EF9D57E
:1096A0002846F8BDFFB50446002581B01E46C80314
:1096B00001D5302700E02027880404D505E038468E
:1096C0000399B0476D1C641EF9D5284605B0F0BD5E
:1096D0000A68531C0B60107070470000F0B500233F
:1096E000012684460A4DF6061F460DE06046C41862
:1096F000288C0006800B8019A04202D92478CC5413
:1097000000E0CF545B1C9BB29342EFD3F0BD00004E
:10971000C075FF1FF7B586B015460C46FCF7E8FA92
:10972000022037490290098C069809068A0B01210C
:10973000C90653184942834200D8801A4018C00A0B
:109740000390012004900020059005A902A8FCF7D1
:1097500051FA6E07760FEF08002E00D07F1C00250F
:1097600033E0002000900190781E854233D1002E16
:1097700031D0E800215C6A461170022E02D3011933
:1097800049785170032E02D3011989789170042E03
:1097900002D30119C978D170052E02D301190979B4
:1097A0001171062E02D3011949795171072E02D386
:1097B0000019807990710698E90009180120019B31
:1097C000009AFCF765FA6D1CADB2BD42C9D3FCF737
:1097D00051FA09B0F0BDE800225C69460A70001930
:1097E00042784A7082788A70C278CA7002790A71A7
:1097F00042794A7182798A71C079C871DBE70000C9
:10980000C075FF1F70B505460A4600200146295461
:10981000401CC0B22B5C002BF9D10024632A0DD967
:1098200002260A211046FBF761FC321B3031641C12
:10983000A9540246E4B20028F3D170BD10460A389C
:109840005A280DD201260A211046FBF74FFC321B85
:109850003031641CA9540246E4B20028F3D170BD33
:109860000A211046FBF742FC3031297070BD0022FE
:10987000134601E08354521C8A42FBD37047000018
:1098800001A1085C7047000030313233343536377F
:1098900038394142434445460000000070B50C4C45
:1098A00005462278002A11D00A484078002803D0C3
:1098B00009490AA0FFF736FA29460748FBF75CFC7E
:1098C000002801D0012070BD00202070002070BD54
:1098D0002C00002023000020481A002075617274BB
:1098E00020726563763A20257300000070B5114C34
:1098F0000646A0780D46002813D10F48C0780028EE
:1099000007D03046FBF74CFC014632460BA0FFF770
:1099100009FA00F065F8304600F074F8658101201E
:10992000A070E078002804D00020E070A0702081B2
:10993000012070BD2C00002023000020756172748E
:10994000206C656E6774683A2025642C636F6E74B2
:109950006578743A2573000070B5104C0646A078FF
:109960000D4600280FD10E48C078002803D031469C
:109970000CA0FFF7D7F900F033F8304600F042F8BA
:1099800065810120A070E0782178084304D0002090
:10999000E070A0702081012070BD00002C0000202C
:1099A00023000020756172742073656E643A20256F
:1099B000730D00000948C188491CC18081780029C5
:1099C0000AD00189491C89B201814289914203D997
:1099D0000121C17000210181704700002C0000208E
:1099E00010B505480021417001700121490203486A
:1099F000FBF7ABFB10BD00002C000020481A002034
:109A00007047000070B50446044D02E0E968641C2C
:109A1000884720780028F9D170BD00002C00002074
:109A200010B518A11B48FBF7D0FB1A481A49803023
:109A3000FBF7CBFB19A12648FBF7C7FB25A127485D
:109A4000FBF7C3FB224826498030FBF7BEFB2048CA
:109A500024A18038FBF7B9FB204827A18030FBF711
:109A6000B4FB32A14048FBF7B0FB3F483FA1803038
:109A7000FBF7ABFB49490120087049A0FFF752F9F9
:109A800010BD000048656C6C6F20576F726C6421CC
:109A90000000000020110020A0AA000861313564F8
:109AA0004C536D4241546B2E696F742D61732D6D53
:109AB0007174742E636E2D7368616E676861692EB0
:109AC000616C6979756E63732E636F6D00000000C1
:109AD000A01200203138383300000000A01300200D
:109AE0005CAA000879757368656E67266131743306
:109AF0006D67664341534E002F7379732F61317444
:109B0000336D67664341534E2F79757368656E6791
:109B10002F7468696E672F6576656E742F70726F2B
:109B200070657274792F706F737400002F7379737E
:109B30002F613174336D67664341534E2F797573CE
:109B400068656E672F7468696E672F6576656E74D9
:109B50002F70726F70657274792F706F73745F728B
:109B600065706C7900000000A01400202F737973D9
:109B70002F613174336D67664341534E2F7975738E
:109B800068656E672F7468696E672F6576656E7499
:109B90002F6661756C742F706F7374000C00002059
:109BA000B3F6B3A7B2CECAFDC9E8D6C3A3A10D0AC6
:109BB0000000000013B5044B012269460348FDF77D
:109BC00001FA00981CBD0000FFFF00009410002067
:109BD00070B567A16948FBF7EAFA684C684D323402
:109BE00000280FD12078312804D1012116202A68BD
:109BF000FBF71CFF2078302804D1002116202A68AA
:109C0000FBF714FF5FA15D48FBF7D1FA00280FD1E5
:109C10002078312804D1012117202A68FBF706FF9C
:109C20002078322804D1022117202A68FBF7FEFE93
:109C30005AA15248FBF7BBFA00280ED120780A221D
:109C40003038617850433038091808461E382D28BE
:109C500003D818202A68FBF7E9FE54A14748FBF710
:109C6000A6FA00280ED120780A22303861785043B5
:109C70003038091808461E38322803D819202A68B7
:109C8000FBF7D4FE4FA13D48FBF791FA002807D11E
:109C90002078312804D101211A202A68FBF7C6FE5A
:109CA0004BA13648FBF783FA00280FD120783128E2
:109CB00004D101211B202A68FBF7B8FE2078302848
:109CC00004D100211B202A68FBF7B0FE45A12B48D8
:109CD000FBF76DFA00280FD12078312804D101213B
:109CE0001C202A68FBF7A2FE2078302804D100212E
:109CF0001C202A68FBF79AFE3DA12048FBF757FA83
:109D000000280FD12078312804D101211D202A6894
:109D1000FBF78CFE2078302804D100211D202A6812
:109D2000FBF784FE34A11548FBF741FA00281ED149
:109D3000E0787D21C90030384843217964223039E8
:109D40005143411820780A2230385043081861786E
:109D500030380918052906D22B4A022010602B4AF8
:109D600010602B4A10601F202A68FBF75FFE70BD51
:109D7000506F77657253776974636800101D002017
:109D80004800002053756D6D65725F77696E74656C
:109D9000724D6F64655F53657400000042617468C2
:109DA00054656D705F536574000000004865617410
:109DB000696E6754656D70657261747572655F5325
:109DC0006574000044657669636552657365740067
:109DD000486F745F77617465725F436972635F4F48
:109DE0004E0000004C6F636B53776974636800002A
:109DF00045434F5F536574005265616C74696D65CE
:109E00005F536574000000006C00002070000020AB
:109E10007400002070B50B4C0025207800280CD071
:109E200009A0FEF77FFF0122D2020B490B48FFF782
:109E300071FC25700AA0FEF775FF6078002800D03D
:109E4000657070BD0C000020C6F4B6AFB4E6B4A2D5
:109E5000A3A10D0A000000002011002000F8010855
:109E6000B4E6B4A2CDEAB1CFA3A10D0A0000000070
:109E700010B5254C0D2223492046FFF72FFC23A1C6
:109E80002048FBF794F9002803D0FFF7C9FD23A071
:109E900035E0204680221B49FFF720FC1A4819496B
:109EA000803080228031FFF719FC2148802221492F
:109EB000FFF714FC1E481F49803080228031FFF7D5
:109EC0000DFC1D4880221D49FFF708FC1A481B495C
:109ED000803080228031FFF701FC19488022194927
:109EE000FFF7FCFB16481749803080228031FFF7CE
:109EF000F5FB154880221549FFF7F0FB14A0FEF78B
:109F000011FF10BD2011002000F8010848656C6C9D
:109F10006F20576F726C642100000000BBD8B8B48A
:109F2000B3F6B3A7C9E8D6C3A3A10D0A0000000089
:109F300000F901082012002000FA01082013002077
:109F400000FB01082014002000FC0108201500205F
:109F5000B6C1C8A1CDEAB1CFA3A1000022492148D2
:109F60008860FBF7E5FFFEF737FAFEF70BF9FEF71F
:109F70005FF9FEF7A5F9FEF7D7F9FFF779FFFEF7CE
:109F800041F9002211460D20FCF740F80D20FCF7A6
:109F900031F8164801680A68202002430A60144913
:109FA00009680A6802430A60124800F0A1FC12A086
:109FB000FEF7B8FE124C01251248FBF7A9FFFDF78A
:109FC00073F800F095F8FDF78BFCFFF723FFFDF722
:109FD000A3FDFDF78BFDFDF7CDFB2571280A607110
:109FE000EAE700000050000800ED00E07C0F0020D0
:109FF0009410002029A90008BFAABBFA0D0A00008E
:10A000007A1900202C0F00207CB50D46002100910C
:10A010000191144610A1FBF7AFF8002818D0401D9D
:10A0200000E0401C017830390A29FAD2014600E0EC
:10A03000401C02782C2AFBD1421A6846FBF76CF8C8
:10A040006846FBF7EDF8A84203DBA04201DC0120E3
:10A050007CBD00207CBD00002B4353513A00000022
:10A0600010B5044632211C48FBF76FF81A4832211C
:10A070003230FBF76AF819A12046FBF77DF804009F
:10A0800027D0641E21783A29FBD1021B521E322AA6
:10A0900000DD32221048611C3230FBF73DF80E49DA
:10A0A0000FA03231FEF73EFE611E0846491E0A78B7
:10A0B000222AFBD1421A521E322A00DD32220648E1
:10A0C000491CFBF729F8044908A0FEF72BFE0120E4
:10A0D00010BD002010BD0000101D00207D7D00007F
:10A0E000646174613A25733D0000000025730D0022
:10A0F000F8B53D4C0025E068FF260727042856D018
:10A1000015DC00281DD0012823D0022838D00328D0
:10A1100035D17D21C90035A0FFF7E8FB00282ED0FE
:10A1200034A0FFF7BBFB00283AD0A5805AE00528F1
:10A1300047D006284BD007284CD0FF281FD1A58038
:10A1400005E07D20000100F0FBFB002817D0012076
:10A1500024E000F0A3FB002811D0274800F0F0FB1A
:10A1600026A0A168FEF7DEFDA0680121401CA060CA
:10A170000220E0602A4802680A20FBF757FCF8BD7D
:10A18000FF21F53127A0FFF7B1FB0028F7D019A078
:10A19000FFF784FB002803D0A5800320E060F8BD12
:10A1A000A088411CA1800A28F9D9E660F8BD00F01A
:10A1B000DFFAFE2801D10520F0E7FF28F6D1E7609D
:10A1C000F8BD00F033F8FE28F7D10620E6E700F0EE
:10A1D00071F9F2E700F032FA042803D0FF28EFD13A
:10A1E0006570E2E70420D9E744010020415445307E
:10A1F0000D0A00004F4B0000B80B0000526573655C
:10A20000742D25642D21212121212121212121218C
:10A2100021212121212121212121210D0A000000BC
:10A220004800002041540D0A00000000F0B56A4CBF
:10A23000FF2620780025711CC1B0032876D007DCEA
:10A24000664F00280BD001281BD002286FD13CE0BC
:10A2500004286DD0FE286CD0FF28F7D1B9E060A1AA
:10A260003846FAF7A4FF002808D17D21C90069A06B
:10A27000FFF73CFB00285AD06CA021E02078401C5E
:10A2800099E06846FFF7F3FA69A16846FAF768FFB4
:10A2900039466846FAF764FF69A16846FAF760FF35
:10A2A00068496846FAF75CFF67A16846FAF758FF05
:10A2B000FF21F5316846FFF719FB0028DBD063A0CA
:10A2C000FFF7ECFA002857D134E06846FFF7CFFAE1
:10A2D00062A16846FAF744FF64496846FAF740FF0E
:10A2E00063A16846FAF73CFF3C4968468039FAF7B3
:10A2F00037FF5FA16846FAF733FF38496846803177
:10A30000FAF72EFF5BA16846FAF72AFFFF21F53125
:10A310006846FFF7EBFA002855D057A0FFF7BEFAC2
:10A32000002807D0A5802078801C44E008E043E0A6
:10A3300024E04BE0A088411CA1800A2842D842E0DA
:10A340006846FFF794FA50A16846FAF709FF3D49BD
:10A3500068468031FAF704FF4FA16846FAF700FF1C
:10A36000FF21F5316846FFF7C1FA00282BD04CA039
:10A37000FFF794FA002820D0A5807FE76846FFF712
:10A3800076FA41A16846FAF7EBFE49496846FAF7C2
:10A39000E7FE41A16846FAF7E3FEFF21F531684682
:10A3A000FFF7A4FA00280ED03DA0FFF777FA0028A7
:10A3B00003D0A580FE20207005E0A088411CA1806C
:10A3C000052800D92670002041B0F0BD2570FE2080
:10A3D000FAE72570FF20F7E744010020A0120020D3
:10A3E000613135644C536D4241546B2E696F742D4D
:10A3F00061732D6D7174742E636E2D7368616E6759
:10A400006861692E616C6979756E63732E636F6D17
:10A410000000000041542B514D544346473D2273E8
:10A42000736C222C302C312C300D0A004F4B000065
:10A4300041542B514D544F50454E3D302C2200007D
:10A44000222C0000A01300200D0A00002B514D54B7
:10A450004F50454E3A20302C3000000041542B51D3
:10A460004D54434F4E4E3D302C220000A011002091
:10A47000222C2200220D0A002B514D54434F4E4EE8
:10A480003A20302C302C300041542B514D54535530
:10A49000423D302C312C2200222C300D0A000000CD
:10A4A0002B514D545355423A20302C312C302C0036
:10A4B000A014002070B5454C002520780126042802
:10A4C00059D009DC00280ED0414E01280DD00228B9
:10A4D00018D003286DD129E0052864D0062862D061
:10A4E000FF2866D167E0401C43E03078002807D0A1
:10A4F00064213848FFF7FAF900285AD02078F2E7AB
:10A50000042036E034493548FFF726FA002850D0B9
:10A5100020783349401C20703078087031483570FD
:10A52000057031480168491C016042E02FA0FFF727
:10A53000B5F9002804D12DA0FFF7B0F900280CD000
:10A540002BA0FEF7EFFBA580062020702B48A570FE
:10A55000026803210A20FBF769FAA088411CA18048
:10A56000032826D9A078401CC0B2A070022820D9A8
:10A57000FF2020701DE0224922A0FFF7B7F9002834
:10A5800017D024A0FFF78AF900280AD024A0FEF7EC
:10A59000C9FB2648FFF764FD00280AD0FFF718FB27
:10A5A00007E0A58004E0322000F0CAF9002800D0BE
:10A5B0002670002070BD1E4825704078002802D00B
:10A5C0001CA0FEF7AFFBFF2070BD0000440100207F
:10A5D00058010020741D002070170000741E002018
:10A5E00054010020550100205C0100204F4B000069
:10A5F000B7A2CBCD3C4F4B3E0D00000048000020E1
:10A60000DC05000041542B514D54524543563F0D3B
:10A6100000000000706F73745F7265706C790000E9
:10A62000B2E9CAD53C4F4B3E00000000481A00205A
:10A6300023000020B7C9D0D026260D00F8B5324C33
:10A640007D2123780026314FFF250901032B34D0CB
:10A650000CDC2D480078401CC2B22C48002B4078FE
:10A6600009D0012B12D0022B49D11AE0042B2DD096
:10A67000FF2B44D145E06178491CC9B2617022705A
:10A6800000283CD022A0FEF74DFB38E0617802297B
:10A6900001D0227033E0002830D022A0FEF742FB28
:10A6A0002CE027A0FFF722F9002828D027A0FFF7E9
:10A6B000F5F800281DD0A68004E0254800F040F9F8
:10A6C00000281CD02078401C207018E021A0FFF743
:10A6D0000DF9002813D01DA0FFF7E0F8002808D0DE
:10A6E0007878002802D01EA0FEF71CFB26700420FC
:10A6F000F8BDA088411CA180052800D92570002044
:10A70000F8BD2670FF20F8BD440100202300002082
:10A71000466C6967687454696D65A3BA25640D0A4F
:10A7200000000000B6FEB4CEB7C9D0D0C4A3CABDE5
:10A73000A3ACB8B4CEBBC4A3BFE90D0A00000000AF
:10A7400041542B4346554E3D300D0A004F4B0000FF
:10A750008813000041542B4346554E3D310D0A00ED
:10A76000D4D9BFAAC6F4B9A6C4DC0D0A0000000003
:10A7700070B5324C7D2120780026C900FF250328C2
:10A7800040D006DC002809D0012812D002284DD183
:10A790001FE0FE284FD0FF2848D149E028A0FFF74E
:10A7A000A5F8002842D028A009E0A6802078401C07
:10A7B00034E026A0FFF79AF8002837D026A0FFF74C
:10A7C0006DF80028F1D1A088411CA1800A282CD85E
:10A7D0002CE07D21090124A0FFF788F8002825D06E
:10A7E00019A0FFF75BF800281AD022A0FFF756F84F
:10A7F000002815D11F220F212148FFF705FC002852
:10A80000D3D112E01FA0FFF771F800280ED020A0CE
:10A81000FFF744F8002803D0A680FE20207005E052
:10A82000A088411CA1801E2800D92570002070BD81
:10A830002670FF2070BD2670FE2070BD44010020F0
:10A84000415445300D0A00004F4B000041542B434A
:10A8500050494E3F0D0A00002B4350494E3A2052BA
:10A86000454144590000000041542B4353510D0A07
:10A87000000000002B4353513A2039392C3939005C
:10A88000481A002041542B43474154543F0D0A00BD
:10A890002B43474154543A203100000070B5124C0C
:10A8A00001252078ED03114E002802D0012818D18F
:10A8B00008E0012229463046FBF7ECFA2078401CDC
:10A8C00020700EE07D20C00000F03AF8002808D08B
:10A8D000002229463046FBF7DDFA002020700120D7
:10A8E00070BD002070BD0000440100200004005035
:10A8F000002801D00149C860704700002C000020EA
:10A9000070B50025074E2C46582060438019401C26
:10A91000FAF773FC4019641CE4B2C5B2282CF3D3D7
:10A92000284670BD6401002001B5034B0122694631
:10A930000248FCF747FB08BDFFFF00007C0F00202A
:10A9400007498A78002A02D1488101208870C87896
:10A95000002804D00020C87088700881012070474A
:10A960002C0000200000000000000000000000009B
:10A9700000000000000000000000000000000000D7
:10A9800000000000010000000200000003000000C1
:10A99000040000000600000007000000080000009E
:10A9A000090000000000000000000000000000009E
:10A9B0000000000001000000020000000300000091
:10A9C00004000000303132333435363738394142F3
:10A9D00043444546004040404040404040404141A3
:10A9E0004141414040404040404040404040404064
:10A9F00040404040400502020202020202020202FE
:10AA000002020202022020202020202020202002FA
:10AA1000020202020202909090909090101010108A
:10AA20001010101010101010101010101010101026
:10AA300002020202020288888888888808080808BA
:10AA40000808080808080808080808080808080886
:10AA50000202020240000000D5A9000865363565F3
:10AA60003764353735616631396537663931663176
:10AA7000333037353736643931646338613466369C
:10AA800065376637323462353738613530353437BB
:10AA90006437636637383131356165360000000050
:10AAA000613174336D67664341534E2E7975736817
:10AAB000656E677C7365637572656D6F64653D3245
:10AAC0002C7369676E6D6574686F643D686D616352
:10AAD0007368613235362C74696D657374616D709D
